{
    "tests/cancun/eip1153_tstore/test_tstorage.py::test_tload_after_tstore_is_zero[fork_Cancun-blockchain_test_engine_from_state_test]": {
        "network": "Cancun",
        "genesisBlockHeader": {
            "parentHash": "0x0000000000000000000000000000000000000000000000000000000000000000",
            "uncleHash": "0x1dcc4de8dec75d7aab85b567b6ccd41ad312451b948a7413f0a142fd40d49347",
            "coinbase": "0x0000000000000000000000000000000000000000",
            "stateRoot": "0xe6c23e808a2e2f1e1e966845e071f15faad131837ea1c1f4c73327fa07924f12",
            "transactionsTrie": "0x56e81f171bcc55a6ff8345e692c0f86e5b48e01b996cadc001622fb5e363b421",
            "receiptTrie": "0x56e81f171bcc55a6ff8345e692c0f86e5b48e01b996cadc001622fb5e363b421",
            "bloom": "0x00000000000000000000000000000000000000000000000000000000000000000000000000000000000000000000000000000000000000000000000000000000000000000000000000000000000000000000000000000000000000000000000000000000000000000000000000000000000000000000000000000000000000000000000000000000000000000000000000000000000000000000000000000000000000000000000000000000000000000000000000000000000000000000000000000000000000000000000000000000000000000000000000000000000000000000000000000000000000000000000000000000000000000000000000000000",
            "difficulty": "0x00",
            "number": "0x00",
            "gasLimit": "0x044aa200",
            "gasUsed": "0x00",
            "timestamp": "0x00",
            "extraData": "0x00",
            "mixHash": "0x0000000000000000000000000000000000000000000000000000000000000000",
            "nonce": "0x0000000000000000",
            "baseFeePerGas": "0x07",
            "withdrawalsRoot": "0x56e81f171bcc55a6ff8345e692c0f86e5b48e01b996cadc001622fb5e363b421",
            "blobGasUsed": "0x00",
            "excessBlobGas": "0x00",
            "parentBeaconBlockRoot": "0x0000000000000000000000000000000000000000000000000000000000000000",
            "hash": "0x156e47b8e56188604ff7afda58ab192de714544b577cb19f2b159bc79cc10ee4"
        },
        "pre": {
            "0x000f3df6d732807ef1319fb7b8bb8522d0beac02": {
                "nonce": "0x01",
                "balance": "0x00",
                "code": "0x3373fffffffffffffffffffffffffffffffffffffffe14604d57602036146024575f5ffd5b5f35801560495762001fff810690815414603c575f5ffd5b62001fff01545f5260205ff35b5f5ffd5b62001fff42064281555f359062001fff015500",
                "storage": {}
            },
            "0x0000000000000000000000000000000000001000": {
                "nonce": "0x01",
                "balance": "0x00",
                "code": "0x6104d260015d6104d260045d6104d27001000000000000000000000000000000005d6104d27ffffffffffffffffffffffffffffffffffffffffffffffffffffffffffffffffe5d60005c60005560035c6003556fffffffffffffffffffffffffffffffff5c6fffffffffffffffffffffffffffffffff557ffffffffffffffffffffffffffffffffffffffffffffffffffffffffffffffffd5c7ffffffffffffffffffffffffffffffffffffffffffffffffffffffffffffffffd5560025c60025560055c6005557001000000000000000000000000000000015c700100000000000000000000000000000001557fffffffffffffffffffffffffffffffffffffffffffffffffffffffffffffffff5c7fffffffffffffffffffffffffffffffffffffffffffffffffffffffffffffffff55",
                "storage": {
                    "0x01": "0xffff",
                    "0x04": "0xffff",
                    "0x0100000000000000000000000000000000": "0xffff",
                    "0xfffffffffffffffffffffffffffffffffffffffffffffffffffffffffffffffe": "0xffff",
                    "0x00": "0xffff",
                    "0x03": "0xffff",
                    "0xffffffffffffffffffffffffffffffff": "0xffff",
                    "0xfffffffffffffffffffffffffffffffffffffffffffffffffffffffffffffffd": "0xffff",
                    "0x02": "0xffff",
                    "0x05": "0xffff",
                    "0x0100000000000000000000000000000001": "0xffff",
                    "0xffffffffffffffffffffffffffffffffffffffffffffffffffffffffffffffff": "0xffff"
                }
            },
            "0xa94f5374fce5edbc8e2a8697c15331677e6ebf0b": {
                "nonce": "0x00",
                "balance": "0x3635c9adc5dea00000",
                "code": "0x",
                "storage": {}
            }
        },
        "postState": {
            "0x000f3df6d732807ef1319fb7b8bb8522d0beac02": {
                "nonce": "0x01",
                "balance": "0x00",
                "code": "0x3373fffffffffffffffffffffffffffffffffffffffe14604d57602036146024575f5ffd5b5f35801560495762001fff810690815414603c575f5ffd5b62001fff01545f5260205ff35b5f5ffd5b62001fff42064281555f359062001fff015500",
                "storage": {
                    "0x03e8": "0x03e8"
                }
            },
            "0x0000000000000000000000000000000000001000": {
                "nonce": "0x01",
                "balance": "0x00",
                "code": "0x6104d260015d6104d260045d6104d27001000000000000000000000000000000005d6104d27ffffffffffffffffffffffffffffffffffffffffffffffffffffffffffffffffe5d60005c60005560035c6003556fffffffffffffffffffffffffffffffff5c6fffffffffffffffffffffffffffffffff557ffffffffffffffffffffffffffffffffffffffffffffffffffffffffffffffffd5c7ffffffffffffffffffffffffffffffffffffffffffffffffffffffffffffffffd5560025c60025560055c6005557001000000000000000000000000000000015c700100000000000000000000000000000001557fffffffffffffffffffffffffffffffffffffffffffffffffffffffffffffffff5c7fffffffffffffffffffffffffffffffffffffffffffffffffffffffffffffffff55",
                "storage": {
                    "0x01": "0xffff",
                    "0x04": "0xffff",
                    "0x0100000000000000000000000000000000": "0xffff",
                    "0xfffffffffffffffffffffffffffffffffffffffffffffffffffffffffffffffe": "0xffff"
                }
            },
            "0xa94f5374fce5edbc8e2a8697c15331677e6ebf0b": {
                "nonce": "0x01",
                "balance": "0x3635c9adc5de9865fc",
                "code": "0x",
                "storage": {}
            },
            "0x2adc25665018aa1fe0e6bc666dac8fc2697ff9ba": {
                "nonce": "0x00",
                "balance": "0x0247ce",
                "code": "0x",
                "storage": {}
            }
        },
        "lastblockhash": "0x9f2af7af1c9bff2c50ff237672b7c7e6306cfbf88cca6336c43a2483336757cf",
        "config": {
            "network": "Cancun",
            "chainid": "0x01",
            "blobSchedule": {
                "Cancun": {
                    "target": "0x03",
                    "max": "0x06",
                    "baseFeeUpdateFraction": "0x32f0ed"
                }
            }
        },
        "engineNewPayloads": [
            {
                "params": [
                    {
                        "parentHash": "0x156e47b8e56188604ff7afda58ab192de714544b577cb19f2b159bc79cc10ee4",
                        "feeRecipient": "0x2adc25665018aa1fe0e6bc666dac8fc2697ff9ba",
                        "stateRoot": "0xce48056672180c22019daaa43d386508c5537dc10862ac4f0cd0e0165f2c0cba",
                        "receiptsRoot": "0x77e65041c9f39e32cbc3c7313c8a3470959f7a66b7d07ea289d94db481a1e916",
                        "logsBloom": "0x00000000000000000000000000000000000000000000000000000000000000000000000000000000000000000000000000000000000000000000000000000000000000000000000000000000000000000000000000000000000000000000000000000000000000000000000000000000000000000000000000000000000000000000000000000000000000000000000000000000000000000000000000000000000000000000000000000000000000000000000000000000000000000000000000000000000000000000000000000000000000000000000000000000000000000000000000000000000000000000000000000000000000000000000000000000",
                        "blockNumber": "0x1",
                        "gasLimit": "0x44aa200",
                        "gasUsed": "0xc29a",
                        "timestamp": "0x3e8",
                        "extraData": "0x00",
                        "prevRandao": "0x0000000000000000000000000000000000000000000000000000000000000000",
                        "baseFeePerGas": "0x7",
                        "blobGasUsed": "0x0",
                        "excessBlobGas": "0x0",
                        "blockHash": "0x9f2af7af1c9bff2c50ff237672b7c7e6306cfbf88cca6336c43a2483336757cf",
                        "transactions": [
                            "0xf860800a830f4240940000000000000000000000000000000000001000808026a07b0cbd2d85800843e73b1a917828915aaaf49021e4c7896ecc4fcc460e070cf5a071bda31b1d867df266f75bd3fb2efd3ac4aef1b574d092593346940024f69c9a"
                        ],
                        "withdrawals": []
                    },
                    [],
                    "0x0000000000000000000000000000000000000000000000000000000000000000"
                ],
                "newPayloadVersion": "3",
                "forkchoiceUpdatedVersion": "3"
            }
        ],
        "_info": {
            "hash": "0x16248cfebd98c4664e4136aadcd8bb46e2dc5143551b8197321b7c8fc09aee99",
            "comment": "`execution-spec-tests` generated test",
            "filling-transition-tool": "ethereum-spec-evm-resolver 0.0.5",
            "description": "Test that tload returns zero after tstore is called with zero.\n\n    Based on [ethereum/tests/.../03_tloadAfterStoreIs0Filler.yml](https://github.com/ethereum/tests/blob/9b00b68593f5869eb51a6659e1cc983e875e616b/src/EIPTestsFiller/StateTests/stEIP1153-transientStorage/03_tloadAfterStoreIs0Filler.yml)\",",
            "url": "https://github.com/ethereum/execution-spec-tests/tree/v4.5.0/tests/cancun/eip1153_tstore/test_tstorage.py#L142",
            "fixture-format": "blockchain_test_engine",
            "reference-spec": "https://github.com/ethereum/EIPs/blob/master/EIPS/eip-1153.md",
            "reference-spec-version": "1eb863b534a5a3e19e9c196ab2a7f3db4bb9da17",
            "eels-resolution": {
                "git-url": "https://github.com/ethereum/execution-specs.git",
                "branch": "master",
                "commit": "fa847a0e48309debee8edc510ceddb2fd5db2f2e"
            }
        }
    }
}