{
    "tests/cancun/eip4788_beacon_root/test_beacon_root_contract.py::test_beacon_root_contract_deploy[fork_ShanghaiToCancunAtTime15k-blockchain_test-deploy_on_cancun]": {
        "network": "ShanghaiToCancunAtTime15k",
        "genesisBlockHeader": {
            "parentHash": "0x0000000000000000000000000000000000000000000000000000000000000000",
            "uncleHash": "0x1dcc4de8dec75d7aab85b567b6ccd41ad312451b948a7413f0a142fd40d49347",
            "coinbase": "0x0000000000000000000000000000000000000000",
            "stateRoot": "0x0517ae30cbe5d26edd452e7a872b2cd875fc447a6cfdfac6535574e9dbea01ac",
            "transactionsTrie": "0x56e81f171bcc55a6ff8345e692c0f86e5b48e01b996cadc001622fb5e363b421",
            "receiptTrie": "0x56e81f171bcc55a6ff8345e692c0f86e5b48e01b996cadc001622fb5e363b421",
            "bloom": "0x00000000000000000000000000000000000000000000000000000000000000000000000000000000000000000000000000000000000000000000000000000000000000000000000000000000000000000000000000000000000000000000000000000000000000000000000000000000000000000000000000000000000000000000000000000000000000000000000000000000000000000000000000000000000000000000000000000000000000000000000000000000000000000000000000000000000000000000000000000000000000000000000000000000000000000000000000000000000000000000000000000000000000000000000000000000",
            "difficulty": "0x00",
            "number": "0x00",
            "gasLimit": "0x044aa200",
            "gasUsed": "0x00",
            "timestamp": "0x00",
            "extraData": "0x00",
            "mixHash": "0x0000000000000000000000000000000000000000000000000000000000000000",
            "nonce": "0x0000000000000000",
            "baseFeePerGas": "0x07",
            "withdrawalsRoot": "0x56e81f171bcc55a6ff8345e692c0f86e5b48e01b996cadc001622fb5e363b421",
            "hash": "0x78a9301820da3b8cb95162f5f3285d44505a4b40c6a6eee772d750c88e0c558d"
        },
        "pre": {
            "0x0000000000000000000000000000000000001000": {
                "nonce": "0x01",
                "balance": "0x010000000000",
                "code": "0x366000602037602060003660206000720f3df6d732807ef1319fb7b8bb8522d0beac02620186a0f16000556000516001553d6002553d600060003e600051600355",
                "storage": {}
            },
            "0xa94f5374fce5edbc8e2a8697c15331677e6ebf0b": {
                "nonce": "0x00",
                "balance": "0x3635c9adc5dea00000",
                "code": "0x",
                "storage": {}
            },
            "0x0b799c86a49deeb90402691f1041aa3af2d3c875": {
                "nonce": "0x00",
                "balance": "0x03782dace9d90000",
                "code": "0x",
                "storage": {}
            }
        },
        "postState": {
            "0x0000000000000000000000000000000000001000": {
                "nonce": "0x01",
                "balance": "0x010000000000",
                "code": "0x366000602037602060003660206000720f3df6d732807ef1319fb7b8bb8522d0beac02620186a0f16000556000516001553d6002553d600060003e600051600355",
                "storage": {
                    "0x00": "0x01",
                    "0x01": "0x6c31fc15422ebad28aaf9089c306702f67540b53c7eea8b7d2941044b027100f",
                    "0x02": "0x20",
                    "0x03": "0x6c31fc15422ebad28aaf9089c306702f67540b53c7eea8b7d2941044b027100f"
                }
            },
            "0xa94f5374fce5edbc8e2a8697c15331677e6ebf0b": {
                "nonce": "0x01",
                "balance": "0x3635c9adc5de938d08",
                "code": "0x",
                "storage": {}
            },
            "0x0b799c86a49deeb90402691f1041aa3af2d3c875": {
                "nonce": "0x01",
                "balance": "0x0270faab824ec000",
                "code": "0x",
                "storage": {}
            },
            "0x000f3df6d732807ef1319fb7b8bb8522d0beac02": {
                "nonce": "0x01",
                "balance": "0x77359400",
                "code": "0x3373fffffffffffffffffffffffffffffffffffffffe14604d57602036146024575f5ffd5b5f35801560495762001fff810690815414603c575f5ffd5b62001fff01545f5260205ff35b5f5ffd5b62001fff42064281555f359062001fff015500",
                "storage": {
                    "0x1533": "0x7530",
                    "0x3532": "0x6c31fc15422ebad28aaf9089c306702f67540b53c7eea8b7d2941044b027100f"
                }
            },
            "0x2adc25665018aa1fe0e6bc666dac8fc2697ff9ba": {
                "nonce": "0x00",
                "balance": "0x0107330167825644",
                "code": "0x",
                "storage": {}
            },
            "0xfffffffffffffffffffffffffffffffffffffffe": {
                "nonce": "0x00",
                "balance": "0x77359400",
                "code": "0x",
                "storage": {}
            }
        },
        "lastblockhash": "0xa330340ed75ea5baade38e66b0329bded0ab926bd18fae27228a85edd310c279",
        "config": {
            "network": "ShanghaiToCancunAtTime15k",
            "chainid": "0x01",
            "blobSchedule": {
                "Cancun": {
                    "target": "0x03",
                    "max": "0x06",
                    "baseFeeUpdateFraction": "0x32f0ed"
                }
            }
        },
        "genesisRLP": "0xf90219f90213a00000000000000000000000000000000000000000000000000000000000000000a01dcc4de8dec75d7aab85b567b6ccd41ad312451b948a7413f0a142fd40d49347940000000000000000000000000000000000000000a00517ae30cbe5d26edd452e7a872b2cd875fc447a6cfdfac6535574e9dbea01aca056e81f171bcc55a6ff8345e692c0f86e5b48e01b996cadc001622fb5e363b421a056e81f171bcc55a6ff8345e692c0f86e5b48e01b996cadc001622fb5e363b421b9010000000000000000000000000000000000000000000000000000000000000000000000000000000000000000000000000000000000000000000000000000000000000000000000000000000000000000000000000000000000000000000000000000000000000000000000000000000000000000000000000000000000000000000000000000000000000000000000000000000000000000000000000000000000000000000000000000000000000000000000000000000000000000000000000000000000000000000000000000000000000000000000000000000000000000000000000000000000000000000000000000000000000000000000000000000000808084044aa200808000a0000000000000000000000000000000000000000000000000000000000000000088000000000000000007a056e81f171bcc55a6ff8345e692c0f86e5b48e01b996cadc001622fb5e363b421c0c0c0",
        "blocks": [
            {
                "blockHeader": {
                    "parentHash": "0x78a9301820da3b8cb95162f5f3285d44505a4b40c6a6eee772d750c88e0c558d",
                    "uncleHash": "0x1dcc4de8dec75d7aab85b567b6ccd41ad312451b948a7413f0a142fd40d49347",
                    "coinbase": "0x2adc25665018aa1fe0e6bc666dac8fc2697ff9ba",
                    "stateRoot": "0x07676f1b8708a3ec5b0724c25c51ba09b2c17ee0a2181f9ea75a724cf4cf42f0",
                    "transactionsTrie": "0xd87da2b23fc7bbfa7e2994ee830e73325af892d036e2e5d90d9f17ff2dd41d9d",
                    "receiptTrie": "0xd5caddb93c844bd1c4a6364ec17b3f09afea9b2f335d8aba110ef6b0c9d9bfeb",
                    "bloom": "0x00000000000000000000000000000000000000000000000000000000000000000000000000000000000000000000000000000000000000000000000000000000000000000000000000000000000000000000000000000000000000000000000000000000000000000000000000000000000000000000000000000000000000000000000000000000000000000000000000000000000000000000000000000000000000000000000000000000000000000000000000000000000000000000000000000000000000000000000000000000000000000000000000000000000000000000000000000000000000000000000000000000000000000000000000000000",
                    "difficulty": "0x00",
                    "number": "0x01",
                    "gasLimit": "0x044aa200",
                    "gasUsed": "0x012164",
                    "timestamp": "0x3a98",
                    "extraData": "0x",
                    "mixHash": "0x0000000000000000000000000000000000000000000000000000000000000000",
                    "nonce": "0x0000000000000000",
                    "baseFeePerGas": "0x07",
                    "withdrawalsRoot": "0x2aef4d3e6939af0b4bf4c0e7572a214eb7db9ba52937e1e82ad6c64b52d2e8bb",
                    "blobGasUsed": "0x00",
                    "excessBlobGas": "0x00",
                    "parentBeaconBlockRoot": "0x6c31fc15422ebad28aaf9089c306702f67540b53c7eea8b7d2941044b027100f",
                    "hash": "0xcab4a0306df401c0c5e2da8e8ff8afb15048eee01125635df80510540d8c057a"
                },
                "transactions": [
                    {
                        "type": "0x00",
                        "chainId": "0x01",
                        "nonce": "0x00",
                        "gasPrice": "0xe8d4a51000",
                        "gasLimit": "0x03d090",
                        "value": "0x00",
                        "data": "0x60618060095f395ff33373fffffffffffffffffffffffffffffffffffffffe14604d57602036146024575f5ffd5b5f35801560495762001fff810690815414603c575f5ffd5b62001fff01545f5260205ff35b5f5ffd5b62001fff42064281555f359062001fff015500",
                        "v": "0x1b",
                        "r": "0x0539",
                        "s": "0x1b9b6eb1f0",
                        "sender": "0x0b799c86a49deeb90402691f1041aa3af2d3c875",
                        "to": ""
                    }
                ],
                "uncleHeaders": [],
                "withdrawals": [
                    {
                        "index": "0x00",
                        "validatorIndex": "0x00",
                        "address": "0x000f3df6d732807ef1319fb7b8bb8522d0beac02",
                        "amount": "0x01"
                    },
                    {
                        "index": "0x01",
                        "validatorIndex": "0x01",
                        "address": "0xfffffffffffffffffffffffffffffffffffffffe",
                        "amount": "0x01"
                    }
                ],
                "rlp": "0xf902f9f9023ba078a9301820da3b8cb95162f5f3285d44505a4b40c6a6eee772d750c88e0c558da01dcc4de8dec75d7aab85b567b6ccd41ad312451b948a7413f0a142fd40d49347942adc25665018aa1fe0e6bc666dac8fc2697ff9baa007676f1b8708a3ec5b0724c25c51ba09b2c17ee0a2181f9ea75a724cf4cf42f0a0d87da2b23fc7bbfa7e2994ee830e73325af892d036e2e5d90d9f17ff2dd41d9da0d5caddb93c844bd1c4a6364ec17b3f09afea9b2f335d8aba110ef6b0c9d9bfebb9010000000000000000000000000000000000000000000000000000000000000000000000000000000000000000000000000000000000000000000000000000000000000000000000000000000000000000000000000000000000000000000000000000000000000000000000000000000000000000000000000000000000000000000000000000000000000000000000000000000000000000000000000000000000000000000000000000000000000000000000000000000000000000000000000000000000000000000000000000000000000000000000000000000000000000000000000000000000000000000000000000000000000000000000000000000000800184044aa20083012164823a9880a0000000000000000000000000000000000000000000000000000000000000000088000000000000000007a02aef4d3e6939af0b4bf4c0e7572a214eb7db9ba52937e1e82ad6c64b52d2e8bb8080a06c31fc15422ebad28aaf9089c306702f67540b53c7eea8b7d2941044b027100ff885f8838085e8d4a510008303d0908080b86a60618060095f395ff33373fffffffffffffffffffffffffffffffffffffffe14604d57602036146024575f5ffd5b5f35801560495762001fff810690815414603c575f5ffd5b62001fff01545f5260205ff35b5f5ffd5b62001fff42064281555f359062001fff0155001b820539851b9b6eb1f0c0f2d8808094000f3df6d732807ef1319fb7b8bb8522d0beac0201d8010194fffffffffffffffffffffffffffffffffffffffe01",
                "blocknumber": "1"
            },
            {
                "blockHeader": {
                    "parentHash": "0xcab4a0306df401c0c5e2da8e8ff8afb15048eee01125635df80510540d8c057a",
                    "uncleHash": "0x1dcc4de8dec75d7aab85b567b6ccd41ad312451b948a7413f0a142fd40d49347",
                    "coinbase": "0x2adc25665018aa1fe0e6bc666dac8fc2697ff9ba",
                    "stateRoot": "0x566878a43eab9200f953ea5e1d11095d759da978e6b9e3f59845f40928c81eb2",
                    "transactionsTrie": "0x7bdef3e42f99523c08bbbd4e4c9fee0b934212e843412a3b28dae09e723e271f",
                    "receiptTrie": "0x1ccaf316c85ab72468f194a8a6bf7f7cac5730696d7dd3a5dc298fac47cfe273",
                    "bloom": "0x00000000000000000000000000000000000000000000000000000000000000000000000000000000000000000000000000000000000000000000000000000000000000000000000000000000000000000000000000000000000000000000000000000000000000000000000000000000000000000000000000000000000000000000000000000000000000000000000000000000000000000000000000000000000000000000000000000000000000000000000000000000000000000000000000000000000000000000000000000000000000000000000000000000000000000000000000000000000000000000000000000000000000000000000000000000",
                    "difficulty": "0x00",
                    "number": "0x02",
                    "gasLimit": "0x044aa200",
                    "gasUsed": "0x01c748",
                    "timestamp": "0x7530",
                    "extraData": "0x",
                    "mixHash": "0x0000000000000000000000000000000000000000000000000000000000000000",
                    "nonce": "0x0000000000000000",
                    "baseFeePerGas": "0x07",
                    "withdrawalsRoot": "0xd21739e00fbe6b25846bb8079ed6fd6533baa1e8b127b158f651ae16edac1f10",
                    "blobGasUsed": "0x00",
                    "excessBlobGas": "0x00",
                    "parentBeaconBlockRoot": "0x6c31fc15422ebad28aaf9089c306702f67540b53c7eea8b7d2941044b027100f",
                    "hash": "0xa330340ed75ea5baade38e66b0329bded0ab926bd18fae27228a85edd310c279"
                },
                "transactions": [
                    {
                        "type": "0x02",
                        "chainId": "0x01",
                        "nonce": "0x00",
                        "maxPriorityFeePerGas": "0x00",
                        "maxFeePerGas": "0x07",
                        "gasLimit": "0x0f4240",
                        "to": "0x0000000000000000000000000000000000001000",
                        "value": "0x00",
                        "data": "0x0000000000000000000000000000000000000000000000000000000000007530",
                        "accessList": [],
                        "v": "0x00",
                        "r": "0xe2e902739c18499f4b823f834ee99e9c823ccf26181ab7501fcaf35d3f6810af",
                        "s": "0x72020d38efaa0d1ecd6a72edaf3de5f74ec07177bd2944208527331be9a433d0",
                        "sender": "0xa94f5374fce5edbc8e2a8697c15331677e6ebf0b"
                    }
                ],
                "uncleHeaders": [],
                "withdrawals": [
                    {
                        "index": "0x02",
                        "validatorIndex": "0x00",
                        "address": "0x000f3df6d732807ef1319fb7b8bb8522d0beac02",
                        "amount": "0x01"
                    },
                    {
                        "index": "0x03",
                        "validatorIndex": "0x01",
                        "address": "0xfffffffffffffffffffffffffffffffffffffffe",
                        "amount": "0x01"
                    }
                ],
                "rlp": "0xf902fcf9023ba0cab4a0306df401c0c5e2da8e8ff8afb15048eee01125635df80510540d8c057aa01dcc4de8dec75d7aab85b567b6ccd41ad312451b948a7413f0a142fd40d49347942adc25665018aa1fe0e6bc666dac8fc2697ff9baa0566878a43eab9200f953ea5e1d11095d759da978e6b9e3f59845f40928c81eb2a07bdef3e42f99523c08bbbd4e4c9fee0b934212e843412a3b28dae09e723e271fa01ccaf316c85ab72468f194a8a6bf7f7cac5730696d7dd3a5dc298fac47cfe273b9010000000000000000000000000000000000000000000000000000000000000000000000000000000000000000000000000000000000000000000000000000000000000000000000000000000000000000000000000000000000000000000000000000000000000000000000000000000000000000000000000000000000000000000000000000000000000000000000000000000000000000000000000000000000000000000000000000000000000000000000000000000000000000000000000000000000000000000000000000000000000000000000000000000000000000000000000000000000000000000000000000000000000000000000000000000000800284044aa2008301c74882753080a0000000000000000000000000000000000000000000000000000000000000000088000000000000000007a0d21739e00fbe6b25846bb8079ed6fd6533baa1e8b127b158f651ae16edac1f108080a06c31fc15422ebad28aaf9089c306702f67540b53c7eea8b7d2941044b027100ff888b88602f88301808007830f424094000000000000000000000000000000000000100080a00000000000000000000000000000000000000000000000000000000000007530c080a0e2e902739c18499f4b823f834ee99e9c823ccf26181ab7501fcaf35d3f6810afa072020d38efaa0d1ecd6a72edaf3de5f74ec07177bd2944208527331be9a433d0c0f2d8028094000f3df6d732807ef1319fb7b8bb8522d0beac0201d8030194fffffffffffffffffffffffffffffffffffffffe01",
                "blocknumber": "2"
            }
        ],
        "sealEngine": "NoProof",
        "_info": {
            "hash": "0x91c6053ef9f783f2488aa8e15180a0b4bef3f654483d3cf9646f466c89ae4d4a",
            "comment": "`execution-spec-tests` generated test",
            "filling-transition-tool": "ethereum-spec-evm-resolver 0.0.5",
            "description": "Tests the fork transition to cancun deploying the contract during Shanghai and verifying the\n    code deployed and its functionality after Cancun.",
            "url": "https://github.com/ethereum/execution-spec-tests/tree/v4.5.0/tests/cancun/eip4788_beacon_root/test_beacon_root_contract.py#L645",
            "fixture-format": "blockchain_test",
            "reference-spec": "https://github.com/ethereum/EIPs/blob/master/EIPS/eip-4788.md",
            "reference-spec-version": "efcac43ef9aadd87dd4e0a2fbd14d5d1317eddf3",
            "eels-resolution": {
                "git-url": "https://github.com/ethereum/execution-specs.git",
                "branch": "master",
                "commit": "fa847a0e48309debee8edc510ceddb2fd5db2f2e"
            }
        }
    },
    "tests/cancun/eip4788_beacon_root/test_beacon_root_contract.py::test_beacon_root_contract_deploy[fork_ShanghaiToCancunAtTime15k-blockchain_test-deploy_on_shanghai]": {
        "network": "ShanghaiToCancunAtTime15k",
        "genesisBlockHeader": {
            "parentHash": "0x0000000000000000000000000000000000000000000000000000000000000000",
            "uncleHash": "0x1dcc4de8dec75d7aab85b567b6ccd41ad312451b948a7413f0a142fd40d49347",
            "coinbase": "0x0000000000000000000000000000000000000000",
            "stateRoot": "0x0517ae30cbe5d26edd452e7a872b2cd875fc447a6cfdfac6535574e9dbea01ac",
            "transactionsTrie": "0x56e81f171bcc55a6ff8345e692c0f86e5b48e01b996cadc001622fb5e363b421",
            "receiptTrie": "0x56e81f171bcc55a6ff8345e692c0f86e5b48e01b996cadc001622fb5e363b421",
            "bloom": "0x00000000000000000000000000000000000000000000000000000000000000000000000000000000000000000000000000000000000000000000000000000000000000000000000000000000000000000000000000000000000000000000000000000000000000000000000000000000000000000000000000000000000000000000000000000000000000000000000000000000000000000000000000000000000000000000000000000000000000000000000000000000000000000000000000000000000000000000000000000000000000000000000000000000000000000000000000000000000000000000000000000000000000000000000000000000",
            "difficulty": "0x00",
            "number": "0x00",
            "gasLimit": "0x044aa200",
            "gasUsed": "0x00",
            "timestamp": "0x00",
            "extraData": "0x00",
            "mixHash": "0x0000000000000000000000000000000000000000000000000000000000000000",
            "nonce": "0x0000000000000000",
            "baseFeePerGas": "0x07",
            "withdrawalsRoot": "0x56e81f171bcc55a6ff8345e692c0f86e5b48e01b996cadc001622fb5e363b421",
            "hash": "0x78a9301820da3b8cb95162f5f3285d44505a4b40c6a6eee772d750c88e0c558d"
        },
        "pre": {
            "0x0000000000000000000000000000000000001000": {
                "nonce": "0x01",
                "balance": "0x010000000000",
                "code": "0x366000602037602060003660206000720f3df6d732807ef1319fb7b8bb8522d0beac02620186a0f16000556000516001553d6002553d600060003e600051600355",
                "storage": {}
            },
            "0xa94f5374fce5edbc8e2a8697c15331677e6ebf0b": {
                "nonce": "0x00",
                "balance": "0x3635c9adc5dea00000",
                "code": "0x",
                "storage": {}
            },
            "0x0b799c86a49deeb90402691f1041aa3af2d3c875": {
                "nonce": "0x00",
                "balance": "0x03782dace9d90000",
                "code": "0x",
                "storage": {}
            }
        },
        "postState": {
            "0x0000000000000000000000000000000000001000": {
                "nonce": "0x01",
                "balance": "0x010000000000",
                "code": "0x366000602037602060003660206000720f3df6d732807ef1319fb7b8bb8522d0beac02620186a0f16000556000516001553d6002553d600060003e600051600355",
                "storage": {
                    "0x00": "0x01",
                    "0x01": "0x6c31fc15422ebad28aaf9089c306702f67540b53c7eea8b7d2941044b027100f",
                    "0x02": "0x20",
                    "0x03": "0x6c31fc15422ebad28aaf9089c306702f67540b53c7eea8b7d2941044b027100f"
                }
            },
            "0xa94f5374fce5edbc8e2a8697c15331677e6ebf0b": {
                "nonce": "0x01",
                "balance": "0x3635c9adc5de938d08",
                "code": "0x",
                "storage": {}
            },
            "0x0b799c86a49deeb90402691f1041aa3af2d3c875": {
                "nonce": "0x01",
                "balance": "0x0270faab824ec000",
                "code": "0x",
                "storage": {}
            },
            "0x000f3df6d732807ef1319fb7b8bb8522d0beac02": {
                "nonce": "0x01",
                "balance": "0x77359400",
                "code": "0x3373fffffffffffffffffffffffffffffffffffffffe14604d57602036146024575f5ffd5b5f35801560495762001fff810690815414603c575f5ffd5b62001fff01545f5260205ff35b5f5ffd5b62001fff42064281555f359062001fff015500",
                "storage": {
                    "0x1a99": "0x3a98",
                    "0x3a98": "0x6c31fc15422ebad28aaf9089c306702f67540b53c7eea8b7d2941044b027100f"
                }
            },
            "0x2adc25665018aa1fe0e6bc666dac8fc2697ff9ba": {
                "nonce": "0x00",
                "balance": "0x0107330167825644",
                "code": "0x",
                "storage": {}
            },
            "0xfffffffffffffffffffffffffffffffffffffffe": {
                "nonce": "0x00",
                "balance": "0x77359400",
                "code": "0x",
                "storage": {}
            }
        },
        "lastblockhash": "0x6fcdc12316736277d94657ed45d95faa79f4bc3748174ae1087216a6d7f63f21",
        "config": {
            "network": "ShanghaiToCancunAtTime15k",
            "chainid": "0x01",
            "blobSchedule": {
                "Cancun": {
                    "target": "0x03",
                    "max": "0x06",
                    "baseFeeUpdateFraction": "0x32f0ed"
                }
            }
        },
        "genesisRLP": "0xf90219f90213a00000000000000000000000000000000000000000000000000000000000000000a01dcc4de8dec75d7aab85b567b6ccd41ad312451b948a7413f0a142fd40d49347940000000000000000000000000000000000000000a00517ae30cbe5d26edd452e7a872b2cd875fc447a6cfdfac6535574e9dbea01aca056e81f171bcc55a6ff8345e692c0f86e5b48e01b996cadc001622fb5e363b421a056e81f171bcc55a6ff8345e692c0f86e5b48e01b996cadc001622fb5e363b421b9010000000000000000000000000000000000000000000000000000000000000000000000000000000000000000000000000000000000000000000000000000000000000000000000000000000000000000000000000000000000000000000000000000000000000000000000000000000000000000000000000000000000000000000000000000000000000000000000000000000000000000000000000000000000000000000000000000000000000000000000000000000000000000000000000000000000000000000000000000000000000000000000000000000000000000000000000000000000000000000000000000000000000000000000000000000000808084044aa200808000a0000000000000000000000000000000000000000000000000000000000000000088000000000000000007a056e81f171bcc55a6ff8345e692c0f86e5b48e01b996cadc001622fb5e363b421c0c0c0",
        "blocks": [
            {
                "blockHeader": {
                    "parentHash": "0x78a9301820da3b8cb95162f5f3285d44505a4b40c6a6eee772d750c88e0c558d",
                    "uncleHash": "0x1dcc4de8dec75d7aab85b567b6ccd41ad312451b948a7413f0a142fd40d49347",
                    "coinbase": "0x2adc25665018aa1fe0e6bc666dac8fc2697ff9ba",
                    "stateRoot": "0x07676f1b8708a3ec5b0724c25c51ba09b2c17ee0a2181f9ea75a724cf4cf42f0",
                    "transactionsTrie": "0xd87da2b23fc7bbfa7e2994ee830e73325af892d036e2e5d90d9f17ff2dd41d9d",
                    "receiptTrie": "0xd5caddb93c844bd1c4a6364ec17b3f09afea9b2f335d8aba110ef6b0c9d9bfeb",
                    "bloom": "0x00000000000000000000000000000000000000000000000000000000000000000000000000000000000000000000000000000000000000000000000000000000000000000000000000000000000000000000000000000000000000000000000000000000000000000000000000000000000000000000000000000000000000000000000000000000000000000000000000000000000000000000000000000000000000000000000000000000000000000000000000000000000000000000000000000000000000000000000000000000000000000000000000000000000000000000000000000000000000000000000000000000000000000000000000000000",
                    "difficulty": "0x00",
                    "number": "0x01",
                    "gasLimit": "0x044aa200",
                    "gasUsed": "0x012164",
                    "timestamp": "0x1d4c",
                    "extraData": "0x",
                    "mixHash": "0x0000000000000000000000000000000000000000000000000000000000000000",
                    "nonce": "0x0000000000000000",
                    "baseFeePerGas": "0x07",
                    "withdrawalsRoot": "0x2aef4d3e6939af0b4bf4c0e7572a214eb7db9ba52937e1e82ad6c64b52d2e8bb",
                    "hash": "0xda1e17f1d086f8cda6e9d103ad746e191ec74a568d59dee89fd9db2fc454eb40"
                },
                "transactions": [
                    {
                        "type": "0x00",
                        "chainId": "0x01",
                        "nonce": "0x00",
                        "gasPrice": "0xe8d4a51000",
                        "gasLimit": "0x03d090",
                        "value": "0x00",
                        "data": "0x60618060095f395ff33373fffffffffffffffffffffffffffffffffffffffe14604d57602036146024575f5ffd5b5f35801560495762001fff810690815414603c575f5ffd5b62001fff01545f5260205ff35b5f5ffd5b62001fff42064281555f359062001fff015500",
                        "v": "0x1b",
                        "r": "0x0539",
                        "s": "0x1b9b6eb1f0",
                        "sender": "0x0b799c86a49deeb90402691f1041aa3af2d3c875",
                        "to": ""
                    }
                ],
                "uncleHeaders": [],
                "withdrawals": [
                    {
                        "index": "0x00",
                        "validatorIndex": "0x00",
                        "address": "0x000f3df6d732807ef1319fb7b8bb8522d0beac02",
                        "amount": "0x01"
                    },
                    {
                        "index": "0x01",
                        "validatorIndex": "0x01",
                        "address": "0xfffffffffffffffffffffffffffffffffffffffe",
                        "amount": "0x01"
                    }
                ],
                "rlp": "0xf902d6f90218a078a9301820da3b8cb95162f5f3285d44505a4b40c6a6eee772d750c88e0c558da01dcc4de8dec75d7aab85b567b6ccd41ad312451b948a7413f0a142fd40d49347942adc25665018aa1fe0e6bc666dac8fc2697ff9baa007676f1b8708a3ec5b0724c25c51ba09b2c17ee0a2181f9ea75a724cf4cf42f0a0d87da2b23fc7bbfa7e2994ee830e73325af892d036e2e5d90d9f17ff2dd41d9da0d5caddb93c844bd1c4a6364ec17b3f09afea9b2f335d8aba110ef6b0c9d9bfebb9010000000000000000000000000000000000000000000000000000000000000000000000000000000000000000000000000000000000000000000000000000000000000000000000000000000000000000000000000000000000000000000000000000000000000000000000000000000000000000000000000000000000000000000000000000000000000000000000000000000000000000000000000000000000000000000000000000000000000000000000000000000000000000000000000000000000000000000000000000000000000000000000000000000000000000000000000000000000000000000000000000000000000000000000000000000000800184044aa20083012164821d4c80a0000000000000000000000000000000000000000000000000000000000000000088000000000000000007a02aef4d3e6939af0b4bf4c0e7572a214eb7db9ba52937e1e82ad6c64b52d2e8bbf885f8838085e8d4a510008303d0908080b86a60618060095f395ff33373fffffffffffffffffffffffffffffffffffffffe14604d57602036146024575f5ffd5b5f35801560495762001fff810690815414603c575f5ffd5b62001fff01545f5260205ff35b5f5ffd5b62001fff42064281555f359062001fff0155001b820539851b9b6eb1f0c0f2d8808094000f3df6d732807ef1319fb7b8bb8522d0beac0201d8010194fffffffffffffffffffffffffffffffffffffffe01",
                "blocknumber": "1"
            },
            {
                "blockHeader": {
                    "parentHash": "0xda1e17f1d086f8cda6e9d103ad746e191ec74a568d59dee89fd9db2fc454eb40",
                    "uncleHash": "0x1dcc4de8dec75d7aab85b567b6ccd41ad312451b948a7413f0a142fd40d49347",
                    "coinbase": "0x2adc25665018aa1fe0e6bc666dac8fc2697ff9ba",
                    "stateRoot": "0xb834abcd74302e5a5337c72c3816856c1dd54bd046c76e62fc71e77a9575be47",
                    "transactionsTrie": "0x1124cb5edf02a0f283d7be8fa1a2906916fadfb7991412d233399433624c4910",
                    "receiptTrie": "0x1ccaf316c85ab72468f194a8a6bf7f7cac5730696d7dd3a5dc298fac47cfe273",
                    "bloom": "0x00000000000000000000000000000000000000000000000000000000000000000000000000000000000000000000000000000000000000000000000000000000000000000000000000000000000000000000000000000000000000000000000000000000000000000000000000000000000000000000000000000000000000000000000000000000000000000000000000000000000000000000000000000000000000000000000000000000000000000000000000000000000000000000000000000000000000000000000000000000000000000000000000000000000000000000000000000000000000000000000000000000000000000000000000000000",
                    "difficulty": "0x00",
                    "number": "0x02",
                    "gasLimit": "0x044aa200",
                    "gasUsed": "0x01c748",
                    "timestamp": "0x3a98",
                    "extraData": "0x",
                    "mixHash": "0x0000000000000000000000000000000000000000000000000000000000000000",
                    "nonce": "0x0000000000000000",
                    "baseFeePerGas": "0x07",
                    "withdrawalsRoot": "0xd21739e00fbe6b25846bb8079ed6fd6533baa1e8b127b158f651ae16edac1f10",
                    "blobGasUsed": "0x00",
                    "excessBlobGas": "0x00",
                    "parentBeaconBlockRoot": "0x6c31fc15422ebad28aaf9089c306702f67540b53c7eea8b7d2941044b027100f",
                    "hash": "0x6fcdc12316736277d94657ed45d95faa79f4bc3748174ae1087216a6d7f63f21"
                },
                "transactions": [
                    {
                        "type": "0x02",
                        "chainId": "0x01",
                        "nonce": "0x00",
                        "maxPriorityFeePerGas": "0x00",
                        "maxFeePerGas": "0x07",
                        "gasLimit": "0x0f4240",
                        "to": "0x0000000000000000000000000000000000001000",
                        "value": "0x00",
                        "data": "0x0000000000000000000000000000000000000000000000000000000000003a98",
                        "accessList": [],
                        "v": "0x00",
                        "r": "0x35a9aa16fe32dff96fddf1494ea4ad97520df717a9dc57949a3adffe8c2bbed6",
                        "s": "0x163da6b9f4800e493c5b7ed7d81dcc93fdd7f656fa5e183eab7a41427a01f45e",
                        "sender": "0xa94f5374fce5edbc8e2a8697c15331677e6ebf0b"
                    }
                ],
                "uncleHeaders": [],
                "withdrawals": [
                    {
                        "index": "0x02",
                        "validatorIndex": "0x00",
                        "address": "0x000f3df6d732807ef1319fb7b8bb8522d0beac02",
                        "amount": "0x01"
                    },
                    {
                        "index": "0x03",
                        "validatorIndex": "0x01",
                        "address": "0xfffffffffffffffffffffffffffffffffffffffe",
                        "amount": "0x01"
                    }
                ],
                "rlp": "0xf902fcf9023ba0da1e17f1d086f8cda6e9d103ad746e191ec74a568d59dee89fd9db2fc454eb40a01dcc4de8dec75d7aab85b567b6ccd41ad312451b948a7413f0a142fd40d49347942adc25665018aa1fe0e6bc666dac8fc2697ff9baa0b834abcd74302e5a5337c72c3816856c1dd54bd046c76e62fc71e77a9575be47a01124cb5edf02a0f283d7be8fa1a2906916fadfb7991412d233399433624c4910a01ccaf316c85ab72468f194a8a6bf7f7cac5730696d7dd3a5dc298fac47cfe273b9010000000000000000000000000000000000000000000000000000000000000000000000000000000000000000000000000000000000000000000000000000000000000000000000000000000000000000000000000000000000000000000000000000000000000000000000000000000000000000000000000000000000000000000000000000000000000000000000000000000000000000000000000000000000000000000000000000000000000000000000000000000000000000000000000000000000000000000000000000000000000000000000000000000000000000000000000000000000000000000000000000000000000000000000000000000000800284044aa2008301c748823a9880a0000000000000000000000000000000000000000000000000000000000000000088000000000000000007a0d21739e00fbe6b25846bb8079ed6fd6533baa1e8b127b158f651ae16edac1f108080a06c31fc15422ebad28aaf9089c306702f67540b53c7eea8b7d2941044b027100ff888b88602f88301808007830f424094000000000000000000000000000000000000100080a00000000000000000000000000000000000000000000000000000000000003a98c080a035a9aa16fe32dff96fddf1494ea4ad97520df717a9dc57949a3adffe8c2bbed6a0163da6b9f4800e493c5b7ed7d81dcc93fdd7f656fa5e183eab7a41427a01f45ec0f2d8028094000f3df6d732807ef1319fb7b8bb8522d0beac0201d8030194fffffffffffffffffffffffffffffffffffffffe01",
                "blocknumber": "2"
            }
        ],
        "sealEngine": "NoProof",
        "_info": {
            "hash": "0xca2ff04ec4c4fde758626c51ef7ed2e3b5e11b75c206d3e61dbbed339b16a9aa",
            "comment": "`execution-spec-tests` generated test",
            "filling-transition-tool": "ethereum-spec-evm-resolver 0.0.5",
            "description": "Tests the fork transition to cancun deploying the contract during Shanghai and verifying the\n    code deployed and its functionality after Cancun.",
            "url": "https://github.com/ethereum/execution-spec-tests/tree/v4.5.0/tests/cancun/eip4788_beacon_root/test_beacon_root_contract.py#L645",
            "fixture-format": "blockchain_test",
            "reference-spec": "https://github.com/ethereum/EIPs/blob/master/EIPS/eip-4788.md",
            "reference-spec-version": "efcac43ef9aadd87dd4e0a2fbd14d5d1317eddf3",
            "eels-resolution": {
                "git-url": "https://github.com/ethereum/execution-specs.git",
                "branch": "master",
                "commit": "fa847a0e48309debee8edc510ceddb2fd5db2f2e"
            }
        }
    }
}