{
    "tests/shanghai/eip4895_withdrawals/test_withdrawals.py::test_balance_within_block[fork_Cancun-blockchain_test]": {
        "network": "Cancun",
        "genesisBlockHeader": {
            "parentHash": "0x0000000000000000000000000000000000000000000000000000000000000000",
            "uncleHash": "0x1dcc4de8dec75d7aab85b567b6ccd41ad312451b948a7413f0a142fd40d49347",
            "coinbase": "0x0000000000000000000000000000000000000000",
            "stateRoot": "0xfef5d5d97a45d6473f3336a9e439e58e12b228d2fb250c58fd511b12df725cfe",
            "transactionsTrie": "0x56e81f171bcc55a6ff8345e692c0f86e5b48e01b996cadc001622fb5e363b421",
            "receiptTrie": "0x56e81f171bcc55a6ff8345e692c0f86e5b48e01b996cadc001622fb5e363b421",
            "bloom": "0x00000000000000000000000000000000000000000000000000000000000000000000000000000000000000000000000000000000000000000000000000000000000000000000000000000000000000000000000000000000000000000000000000000000000000000000000000000000000000000000000000000000000000000000000000000000000000000000000000000000000000000000000000000000000000000000000000000000000000000000000000000000000000000000000000000000000000000000000000000000000000000000000000000000000000000000000000000000000000000000000000000000000000000000000000000000",
            "difficulty": "0x00",
            "number": "0x00",
            "gasLimit": "0x044aa200",
            "gasUsed": "0x00",
            "timestamp": "0x00",
            "extraData": "0x00",
            "mixHash": "0x0000000000000000000000000000000000000000000000000000000000000000",
            "nonce": "0x0000000000000000",
            "baseFeePerGas": "0x07",
            "withdrawalsRoot": "0x56e81f171bcc55a6ff8345e692c0f86e5b48e01b996cadc001622fb5e363b421",
            "blobGasUsed": "0x00",
            "excessBlobGas": "0x00",
            "parentBeaconBlockRoot": "0x0000000000000000000000000000000000000000000000000000000000000000",
            "hash": "0x4246664054b92f0da41f124f5fe65643f0ef82bb026507512f42dc52e8ba10cb"
        },
        "pre": {
            "0x000f3df6d732807ef1319fb7b8bb8522d0beac02": {
                "nonce": "0x01",
                "balance": "0x00",
                "code": "0x3373fffffffffffffffffffffffffffffffffffffffe14604d57602036146024575f5ffd5b5f35801560495762001fff810690815414603c575f5ffd5b62001fff01545f5260205ff35b5f5ffd5b62001fff42064281555f359062001fff015500",
                "storage": {}
            },
            "0xa94f5374fce5edbc8e2a8697c15331677e6ebf0b": {
                "nonce": "0x00",
                "balance": "0x3635c9adc5dea00000",
                "code": "0x",
                "storage": {}
            },
            "0x8a0a19589531694250d570040a0c4b74576919b8": {
                "nonce": "0x00",
                "balance": "0x3b9aca00",
                "code": "0x",
                "storage": {}
            },
            "0x0000000000000000000000000000000000001000": {
                "nonce": "0x01",
                "balance": "0x00",
                "code": "0x600035314355",
                "storage": {}
            }
        },
        "postState": {
            "0x000f3df6d732807ef1319fb7b8bb8522d0beac02": {
                "nonce": "0x01",
                "balance": "0x00",
                "code": "0x3373fffffffffffffffffffffffffffffffffffffffe14604d57602036146024575f5ffd5b5f35801560495762001fff810690815414603c575f5ffd5b62001fff01545f5260205ff35b5f5ffd5b62001fff42064281555f359062001fff015500",
                "storage": {
                    "0x0c": "0x0c",
                    "0x18": "0x18"
                }
            },
            "0xa94f5374fce5edbc8e2a8697c15331677e6ebf0b": {
                "nonce": "0x02",
                "balance": "0x3635c9adc5de91f050",
                "code": "0x",
                "storage": {}
            },
            "0x8a0a19589531694250d570040a0c4b74576919b8": {
                "nonce": "0x00",
                "balance": "0x77359400",
                "code": "0x",
                "storage": {}
            },
            "0x0000000000000000000000000000000000001000": {
                "nonce": "0x01",
                "balance": "0x00",
                "code": "0x600035314355",
                "storage": {
                    "0x01": "0x3b9aca00",
                    "0x02": "0x77359400"
                }
            },
            "0x2adc25665018aa1fe0e6bc666dac8fc2697ff9ba": {
                "nonce": "0x00",
                "balance": "0x0437e8",
                "code": "0x",
                "storage": {}
            }
        },
        "lastblockhash": "0xfcb3d879564bf5e7f1b0eabdd6c52cbe33dd9bf3ee918b230f90e324f2e34307",
        "config": {
            "network": "Cancun",
            "chainid": "0x01",
            "blobSchedule": {
                "Cancun": {
                    "target": "0x03",
                    "max": "0x06",
                    "baseFeeUpdateFraction": "0x32f0ed"
                }
            }
        },
        "genesisRLP": "0xf9023cf90236a00000000000000000000000000000000000000000000000000000000000000000a01dcc4de8dec75d7aab85b567b6ccd41ad312451b948a7413f0a142fd40d49347940000000000000000000000000000000000000000a0fef5d5d97a45d6473f3336a9e439e58e12b228d2fb250c58fd511b12df725cfea056e81f171bcc55a6ff8345e692c0f86e5b48e01b996cadc001622fb5e363b421a056e81f171bcc55a6ff8345e692c0f86e5b48e01b996cadc001622fb5e363b421b9010000000000000000000000000000000000000000000000000000000000000000000000000000000000000000000000000000000000000000000000000000000000000000000000000000000000000000000000000000000000000000000000000000000000000000000000000000000000000000000000000000000000000000000000000000000000000000000000000000000000000000000000000000000000000000000000000000000000000000000000000000000000000000000000000000000000000000000000000000000000000000000000000000000000000000000000000000000000000000000000000000000000000000000000000000000000808084044aa200808000a0000000000000000000000000000000000000000000000000000000000000000088000000000000000007a056e81f171bcc55a6ff8345e692c0f86e5b48e01b996cadc001622fb5e363b4218080a00000000000000000000000000000000000000000000000000000000000000000c0c0c0",
        "blocks": [
            {
                "blockHeader": {
                    "parentHash": "0x4246664054b92f0da41f124f5fe65643f0ef82bb026507512f42dc52e8ba10cb",
                    "uncleHash": "0x1dcc4de8dec75d7aab85b567b6ccd41ad312451b948a7413f0a142fd40d49347",
                    "coinbase": "0x2adc25665018aa1fe0e6bc666dac8fc2697ff9ba",
                    "stateRoot": "0xb83c3c5cb85e5491cc922436f75127111694080a99a4d1d84bbb5d0eace19aa2",
                    "transactionsTrie": "0xe4be49f8aa311d6ad6f8ee0aa732064325968c76920ebb3cd646ea227423d22a",
                    "receiptTrie": "0xedd51b898476d717efe499381596337599116f4fc38d97ae73732bbdea9962f6",
                    "bloom": "0x00000000000000000000000000000000000000000000000000000000000000000000000000000000000000000000000000000000000000000000000000000000000000000000000000000000000000000000000000000000000000000000000000000000000000000000000000000000000000000000000000000000000000000000000000000000000000000000000000000000000000000000000000000000000000000000000000000000000000000000000000000000000000000000000000000000000000000000000000000000000000000000000000000000000000000000000000000000000000000000000000000000000000000000000000000000",
                    "difficulty": "0x00",
                    "number": "0x01",
                    "gasLimit": "0x044aa200",
                    "gasUsed": "0xb3fc",
                    "timestamp": "0x0c",
                    "extraData": "0x",
                    "mixHash": "0x0000000000000000000000000000000000000000000000000000000000000000",
                    "nonce": "0x0000000000000000",
                    "baseFeePerGas": "0x07",
                    "withdrawalsRoot": "0x8350a64250a5b0b6fe59a787f236fe1fa14ca80fed5d99f14653882b1d0ae4e3",
                    "blobGasUsed": "0x00",
                    "excessBlobGas": "0x00",
                    "parentBeaconBlockRoot": "0x0000000000000000000000000000000000000000000000000000000000000000",
                    "hash": "0x3f9d2f6819fda50c09f9ee60c301107832152a3517f8e579cda44a687e11cf77"
                },
                "transactions": [
                    {
                        "type": "0x00",
                        "chainId": "0x01",
                        "nonce": "0x00",
                        "gasPrice": "0x0a",
                        "gasLimit": "0x0186a0",
                        "to": "0x0000000000000000000000000000000000001000",
                        "value": "0x00",
                        "data": "0x0000000000000000000000008a0a19589531694250d570040a0c4b74576919b8",
                        "v": "0x25",
                        "r": "0xd9aee523f90bef16289b3617933f01ba433f7c4f5aa19111ae6f7c87b850257d",
                        "s": "0x31acbff98568a6275b207b313f2dbffcfe1395ee83f8228fdc1da8962a6fb134",
                        "sender": "0xa94f5374fce5edbc8e2a8697c15331677e6ebf0b"
                    }
                ],
                "uncleHeaders": [],
                "withdrawals": [
                    {
                        "index": "0x00",
                        "validatorIndex": "0x00",
                        "address": "0x8a0a19589531694250d570040a0c4b74576919b8",
                        "amount": "0x01"
                    }
                ],
                "rlp": "0xf902daf90238a04246664054b92f0da41f124f5fe65643f0ef82bb026507512f42dc52e8ba10cba01dcc4de8dec75d7aab85b567b6ccd41ad312451b948a7413f0a142fd40d49347942adc25665018aa1fe0e6bc666dac8fc2697ff9baa0b83c3c5cb85e5491cc922436f75127111694080a99a4d1d84bbb5d0eace19aa2a0e4be49f8aa311d6ad6f8ee0aa732064325968c76920ebb3cd646ea227423d22aa0edd51b898476d717efe499381596337599116f4fc38d97ae73732bbdea9962f6b9010000000000000000000000000000000000000000000000000000000000000000000000000000000000000000000000000000000000000000000000000000000000000000000000000000000000000000000000000000000000000000000000000000000000000000000000000000000000000000000000000000000000000000000000000000000000000000000000000000000000000000000000000000000000000000000000000000000000000000000000000000000000000000000000000000000000000000000000000000000000000000000000000000000000000000000000000000000000000000000000000000000000000000000000000000000000800184044aa20082b3fc0c80a0000000000000000000000000000000000000000000000000000000000000000088000000000000000007a08350a64250a5b0b6fe59a787f236fe1fa14ca80fed5d99f14653882b1d0ae4e38080a00000000000000000000000000000000000000000000000000000000000000000f882f880800a830186a094000000000000000000000000000000000000100080a00000000000000000000000008a0a19589531694250d570040a0c4b74576919b825a0d9aee523f90bef16289b3617933f01ba433f7c4f5aa19111ae6f7c87b850257da031acbff98568a6275b207b313f2dbffcfe1395ee83f8228fdc1da8962a6fb134c0d9d88080948a0a19589531694250d570040a0c4b74576919b801",
                "blocknumber": "1"
            },
            {
                "blockHeader": {
                    "parentHash": "0x3f9d2f6819fda50c09f9ee60c301107832152a3517f8e579cda44a687e11cf77",
                    "uncleHash": "0x1dcc4de8dec75d7aab85b567b6ccd41ad312451b948a7413f0a142fd40d49347",
                    "coinbase": "0x2adc25665018aa1fe0e6bc666dac8fc2697ff9ba",
                    "stateRoot": "0x9056151afb5bea80ec65a9be3f13db8bf578b4733aa2ee498431fa2cdfcbb0fc",
                    "transactionsTrie": "0x41165d157e980e9467720f127f0dd6fc8e62550cc622c972fdd4012f49293315",
                    "receiptTrie": "0xedd51b898476d717efe499381596337599116f4fc38d97ae73732bbdea9962f6",
                    "bloom": "0x00000000000000000000000000000000000000000000000000000000000000000000000000000000000000000000000000000000000000000000000000000000000000000000000000000000000000000000000000000000000000000000000000000000000000000000000000000000000000000000000000000000000000000000000000000000000000000000000000000000000000000000000000000000000000000000000000000000000000000000000000000000000000000000000000000000000000000000000000000000000000000000000000000000000000000000000000000000000000000000000000000000000000000000000000000000",
                    "difficulty": "0x00",
                    "number": "0x02",
                    "gasLimit": "0x044aa200",
                    "gasUsed": "0xb3fc",
                    "timestamp": "0x18",
                    "extraData": "0x",
                    "mixHash": "0x0000000000000000000000000000000000000000000000000000000000000000",
                    "nonce": "0x0000000000000000",
                    "baseFeePerGas": "0x07",
                    "withdrawalsRoot": "0x56e81f171bcc55a6ff8345e692c0f86e5b48e01b996cadc001622fb5e363b421",
                    "blobGasUsed": "0x00",
                    "excessBlobGas": "0x00",
                    "parentBeaconBlockRoot": "0x0000000000000000000000000000000000000000000000000000000000000000",
                    "hash": "0xfcb3d879564bf5e7f1b0eabdd6c52cbe33dd9bf3ee918b230f90e324f2e34307"
                },
                "transactions": [
                    {
                        "type": "0x00",
                        "chainId": "0x01",
                        "nonce": "0x01",
                        "gasPrice": "0x0a",
                        "gasLimit": "0x0186a0",
                        "to": "0x0000000000000000000000000000000000001000",
                        "value": "0x00",
                        "data": "0x0000000000000000000000008a0a19589531694250d570040a0c4b74576919b8",
                        "v": "0x25",
                        "r": "0xf9654ad36504ef9031d32687671053c01b2153ff8267a63525c4b14ea3f8468b",
                        "s": "0x41c15c78b0ca80bc434959b55740886a7b225a64f9105a1f378b4f50b0373246",
                        "sender": "0xa94f5374fce5edbc8e2a8697c15331677e6ebf0b"
                    }
                ],
                "uncleHeaders": [],
                "withdrawals": [],
                "rlp": "0xf902c1f90238a03f9d2f6819fda50c09f9ee60c301107832152a3517f8e579cda44a687e11cf77a01dcc4de8dec75d7aab85b567b6ccd41ad312451b948a7413f0a142fd40d49347942adc25665018aa1fe0e6bc666dac8fc2697ff9baa09056151afb5bea80ec65a9be3f13db8bf578b4733aa2ee498431fa2cdfcbb0fca041165d157e980e9467720f127f0dd6fc8e62550cc622c972fdd4012f49293315a0edd51b898476d717efe499381596337599116f4fc38d97ae73732bbdea9962f6b9010000000000000000000000000000000000000000000000000000000000000000000000000000000000000000000000000000000000000000000000000000000000000000000000000000000000000000000000000000000000000000000000000000000000000000000000000000000000000000000000000000000000000000000000000000000000000000000000000000000000000000000000000000000000000000000000000000000000000000000000000000000000000000000000000000000000000000000000000000000000000000000000000000000000000000000000000000000000000000000000000000000000000000000000000000000000800284044aa20082b3fc1880a0000000000000000000000000000000000000000000000000000000000000000088000000000000000007a056e81f171bcc55a6ff8345e692c0f86e5b48e01b996cadc001622fb5e363b4218080a00000000000000000000000000000000000000000000000000000000000000000f882f880010a830186a094000000000000000000000000000000000000100080a00000000000000000000000008a0a19589531694250d570040a0c4b74576919b825a0f9654ad36504ef9031d32687671053c01b2153ff8267a63525c4b14ea3f8468ba041c15c78b0ca80bc434959b55740886a7b225a64f9105a1f378b4f50b0373246c0c0",
                "blocknumber": "2"
            }
        ],
        "sealEngine": "NoProof",
        "_info": {
            "hash": "0xc4bc08a0572b85989bbb9d9b035ea2d98a9b547efa9d19b20fc9f1d16c07e7c4",
            "comment": "`execution-spec-tests` generated test",
            "filling-transition-tool": "ethereum-spec-evm-resolver 0.0.5",
            "description": "Test Withdrawal balance increase within the same block,\n    inside contract call.",
            "url": "https://github.com/ethereum/execution-spec-tests/tree/v4.5.0/tests/shanghai/eip4895_withdrawals/test_withdrawals.py#L190",
            "fixture-format": "blockchain_test",
            "reference-spec": "https://github.com/ethereum/EIPs/blob/master/EIPS/eip-4895.md",
            "reference-spec-version": "81af3b60b632bc9c03513d1d137f25410e3f4d34",
            "eels-resolution": {
                "git-url": "https://github.com/ethereum/execution-specs.git",
                "branch": "master",
                "commit": "fa847a0e48309debee8edc510ceddb2fd5db2f2e"
            }
        }
    },
    "tests/shanghai/eip4895_withdrawals/test_withdrawals.py::test_balance_within_block[fork_Shanghai-blockchain_test]": {
        "network": "Shanghai",
        "genesisBlockHeader": {
            "parentHash": "0x0000000000000000000000000000000000000000000000000000000000000000",
            "uncleHash": "0x1dcc4de8dec75d7aab85b567b6ccd41ad312451b948a7413f0a142fd40d49347",
            "coinbase": "0x0000000000000000000000000000000000000000",
            "stateRoot": "0x0058d20c794bb9cbf64c8737e53d735b2b34b3e8cee3e516ca350438ca4e9808",
            "transactionsTrie": "0x56e81f171bcc55a6ff8345e692c0f86e5b48e01b996cadc001622fb5e363b421",
            "receiptTrie": "0x56e81f171bcc55a6ff8345e692c0f86e5b48e01b996cadc001622fb5e363b421",
            "bloom": "0x00000000000000000000000000000000000000000000000000000000000000000000000000000000000000000000000000000000000000000000000000000000000000000000000000000000000000000000000000000000000000000000000000000000000000000000000000000000000000000000000000000000000000000000000000000000000000000000000000000000000000000000000000000000000000000000000000000000000000000000000000000000000000000000000000000000000000000000000000000000000000000000000000000000000000000000000000000000000000000000000000000000000000000000000000000000",
            "difficulty": "0x00",
            "number": "0x00",
            "gasLimit": "0x044aa200",
            "gasUsed": "0x00",
            "timestamp": "0x00",
            "extraData": "0x00",
            "mixHash": "0x0000000000000000000000000000000000000000000000000000000000000000",
            "nonce": "0x0000000000000000",
            "baseFeePerGas": "0x07",
            "withdrawalsRoot": "0x56e81f171bcc55a6ff8345e692c0f86e5b48e01b996cadc001622fb5e363b421",
            "hash": "0xe550aab90446977d460e4cff10845bca24313d6656ef87e8d55942699b30417f"
        },
        "pre": {
            "0xa94f5374fce5edbc8e2a8697c15331677e6ebf0b": {
                "nonce": "0x00",
                "balance": "0x3635c9adc5dea00000",
                "code": "0x",
                "storage": {}
            },
            "0x8a0a19589531694250d570040a0c4b74576919b8": {
                "nonce": "0x00",
                "balance": "0x3b9aca00",
                "code": "0x",
                "storage": {}
            },
            "0x0000000000000000000000000000000000001000": {
                "nonce": "0x01",
                "balance": "0x00",
                "code": "0x600035314355",
                "storage": {}
            }
        },
        "postState": {
            "0xa94f5374fce5edbc8e2a8697c15331677e6ebf0b": {
                "nonce": "0x02",
                "balance": "0x3635c9adc5de91f050",
                "code": "0x",
                "storage": {}
            },
            "0x8a0a19589531694250d570040a0c4b74576919b8": {
                "nonce": "0x00",
                "balance": "0x77359400",
                "code": "0x",
                "storage": {}
            },
            "0x0000000000000000000000000000000000001000": {
                "nonce": "0x01",
                "balance": "0x00",
                "code": "0x600035314355",
                "storage": {
                    "0x01": "0x3b9aca00",
                    "0x02": "0x77359400"
                }
            },
            "0x2adc25665018aa1fe0e6bc666dac8fc2697ff9ba": {
                "nonce": "0x00",
                "balance": "0x0437e8",
                "code": "0x",
                "storage": {}
            }
        },
        "lastblockhash": "0x1b25c81971ef6ea8b44018b82ea019f45bdab4966ba89c78037eca1086f12dda",
        "config": {
            "network": "Shanghai",
            "chainid": "0x01"
        },
        "genesisRLP": "0xf90219f90213a00000000000000000000000000000000000000000000000000000000000000000a01dcc4de8dec75d7aab85b567b6ccd41ad312451b948a7413f0a142fd40d49347940000000000000000000000000000000000000000a00058d20c794bb9cbf64c8737e53d735b2b34b3e8cee3e516ca350438ca4e9808a056e81f171bcc55a6ff8345e692c0f86e5b48e01b996cadc001622fb5e363b421a056e81f171bcc55a6ff8345e692c0f86e5b48e01b996cadc001622fb5e363b421b9010000000000000000000000000000000000000000000000000000000000000000000000000000000000000000000000000000000000000000000000000000000000000000000000000000000000000000000000000000000000000000000000000000000000000000000000000000000000000000000000000000000000000000000000000000000000000000000000000000000000000000000000000000000000000000000000000000000000000000000000000000000000000000000000000000000000000000000000000000000000000000000000000000000000000000000000000000000000000000000000000000000000000000000000000000000000808084044aa200808000a0000000000000000000000000000000000000000000000000000000000000000088000000000000000007a056e81f171bcc55a6ff8345e692c0f86e5b48e01b996cadc001622fb5e363b421c0c0c0",
        "blocks": [
            {
                "blockHeader": {
                    "parentHash": "0xe550aab90446977d460e4cff10845bca24313d6656ef87e8d55942699b30417f",
                    "uncleHash": "0x1dcc4de8dec75d7aab85b567b6ccd41ad312451b948a7413f0a142fd40d49347",
                    "coinbase": "0x2adc25665018aa1fe0e6bc666dac8fc2697ff9ba",
                    "stateRoot": "0x1113f99eb6e20d9ad7db01e5987fa96a447e0af473ab14fc985f846388264cd6",
                    "transactionsTrie": "0xe4be49f8aa311d6ad6f8ee0aa732064325968c76920ebb3cd646ea227423d22a",
                    "receiptTrie": "0xedd51b898476d717efe499381596337599116f4fc38d97ae73732bbdea9962f6",
                    "bloom": "0x00000000000000000000000000000000000000000000000000000000000000000000000000000000000000000000000000000000000000000000000000000000000000000000000000000000000000000000000000000000000000000000000000000000000000000000000000000000000000000000000000000000000000000000000000000000000000000000000000000000000000000000000000000000000000000000000000000000000000000000000000000000000000000000000000000000000000000000000000000000000000000000000000000000000000000000000000000000000000000000000000000000000000000000000000000000",
                    "difficulty": "0x00",
                    "number": "0x01",
                    "gasLimit": "0x044aa200",
                    "gasUsed": "0xb3fc",
                    "timestamp": "0x0c",
                    "extraData": "0x",
                    "mixHash": "0x0000000000000000000000000000000000000000000000000000000000000000",
                    "nonce": "0x0000000000000000",
                    "baseFeePerGas": "0x07",
                    "withdrawalsRoot": "0x8350a64250a5b0b6fe59a787f236fe1fa14ca80fed5d99f14653882b1d0ae4e3",
                    "hash": "0x74713b8e2f6038263eac6ae8f76fa3c4227ec4cefff5f3bc755c84cd321d1b35"
                },
                "transactions": [
                    {
                        "type": "0x00",
                        "chainId": "0x01",
                        "nonce": "0x00",
                        "gasPrice": "0x0a",
                        "gasLimit": "0x0186a0",
                        "to": "0x0000000000000000000000000000000000001000",
                        "value": "0x00",
                        "data": "0x0000000000000000000000008a0a19589531694250d570040a0c4b74576919b8",
                        "v": "0x25",
                        "r": "0xd9aee523f90bef16289b3617933f01ba433f7c4f5aa19111ae6f7c87b850257d",
                        "s": "0x31acbff98568a6275b207b313f2dbffcfe1395ee83f8228fdc1da8962a6fb134",
                        "sender": "0xa94f5374fce5edbc8e2a8697c15331677e6ebf0b"
                    }
                ],
                "uncleHeaders": [],
                "withdrawals": [
                    {
                        "index": "0x00",
                        "validatorIndex": "0x00",
                        "address": "0x8a0a19589531694250d570040a0c4b74576919b8",
                        "amount": "0x01"
                    }
                ],
                "rlp": "0xf902b7f90215a0e550aab90446977d460e4cff10845bca24313d6656ef87e8d55942699b30417fa01dcc4de8dec75d7aab85b567b6ccd41ad312451b948a7413f0a142fd40d49347942adc25665018aa1fe0e6bc666dac8fc2697ff9baa01113f99eb6e20d9ad7db01e5987fa96a447e0af473ab14fc985f846388264cd6a0e4be49f8aa311d6ad6f8ee0aa732064325968c76920ebb3cd646ea227423d22aa0edd51b898476d717efe499381596337599116f4fc38d97ae73732bbdea9962f6b9010000000000000000000000000000000000000000000000000000000000000000000000000000000000000000000000000000000000000000000000000000000000000000000000000000000000000000000000000000000000000000000000000000000000000000000000000000000000000000000000000000000000000000000000000000000000000000000000000000000000000000000000000000000000000000000000000000000000000000000000000000000000000000000000000000000000000000000000000000000000000000000000000000000000000000000000000000000000000000000000000000000000000000000000000000000000800184044aa20082b3fc0c80a0000000000000000000000000000000000000000000000000000000000000000088000000000000000007a08350a64250a5b0b6fe59a787f236fe1fa14ca80fed5d99f14653882b1d0ae4e3f882f880800a830186a094000000000000000000000000000000000000100080a00000000000000000000000008a0a19589531694250d570040a0c4b74576919b825a0d9aee523f90bef16289b3617933f01ba433f7c4f5aa19111ae6f7c87b850257da031acbff98568a6275b207b313f2dbffcfe1395ee83f8228fdc1da8962a6fb134c0d9d88080948a0a19589531694250d570040a0c4b74576919b801",
                "blocknumber": "1"
            },
            {
                "blockHeader": {
                    "parentHash": "0x74713b8e2f6038263eac6ae8f76fa3c4227ec4cefff5f3bc755c84cd321d1b35",
                    "uncleHash": "0x1dcc4de8dec75d7aab85b567b6ccd41ad312451b948a7413f0a142fd40d49347",
                    "coinbase": "0x2adc25665018aa1fe0e6bc666dac8fc2697ff9ba",
                    "stateRoot": "0x5f9c404c0cbc693643f51770e964d4f158f19d462e76dc021a70f4c183a84d37",
                    "transactionsTrie": "0x41165d157e980e9467720f127f0dd6fc8e62550cc622c972fdd4012f49293315",
                    "receiptTrie": "0xedd51b898476d717efe499381596337599116f4fc38d97ae73732bbdea9962f6",
                    "bloom": "0x00000000000000000000000000000000000000000000000000000000000000000000000000000000000000000000000000000000000000000000000000000000000000000000000000000000000000000000000000000000000000000000000000000000000000000000000000000000000000000000000000000000000000000000000000000000000000000000000000000000000000000000000000000000000000000000000000000000000000000000000000000000000000000000000000000000000000000000000000000000000000000000000000000000000000000000000000000000000000000000000000000000000000000000000000000000",
                    "difficulty": "0x00",
                    "number": "0x02",
                    "gasLimit": "0x044aa200",
                    "gasUsed": "0xb3fc",
                    "timestamp": "0x18",
                    "extraData": "0x",
                    "mixHash": "0x0000000000000000000000000000000000000000000000000000000000000000",
                    "nonce": "0x0000000000000000",
                    "baseFeePerGas": "0x07",
                    "withdrawalsRoot": "0x56e81f171bcc55a6ff8345e692c0f86e5b48e01b996cadc001622fb5e363b421",
                    "hash": "0x1b25c81971ef6ea8b44018b82ea019f45bdab4966ba89c78037eca1086f12dda"
                },
                "transactions": [
                    {
                        "type": "0x00",
                        "chainId": "0x01",
                        "nonce": "0x01",
                        "gasPrice": "0x0a",
                        "gasLimit": "0x0186a0",
                        "to": "0x0000000000000000000000000000000000001000",
                        "value": "0x00",
                        "data": "0x0000000000000000000000008a0a19589531694250d570040a0c4b74576919b8",
                        "v": "0x25",
                        "r": "0xf9654ad36504ef9031d32687671053c01b2153ff8267a63525c4b14ea3f8468b",
                        "s": "0x41c15c78b0ca80bc434959b55740886a7b225a64f9105a1f378b4f50b0373246",
                        "sender": "0xa94f5374fce5edbc8e2a8697c15331677e6ebf0b"
                    }
                ],
                "uncleHeaders": [],
                "withdrawals": [],
                "rlp": "0xf9029ef90215a074713b8e2f6038263eac6ae8f76fa3c4227ec4cefff5f3bc755c84cd321d1b35a01dcc4de8dec75d7aab85b567b6ccd41ad312451b948a7413f0a142fd40d49347942adc25665018aa1fe0e6bc666dac8fc2697ff9baa05f9c404c0cbc693643f51770e964d4f158f19d462e76dc021a70f4c183a84d37a041165d157e980e9467720f127f0dd6fc8e62550cc622c972fdd4012f49293315a0edd51b898476d717efe499381596337599116f4fc38d97ae73732bbdea9962f6b9010000000000000000000000000000000000000000000000000000000000000000000000000000000000000000000000000000000000000000000000000000000000000000000000000000000000000000000000000000000000000000000000000000000000000000000000000000000000000000000000000000000000000000000000000000000000000000000000000000000000000000000000000000000000000000000000000000000000000000000000000000000000000000000000000000000000000000000000000000000000000000000000000000000000000000000000000000000000000000000000000000000000000000000000000000000000800284044aa20082b3fc1880a0000000000000000000000000000000000000000000000000000000000000000088000000000000000007a056e81f171bcc55a6ff8345e692c0f86e5b48e01b996cadc001622fb5e363b421f882f880010a830186a094000000000000000000000000000000000000100080a00000000000000000000000008a0a19589531694250d570040a0c4b74576919b825a0f9654ad36504ef9031d32687671053c01b2153ff8267a63525c4b14ea3f8468ba041c15c78b0ca80bc434959b55740886a7b225a64f9105a1f378b4f50b0373246c0c0",
                "blocknumber": "2"
            }
        ],
        "sealEngine": "NoProof",
        "_info": {
            "hash": "0xc7a4af2aa194d2a8e460a934872fba64adb95b540d362ebb356f9a9310aa75b3",
            "comment": "`execution-spec-tests` generated test",
            "filling-transition-tool": "ethereum-spec-evm-resolver 0.0.5",
            "description": "Test Withdrawal balance increase within the same block,\n    inside contract call.",
            "url": "https://github.com/ethereum/execution-spec-tests/tree/v4.5.0/tests/shanghai/eip4895_withdrawals/test_withdrawals.py#L190",
            "fixture-format": "blockchain_test",
            "reference-spec": "https://github.com/ethereum/EIPs/blob/master/EIPS/eip-4895.md",
            "reference-spec-version": "81af3b60b632bc9c03513d1d137f25410e3f4d34",
            "eels-resolution": {
                "git-url": "https://github.com/ethereum/execution-specs.git",
                "branch": "master",
                "commit": "fa847a0e48309debee8edc510ceddb2fd5db2f2e"
            }
        }
    }
}