{
    "tests/homestead/coverage/test_coverage.py::test_coverage[fork_Berlin-state_test]": {
        "env": {
            "currentCoinbase": "0x2adc25665018aa1fe0e6bc666dac8fc2697ff9ba",
            "currentGasLimit": "0x044aa200",
            "currentNumber": "0x01",
            "currentTimestamp": "0x03e8",
            "currentDifficulty": "0x020000"
        },
        "pre": {
            "0x0000000000000000000000000000000000001000": {
                "nonce": "0x01",
                "balance": "0x00",
                "code": "0x600060011b600060011c600a600b600c600d600e9080815f6101026201020363010203047f01010101010101010101010101010101010101010101010101010101010101016001600053600360020160015060046010600039",
                "storage": {}
            },
            "0x0000000000000000000000000000000000001100": {
                "nonce": "0x01",
                "balance": "0x0de0b6b3a7640000",
                "code": "0x600060006000600060006110005af160005260206000f3",
                "storage": {}
            },
            "0xa94f5374fce5edbc8e2a8697c15331677e6ebf0b": {
                "nonce": "0x00",
                "balance": "0x6124fee993bc0000",
                "code": "0x",
                "storage": {}
            }
        },
        "transaction": {
            "nonce": "0x00",
            "gasPrice": "0x0a",
            "gasLimit": [
                "0x0186a0"
            ],
            "to": "0x0000000000000000000000000000000000001100",
            "value": [
                "0x00"
            ],
            "data": [
                "0x"
            ],
            "sender": "0xa94f5374fce5edbc8e2a8697c15331677e6ebf0b",
            "secretKey": "0x45a915e4d060149eb4365960e6a7a45f334393093061116b197e3240065ff2d8"
        },
        "post": {
            "Berlin": [
                {
                    "hash": "0x1899235ddd468b290c25bbf6d077f6f695ce3c6c081a03f663656625a790c482",
                    "logs": "0x1dcc4de8dec75d7aab85b567b6ccd41ad312451b948a7413f0a142fd40d49347",
                    "txbytes": "0xf860800a830186a094000000000000000000000000000000000000110080801ca00671a3e9dab47d17669ebe31855e9d6481d6c945fa946dd61fc374eb5420a220a03d6c864c60d6f9c901dcb2ec86286cbaeaa1e86c82c6fa7147cd4417db86bf9f",
                    "indexes": {
                        "data": 0,
                        "gas": 0,
                        "value": 0
                    },
                    "state": {
                        "0x0000000000000000000000000000000000001000": {
                            "nonce": "0x01",
                            "balance": "0x00",
                            "code": "0x600060011b600060011c600a600b600c600d600e9080815f6101026201020363010203047f01010101010101010101010101010101010101010101010101010101010101016001600053600360020160015060046010600039",
                            "storage": {}
                        },
                        "0x0000000000000000000000000000000000001100": {
                            "nonce": "0x01",
                            "balance": "0x0de0b6b3a7640000",
                            "code": "0x600060006000600060006110005af160005260206000f3",
                            "storage": {}
                        },
                        "0xa94f5374fce5edbc8e2a8697c15331677e6ebf0b": {
                            "nonce": "0x01",
                            "balance": "0x6124fee993acebc4",
                            "code": "0x",
                            "storage": {}
                        },
                        "0x2adc25665018aa1fe0e6bc666dac8fc2697ff9ba": {
                            "nonce": "0x00",
                            "balance": "0x0f143c",
                            "code": "0x",
                            "storage": {}
                        }
                    }
                }
            ]
        },
        "config": {
            "chainid": "0x01"
        },
        "_info": {
            "hash": "0x94c9aac7a843211f4cf3f2ab5f95625d070676f73b41b393b8d6bccf9c402b81",
            "comment": "`execution-spec-tests` generated test",
            "filling-transition-tool": "ethereum-spec-evm-resolver 0.0.5",
            "description": "Cover gaps that result from transforming Yul code into\n    `ethereum_test_tools.vm.opcode.Opcodes` bytecode.\n\n    E.g. Yul tends to optimize stack items by using `SWAP1` and `DUP1` opcodes, which are not\n    regularly used in python code.\n\n    Modify this test to cover more Yul code if required in the future.",
            "url": "https://github.com/ethereum/execution-spec-tests/tree/v4.5.0/tests/homestead/coverage/test_coverage.py#L13",
            "fixture-format": "state_test",
            "eels-resolution": {
                "git-url": "https://github.com/ethereum/execution-specs.git",
                "branch": "master",
                "commit": "fa847a0e48309debee8edc510ceddb2fd5db2f2e"
            }
        }
    },
    "tests/homestead/coverage/test_coverage.py::test_coverage[fork_Byzantium-state_test]": {
        "env": {
            "currentCoinbase": "0x2adc25665018aa1fe0e6bc666dac8fc2697ff9ba",
            "currentGasLimit": "0x044aa200",
            "currentNumber": "0x01",
            "currentTimestamp": "0x03e8",
            "currentDifficulty": "0x020000"
        },
        "pre": {
            "0x0000000000000000000000000000000000001000": {
                "nonce": "0x01",
                "balance": "0x00",
                "code": "0x600060011b600060011c600a600b600c600d600e9080815f6101026201020363010203047f01010101010101010101010101010101010101010101010101010101010101016001600053600360020160015060046010600039",
                "storage": {}
            },
            "0x0000000000000000000000000000000000001100": {
                "nonce": "0x01",
                "balance": "0x0de0b6b3a7640000",
                "code": "0x600060006000600060006110005af160005260206000f3",
                "storage": {}
            },
            "0xa94f5374fce5edbc8e2a8697c15331677e6ebf0b": {
                "nonce": "0x00",
                "balance": "0x6124fee993bc0000",
                "code": "0x",
                "storage": {}
            }
        },
        "transaction": {
            "nonce": "0x00",
            "gasPrice": "0x0a",
            "gasLimit": [
                "0x0186a0"
            ],
            "to": "0x0000000000000000000000000000000000001100",
            "value": [
                "0x00"
            ],
            "data": [
                "0x"
            ],
            "sender": "0xa94f5374fce5edbc8e2a8697c15331677e6ebf0b",
            "secretKey": "0x45a915e4d060149eb4365960e6a7a45f334393093061116b197e3240065ff2d8"
        },
        "post": {
            "Byzantium": [
                {
                    "hash": "0x55a79b85de5be85987be190e436eaf6d4b41f8366e551a53bf4c1ad1cc3081dc",
                    "logs": "0x1dcc4de8dec75d7aab85b567b6ccd41ad312451b948a7413f0a142fd40d49347",
                    "txbytes": "0xf860800a830186a094000000000000000000000000000000000000110080801ca00671a3e9dab47d17669ebe31855e9d6481d6c945fa946dd61fc374eb5420a220a03d6c864c60d6f9c901dcb2ec86286cbaeaa1e86c82c6fa7147cd4417db86bf9f",
                    "indexes": {
                        "data": 0,
                        "gas": 0,
                        "value": 0
                    },
                    "state": {
                        "0x0000000000000000000000000000000000001000": {
                            "nonce": "0x01",
                            "balance": "0x00",
                            "code": "0x600060011b600060011c600a600b600c600d600e9080815f6101026201020363010203047f01010101010101010101010101010101010101010101010101010101010101016001600053600360020160015060046010600039",
                            "storage": {}
                        },
                        "0x0000000000000000000000000000000000001100": {
                            "nonce": "0x01",
                            "balance": "0x0de0b6b3a7640000",
                            "code": "0x600060006000600060006110005af160005260206000f3",
                            "storage": {}
                        },
                        "0xa94f5374fce5edbc8e2a8697c15331677e6ebf0b": {
                            "nonce": "0x01",
                            "balance": "0x6124fee993acecf0",
                            "code": "0x",
                            "storage": {}
                        },
                        "0x2adc25665018aa1fe0e6bc666dac8fc2697ff9ba": {
                            "nonce": "0x00",
                            "balance": "0x0f1310",
                            "code": "0x",
                            "storage": {}
                        }
                    }
                }
            ]
        },
        "config": {
            "chainid": "0x01"
        },
        "_info": {
            "hash": "0xbe390df2d5496779cd0207ff63a5f52a20488363b57247de35c1f4223a02a8b4",
            "comment": "`execution-spec-tests` generated test",
            "filling-transition-tool": "ethereum-spec-evm-resolver 0.0.5",
            "description": "Cover gaps that result from transforming Yul code into\n    `ethereum_test_tools.vm.opcode.Opcodes` bytecode.\n\n    E.g. Yul tends to optimize stack items by using `SWAP1` and `DUP1` opcodes, which are not\n    regularly used in python code.\n\n    Modify this test to cover more Yul code if required in the future.",
            "url": "https://github.com/ethereum/execution-spec-tests/tree/v4.5.0/tests/homestead/coverage/test_coverage.py#L13",
            "fixture-format": "state_test",
            "eels-resolution": {
                "git-url": "https://github.com/ethereum/execution-specs.git",
                "branch": "master",
                "commit": "fa847a0e48309debee8edc510ceddb2fd5db2f2e"
            }
        }
    },
    "tests/homestead/coverage/test_coverage.py::test_coverage[fork_Cancun-state_test]": {
        "env": {
            "currentCoinbase": "0x2adc25665018aa1fe0e6bc666dac8fc2697ff9ba",
            "currentGasLimit": "0x044aa200",
            "currentNumber": "0x01",
            "currentTimestamp": "0x03e8",
            "currentRandom": "0x0000000000000000000000000000000000000000000000000000000000000000",
            "currentDifficulty": "0x00",
            "currentBaseFee": "0x07",
            "currentExcessBlobGas": "0x00"
        },
        "pre": {
            "0x0000000000000000000000000000000000001000": {
                "nonce": "0x01",
                "balance": "0x00",
                "code": "0x600060011b600060011c600a600b600c600d600e9080815f6101026201020363010203047f01010101010101010101010101010101010101010101010101010101010101016001600053600360020160015060046010600039",
                "storage": {}
            },
            "0x0000000000000000000000000000000000001100": {
                "nonce": "0x01",
                "balance": "0x0de0b6b3a7640000",
                "code": "0x600060006000600060006110005af160005260206000f3",
                "storage": {}
            },
            "0xa94f5374fce5edbc8e2a8697c15331677e6ebf0b": {
                "nonce": "0x00",
                "balance": "0x6124fee993bc0000",
                "code": "0x",
                "storage": {}
            }
        },
        "transaction": {
            "nonce": "0x00",
            "maxPriorityFeePerGas": "0x05",
            "maxFeePerGas": "0x0a",
            "gasLimit": [
                "0x0186a0"
            ],
            "to": "0x0000000000000000000000000000000000001100",
            "value": [
                "0x00"
            ],
            "data": [
                "0x"
            ],
            "accessLists": [
                []
            ],
            "sender": "0xa94f5374fce5edbc8e2a8697c15331677e6ebf0b",
            "secretKey": "0x45a915e4d060149eb4365960e6a7a45f334393093061116b197e3240065ff2d8"
        },
        "post": {
            "Cancun": [
                {
                    "hash": "0x09d147738510e252754e0ead373b503ff02878cd8e1f2e424f6220f318b9674a",
                    "logs": "0x1dcc4de8dec75d7aab85b567b6ccd41ad312451b948a7413f0a142fd40d49347",
                    "txbytes": "0x02f8630180050a830186a09400000000000000000000000000000000000011008080c080a08f7a97fc84c20df70553febefc9f95ca6e508163e7a2896b7c08f62bd5343cc2a05879b2fb80033d28fa5e112066bacc62d200a299a21e1b93ea1abc759f307b53",
                    "indexes": {
                        "data": 0,
                        "gas": 0,
                        "value": 0
                    },
                    "state": {
                        "0x0000000000000000000000000000000000001000": {
                            "nonce": "0x01",
                            "balance": "0x00",
                            "code": "0x600060011b600060011c600a600b600c600d600e9080815f6101026201020363010203047f01010101010101010101010101010101010101010101010101010101010101016001600053600360020160015060046010600039",
                            "storage": {}
                        },
                        "0x0000000000000000000000000000000000001100": {
                            "nonce": "0x01",
                            "balance": "0x0de0b6b3a7640000",
                            "code": "0x600060006000600060006110005af160005260206000f3",
                            "storage": {}
                        },
                        "0xa94f5374fce5edbc8e2a8697c15331677e6ebf0b": {
                            "nonce": "0x01",
                            "balance": "0x6124fee993b860f8",
                            "code": "0x",
                            "storage": {}
                        },
                        "0x2adc25665018aa1fe0e6bc666dac8fc2697ff9ba": {
                            "nonce": "0x00",
                            "balance": "0x01161c",
                            "code": "0x",
                            "storage": {}
                        }
                    }
                }
            ]
        },
        "config": {
            "blobSchedule": {
                "Cancun": {
                    "target": "0x03",
                    "max": "0x06",
                    "baseFeeUpdateFraction": "0x32f0ed"
                }
            },
            "chainid": "0x01"
        },
        "_info": {
            "hash": "0x3d5341107d7e54a0b5e86bb82b43c09c2bb084d344441a519f6b846d86474f54",
            "comment": "`execution-spec-tests` generated test",
            "filling-transition-tool": "ethereum-spec-evm-resolver 0.0.5",
            "description": "Cover gaps that result from transforming Yul code into\n    `ethereum_test_tools.vm.opcode.Opcodes` bytecode.\n\n    E.g. Yul tends to optimize stack items by using `SWAP1` and `DUP1` opcodes, which are not\n    regularly used in python code.\n\n    Modify this test to cover more Yul code if required in the future.",
            "url": "https://github.com/ethereum/execution-spec-tests/tree/v4.5.0/tests/homestead/coverage/test_coverage.py#L13",
            "fixture-format": "state_test",
            "eels-resolution": {
                "git-url": "https://github.com/ethereum/execution-specs.git",
                "branch": "master",
                "commit": "fa847a0e48309debee8edc510ceddb2fd5db2f2e"
            }
        }
    },
    "tests/homestead/coverage/test_coverage.py::test_coverage[fork_ConstantinopleFix-state_test]": {
        "env": {
            "currentCoinbase": "0x2adc25665018aa1fe0e6bc666dac8fc2697ff9ba",
            "currentGasLimit": "0x044aa200",
            "currentNumber": "0x01",
            "currentTimestamp": "0x03e8",
            "currentDifficulty": "0x020000"
        },
        "pre": {
            "0x0000000000000000000000000000000000001000": {
                "nonce": "0x01",
                "balance": "0x00",
                "code": "0x600060011b600060011c600a600b600c600d600e9080815f6101026201020363010203047f01010101010101010101010101010101010101010101010101010101010101016001600053600360020160015060046010600039",
                "storage": {}
            },
            "0x0000000000000000000000000000000000001100": {
                "nonce": "0x01",
                "balance": "0x0de0b6b3a7640000",
                "code": "0x600060006000600060006110005af160005260206000f3",
                "storage": {}
            },
            "0xa94f5374fce5edbc8e2a8697c15331677e6ebf0b": {
                "nonce": "0x00",
                "balance": "0x6124fee993bc0000",
                "code": "0x",
                "storage": {}
            }
        },
        "transaction": {
            "nonce": "0x00",
            "gasPrice": "0x0a",
            "gasLimit": [
                "0x0186a0"
            ],
            "to": "0x0000000000000000000000000000000000001100",
            "value": [
                "0x00"
            ],
            "data": [
                "0x"
            ],
            "sender": "0xa94f5374fce5edbc8e2a8697c15331677e6ebf0b",
            "secretKey": "0x45a915e4d060149eb4365960e6a7a45f334393093061116b197e3240065ff2d8"
        },
        "post": {
            "ConstantinopleFix": [
                {
                    "hash": "0x55a79b85de5be85987be190e436eaf6d4b41f8366e551a53bf4c1ad1cc3081dc",
                    "logs": "0x1dcc4de8dec75d7aab85b567b6ccd41ad312451b948a7413f0a142fd40d49347",
                    "txbytes": "0xf860800a830186a094000000000000000000000000000000000000110080801ca00671a3e9dab47d17669ebe31855e9d6481d6c945fa946dd61fc374eb5420a220a03d6c864c60d6f9c901dcb2ec86286cbaeaa1e86c82c6fa7147cd4417db86bf9f",
                    "indexes": {
                        "data": 0,
                        "gas": 0,
                        "value": 0
                    },
                    "state": {
                        "0x0000000000000000000000000000000000001000": {
                            "nonce": "0x01",
                            "balance": "0x00",
                            "code": "0x600060011b600060011c600a600b600c600d600e9080815f6101026201020363010203047f01010101010101010101010101010101010101010101010101010101010101016001600053600360020160015060046010600039",
                            "storage": {}
                        },
                        "0x0000000000000000000000000000000000001100": {
                            "nonce": "0x01",
                            "balance": "0x0de0b6b3a7640000",
                            "code": "0x600060006000600060006110005af160005260206000f3",
                            "storage": {}
                        },
                        "0xa94f5374fce5edbc8e2a8697c15331677e6ebf0b": {
                            "nonce": "0x01",
                            "balance": "0x6124fee993acecf0",
                            "code": "0x",
                            "storage": {}
                        },
                        "0x2adc25665018aa1fe0e6bc666dac8fc2697ff9ba": {
                            "nonce": "0x00",
                            "balance": "0x0f1310",
                            "code": "0x",
                            "storage": {}
                        }
                    }
                }
            ]
        },
        "config": {
            "chainid": "0x01"
        },
        "_info": {
            "hash": "0x81c22f84a10ecfa25be83a6b827de76e0619e0a9301420f7638e77548faf2735",
            "comment": "`execution-spec-tests` generated test",
            "filling-transition-tool": "ethereum-spec-evm-resolver 0.0.5",
            "description": "Cover gaps that result from transforming Yul code into\n    `ethereum_test_tools.vm.opcode.Opcodes` bytecode.\n\n    E.g. Yul tends to optimize stack items by using `SWAP1` and `DUP1` opcodes, which are not\n    regularly used in python code.\n\n    Modify this test to cover more Yul code if required in the future.",
            "url": "https://github.com/ethereum/execution-spec-tests/tree/v4.5.0/tests/homestead/coverage/test_coverage.py#L13",
            "fixture-format": "state_test",
            "eels-resolution": {
                "git-url": "https://github.com/ethereum/execution-specs.git",
                "branch": "master",
                "commit": "fa847a0e48309debee8edc510ceddb2fd5db2f2e"
            }
        }
    },
    "tests/homestead/coverage/test_coverage.py::test_coverage[fork_Homestead-state_test]": {
        "env": {
            "currentCoinbase": "0x2adc25665018aa1fe0e6bc666dac8fc2697ff9ba",
            "currentGasLimit": "0x044aa200",
            "currentNumber": "0x01",
            "currentTimestamp": "0x03e8",
            "currentDifficulty": "0x020000"
        },
        "pre": {
            "0x0000000000000000000000000000000000001000": {
                "nonce": "0x01",
                "balance": "0x00",
                "code": "0x600060011b600060011c600a600b600c600d600e9080815f6101026201020363010203047f01010101010101010101010101010101010101010101010101010101010101016001600053600360020160015060046010600039",
                "storage": {}
            },
            "0x0000000000000000000000000000000000001100": {
                "nonce": "0x01",
                "balance": "0x0de0b6b3a7640000",
                "code": "0x600060006000600060006110005af160005260206000f3",
                "storage": {}
            },
            "0xa94f5374fce5edbc8e2a8697c15331677e6ebf0b": {
                "nonce": "0x00",
                "balance": "0x6124fee993bc0000",
                "code": "0x",
                "storage": {}
            }
        },
        "transaction": {
            "nonce": "0x00",
            "gasPrice": "0x0a",
            "gasLimit": [
                "0x0186a0"
            ],
            "to": "0x0000000000000000000000000000000000001100",
            "value": [
                "0x00"
            ],
            "data": [
                "0x"
            ],
            "sender": "0xa94f5374fce5edbc8e2a8697c15331677e6ebf0b",
            "secretKey": "0x45a915e4d060149eb4365960e6a7a45f334393093061116b197e3240065ff2d8"
        },
        "post": {
            "Homestead": [
                {
                    "hash": "0x62646e353b771ed32210f945879cb467778ab91b13a48e58d7b5455a91e6100a",
                    "logs": "0x1dcc4de8dec75d7aab85b567b6ccd41ad312451b948a7413f0a142fd40d49347",
                    "txbytes": "0xf860800a830186a094000000000000000000000000000000000000110080801ca00671a3e9dab47d17669ebe31855e9d6481d6c945fa946dd61fc374eb5420a220a03d6c864c60d6f9c901dcb2ec86286cbaeaa1e86c82c6fa7147cd4417db86bf9f",
                    "indexes": {
                        "data": 0,
                        "gas": 0,
                        "value": 0
                    },
                    "state": {
                        "0x0000000000000000000000000000000000001000": {
                            "nonce": "0x01",
                            "balance": "0x00",
                            "code": "0x600060011b600060011c600a600b600c600d600e9080815f6101026201020363010203047f01010101010101010101010101010101010101010101010101010101010101016001600053600360020160015060046010600039",
                            "storage": {}
                        },
                        "0x0000000000000000000000000000000000001100": {
                            "nonce": "0x01",
                            "balance": "0x0de0b6b3a7640000",
                            "code": "0x600060006000600060006110005af160005260206000f3",
                            "storage": {}
                        },
                        "0xa94f5374fce5edbc8e2a8697c15331677e6ebf0b": {
                            "nonce": "0x01",
                            "balance": "0x6124fee993acbdc0",
                            "code": "0x",
                            "storage": {}
                        },
                        "0x2adc25665018aa1fe0e6bc666dac8fc2697ff9ba": {
                            "nonce": "0x00",
                            "balance": "0x0f4240",
                            "code": "0x",
                            "storage": {}
                        }
                    }
                }
            ]
        },
        "config": {
            "chainid": "0x01"
        },
        "_info": {
            "hash": "0x8f9fcd149096e32e0733728d98d33b79279e424f3385535527028968c2b7fd34",
            "comment": "`execution-spec-tests` generated test",
            "filling-transition-tool": "ethereum-spec-evm-resolver 0.0.5",
            "description": "Cover gaps that result from transforming Yul code into\n    `ethereum_test_tools.vm.opcode.Opcodes` bytecode.\n\n    E.g. Yul tends to optimize stack items by using `SWAP1` and `DUP1` opcodes, which are not\n    regularly used in python code.\n\n    Modify this test to cover more Yul code if required in the future.",
            "url": "https://github.com/ethereum/execution-spec-tests/tree/v4.5.0/tests/homestead/coverage/test_coverage.py#L13",
            "fixture-format": "state_test",
            "eels-resolution": {
                "git-url": "https://github.com/ethereum/execution-specs.git",
                "branch": "master",
                "commit": "fa847a0e48309debee8edc510ceddb2fd5db2f2e"
            }
        }
    },
    "tests/homestead/coverage/test_coverage.py::test_coverage[fork_Istanbul-state_test]": {
        "env": {
            "currentCoinbase": "0x2adc25665018aa1fe0e6bc666dac8fc2697ff9ba",
            "currentGasLimit": "0x044aa200",
            "currentNumber": "0x01",
            "currentTimestamp": "0x03e8",
            "currentDifficulty": "0x020000"
        },
        "pre": {
            "0x0000000000000000000000000000000000001000": {
                "nonce": "0x01",
                "balance": "0x00",
                "code": "0x600060011b600060011c600a600b600c600d600e9080815f6101026201020363010203047f01010101010101010101010101010101010101010101010101010101010101016001600053600360020160015060046010600039",
                "storage": {}
            },
            "0x0000000000000000000000000000000000001100": {
                "nonce": "0x01",
                "balance": "0x0de0b6b3a7640000",
                "code": "0x600060006000600060006110005af160005260206000f3",
                "storage": {}
            },
            "0xa94f5374fce5edbc8e2a8697c15331677e6ebf0b": {
                "nonce": "0x00",
                "balance": "0x6124fee993bc0000",
                "code": "0x",
                "storage": {}
            }
        },
        "transaction": {
            "nonce": "0x00",
            "gasPrice": "0x0a",
            "gasLimit": [
                "0x0186a0"
            ],
            "to": "0x0000000000000000000000000000000000001100",
            "value": [
                "0x00"
            ],
            "data": [
                "0x"
            ],
            "sender": "0xa94f5374fce5edbc8e2a8697c15331677e6ebf0b",
            "secretKey": "0x45a915e4d060149eb4365960e6a7a45f334393093061116b197e3240065ff2d8"
        },
        "post": {
            "Istanbul": [
                {
                    "hash": "0x55a79b85de5be85987be190e436eaf6d4b41f8366e551a53bf4c1ad1cc3081dc",
                    "logs": "0x1dcc4de8dec75d7aab85b567b6ccd41ad312451b948a7413f0a142fd40d49347",
                    "txbytes": "0xf860800a830186a094000000000000000000000000000000000000110080801ca00671a3e9dab47d17669ebe31855e9d6481d6c945fa946dd61fc374eb5420a220a03d6c864c60d6f9c901dcb2ec86286cbaeaa1e86c82c6fa7147cd4417db86bf9f",
                    "indexes": {
                        "data": 0,
                        "gas": 0,
                        "value": 0
                    },
                    "state": {
                        "0x0000000000000000000000000000000000001000": {
                            "nonce": "0x01",
                            "balance": "0x00",
                            "code": "0x600060011b600060011c600a600b600c600d600e9080815f6101026201020363010203047f01010101010101010101010101010101010101010101010101010101010101016001600053600360020160015060046010600039",
                            "storage": {}
                        },
                        "0x0000000000000000000000000000000000001100": {
                            "nonce": "0x01",
                            "balance": "0x0de0b6b3a7640000",
                            "code": "0x600060006000600060006110005af160005260206000f3",
                            "storage": {}
                        },
                        "0xa94f5374fce5edbc8e2a8697c15331677e6ebf0b": {
                            "nonce": "0x01",
                            "balance": "0x6124fee993acecf0",
                            "code": "0x",
                            "storage": {}
                        },
                        "0x2adc25665018aa1fe0e6bc666dac8fc2697ff9ba": {
                            "nonce": "0x00",
                            "balance": "0x0f1310",
                            "code": "0x",
                            "storage": {}
                        }
                    }
                }
            ]
        },
        "config": {
            "chainid": "0x01"
        },
        "_info": {
            "hash": "0xd5451b1e89fe32879d26d6294374e4ee2817d1646a015137806e5a7edaaacca7",
            "comment": "`execution-spec-tests` generated test",
            "filling-transition-tool": "ethereum-spec-evm-resolver 0.0.5",
            "description": "Cover gaps that result from transforming Yul code into\n    `ethereum_test_tools.vm.opcode.Opcodes` bytecode.\n\n    E.g. Yul tends to optimize stack items by using `SWAP1` and `DUP1` opcodes, which are not\n    regularly used in python code.\n\n    Modify this test to cover more Yul code if required in the future.",
            "url": "https://github.com/ethereum/execution-spec-tests/tree/v4.5.0/tests/homestead/coverage/test_coverage.py#L13",
            "fixture-format": "state_test",
            "eels-resolution": {
                "git-url": "https://github.com/ethereum/execution-specs.git",
                "branch": "master",
                "commit": "fa847a0e48309debee8edc510ceddb2fd5db2f2e"
            }
        }
    },
    "tests/homestead/coverage/test_coverage.py::test_coverage[fork_London-state_test]": {
        "env": {
            "currentCoinbase": "0x2adc25665018aa1fe0e6bc666dac8fc2697ff9ba",
            "currentGasLimit": "0x044aa200",
            "currentNumber": "0x01",
            "currentTimestamp": "0x03e8",
            "currentDifficulty": "0x020000",
            "currentBaseFee": "0x07"
        },
        "pre": {
            "0x0000000000000000000000000000000000001000": {
                "nonce": "0x01",
                "balance": "0x00",
                "code": "0x600060011b600060011c600a600b600c600d600e9080815f6101026201020363010203047f01010101010101010101010101010101010101010101010101010101010101016001600053600360020160015060046010600039",
                "storage": {}
            },
            "0x0000000000000000000000000000000000001100": {
                "nonce": "0x01",
                "balance": "0x0de0b6b3a7640000",
                "code": "0x600060006000600060006110005af160005260206000f3",
                "storage": {}
            },
            "0xa94f5374fce5edbc8e2a8697c15331677e6ebf0b": {
                "nonce": "0x00",
                "balance": "0x6124fee993bc0000",
                "code": "0x",
                "storage": {}
            }
        },
        "transaction": {
            "nonce": "0x00",
            "gasPrice": "0x0a",
            "gasLimit": [
                "0x0186a0"
            ],
            "to": "0x0000000000000000000000000000000000001100",
            "value": [
                "0x00"
            ],
            "data": [
                "0x"
            ],
            "sender": "0xa94f5374fce5edbc8e2a8697c15331677e6ebf0b",
            "secretKey": "0x45a915e4d060149eb4365960e6a7a45f334393093061116b197e3240065ff2d8"
        },
        "post": {
            "London": [
                {
                    "hash": "0xcc73f53208413db2fd1d2dd31a2a23e116ee2da21872bb6974817907c7c0ce51",
                    "logs": "0x1dcc4de8dec75d7aab85b567b6ccd41ad312451b948a7413f0a142fd40d49347",
                    "txbytes": "0xf860800a830186a094000000000000000000000000000000000000110080801ca00671a3e9dab47d17669ebe31855e9d6481d6c945fa946dd61fc374eb5420a220a03d6c864c60d6f9c901dcb2ec86286cbaeaa1e86c82c6fa7147cd4417db86bf9f",
                    "indexes": {
                        "data": 0,
                        "gas": 0,
                        "value": 0
                    },
                    "state": {
                        "0x0000000000000000000000000000000000001000": {
                            "nonce": "0x01",
                            "balance": "0x00",
                            "code": "0x600060011b600060011c600a600b600c600d600e9080815f6101026201020363010203047f01010101010101010101010101010101010101010101010101010101010101016001600053600360020160015060046010600039",
                            "storage": {}
                        },
                        "0x0000000000000000000000000000000000001100": {
                            "nonce": "0x01",
                            "balance": "0x0de0b6b3a7640000",
                            "code": "0x600060006000600060006110005af160005260206000f3",
                            "storage": {}
                        },
                        "0xa94f5374fce5edbc8e2a8697c15331677e6ebf0b": {
                            "nonce": "0x01",
                            "balance": "0x6124fee993acebc4",
                            "code": "0x",
                            "storage": {}
                        },
                        "0x2adc25665018aa1fe0e6bc666dac8fc2697ff9ba": {
                            "nonce": "0x00",
                            "balance": "0x048612",
                            "code": "0x",
                            "storage": {}
                        }
                    }
                }
            ]
        },
        "config": {
            "chainid": "0x01"
        },
        "_info": {
            "hash": "0x5c715ad790d54d6f41c640cd3229c8a309efda1935d1f6ad3d6b903b0b7bd6ba",
            "comment": "`execution-spec-tests` generated test",
            "filling-transition-tool": "ethereum-spec-evm-resolver 0.0.5",
            "description": "Cover gaps that result from transforming Yul code into\n    `ethereum_test_tools.vm.opcode.Opcodes` bytecode.\n\n    E.g. Yul tends to optimize stack items by using `SWAP1` and `DUP1` opcodes, which are not\n    regularly used in python code.\n\n    Modify this test to cover more Yul code if required in the future.",
            "url": "https://github.com/ethereum/execution-spec-tests/tree/v4.5.0/tests/homestead/coverage/test_coverage.py#L13",
            "fixture-format": "state_test",
            "eels-resolution": {
                "git-url": "https://github.com/ethereum/execution-specs.git",
                "branch": "master",
                "commit": "fa847a0e48309debee8edc510ceddb2fd5db2f2e"
            }
        }
    },
    "tests/homestead/coverage/test_coverage.py::test_coverage[fork_Paris-state_test]": {
        "env": {
            "currentCoinbase": "0x2adc25665018aa1fe0e6bc666dac8fc2697ff9ba",
            "currentGasLimit": "0x044aa200",
            "currentNumber": "0x01",
            "currentTimestamp": "0x03e8",
            "currentRandom": "0x0000000000000000000000000000000000000000000000000000000000000000",
            "currentDifficulty": "0x00",
            "currentBaseFee": "0x07"
        },
        "pre": {
            "0x0000000000000000000000000000000000001000": {
                "nonce": "0x01",
                "balance": "0x00",
                "code": "0x600060011b600060011c600a600b600c600d600e9080815f6101026201020363010203047f01010101010101010101010101010101010101010101010101010101010101016001600053600360020160015060046010600039",
                "storage": {}
            },
            "0x0000000000000000000000000000000000001100": {
                "nonce": "0x01",
                "balance": "0x0de0b6b3a7640000",
                "code": "0x600060006000600060006110005af160005260206000f3",
                "storage": {}
            },
            "0xa94f5374fce5edbc8e2a8697c15331677e6ebf0b": {
                "nonce": "0x00",
                "balance": "0x6124fee993bc0000",
                "code": "0x",
                "storage": {}
            }
        },
        "transaction": {
            "nonce": "0x00",
            "gasPrice": "0x0a",
            "gasLimit": [
                "0x0186a0"
            ],
            "to": "0x0000000000000000000000000000000000001100",
            "value": [
                "0x00"
            ],
            "data": [
                "0x"
            ],
            "sender": "0xa94f5374fce5edbc8e2a8697c15331677e6ebf0b",
            "secretKey": "0x45a915e4d060149eb4365960e6a7a45f334393093061116b197e3240065ff2d8"
        },
        "post": {
            "Paris": [
                {
                    "hash": "0xcc73f53208413db2fd1d2dd31a2a23e116ee2da21872bb6974817907c7c0ce51",
                    "logs": "0x1dcc4de8dec75d7aab85b567b6ccd41ad312451b948a7413f0a142fd40d49347",
                    "txbytes": "0xf860800a830186a094000000000000000000000000000000000000110080801ca00671a3e9dab47d17669ebe31855e9d6481d6c945fa946dd61fc374eb5420a220a03d6c864c60d6f9c901dcb2ec86286cbaeaa1e86c82c6fa7147cd4417db86bf9f",
                    "indexes": {
                        "data": 0,
                        "gas": 0,
                        "value": 0
                    },
                    "state": {
                        "0x0000000000000000000000000000000000001000": {
                            "nonce": "0x01",
                            "balance": "0x00",
                            "code": "0x600060011b600060011c600a600b600c600d600e9080815f6101026201020363010203047f01010101010101010101010101010101010101010101010101010101010101016001600053600360020160015060046010600039",
                            "storage": {}
                        },
                        "0x0000000000000000000000000000000000001100": {
                            "nonce": "0x01",
                            "balance": "0x0de0b6b3a7640000",
                            "code": "0x600060006000600060006110005af160005260206000f3",
                            "storage": {}
                        },
                        "0xa94f5374fce5edbc8e2a8697c15331677e6ebf0b": {
                            "nonce": "0x01",
                            "balance": "0x6124fee993acebc4",
                            "code": "0x",
                            "storage": {}
                        },
                        "0x2adc25665018aa1fe0e6bc666dac8fc2697ff9ba": {
                            "nonce": "0x00",
                            "balance": "0x048612",
                            "code": "0x",
                            "storage": {}
                        }
                    }
                }
            ]
        },
        "config": {
            "chainid": "0x01"
        },
        "_info": {
            "hash": "0x6fa5d8ae23f7301aed89249bb7fd78ab110fd05994f3d78a460c697f6ccdefaa",
            "comment": "`execution-spec-tests` generated test",
            "filling-transition-tool": "ethereum-spec-evm-resolver 0.0.5",
            "description": "Cover gaps that result from transforming Yul code into\n    `ethereum_test_tools.vm.opcode.Opcodes` bytecode.\n\n    E.g. Yul tends to optimize stack items by using `SWAP1` and `DUP1` opcodes, which are not\n    regularly used in python code.\n\n    Modify this test to cover more Yul code if required in the future.",
            "url": "https://github.com/ethereum/execution-spec-tests/tree/v4.5.0/tests/homestead/coverage/test_coverage.py#L13",
            "fixture-format": "state_test",
            "eels-resolution": {
                "git-url": "https://github.com/ethereum/execution-specs.git",
                "branch": "master",
                "commit": "fa847a0e48309debee8edc510ceddb2fd5db2f2e"
            }
        }
    },
    "tests/homestead/coverage/test_coverage.py::test_coverage[fork_Shanghai-state_test]": {
        "env": {
            "currentCoinbase": "0x2adc25665018aa1fe0e6bc666dac8fc2697ff9ba",
            "currentGasLimit": "0x044aa200",
            "currentNumber": "0x01",
            "currentTimestamp": "0x03e8",
            "currentRandom": "0x0000000000000000000000000000000000000000000000000000000000000000",
            "currentDifficulty": "0x00",
            "currentBaseFee": "0x07"
        },
        "pre": {
            "0x0000000000000000000000000000000000001000": {
                "nonce": "0x01",
                "balance": "0x00",
                "code": "0x600060011b600060011c600a600b600c600d600e9080815f6101026201020363010203047f01010101010101010101010101010101010101010101010101010101010101016001600053600360020160015060046010600039",
                "storage": {}
            },
            "0x0000000000000000000000000000000000001100": {
                "nonce": "0x01",
                "balance": "0x0de0b6b3a7640000",
                "code": "0x600060006000600060006110005af160005260206000f3",
                "storage": {}
            },
            "0xa94f5374fce5edbc8e2a8697c15331677e6ebf0b": {
                "nonce": "0x00",
                "balance": "0x6124fee993bc0000",
                "code": "0x",
                "storage": {}
            }
        },
        "transaction": {
            "nonce": "0x00",
            "gasPrice": "0x0a",
            "gasLimit": [
                "0x0186a0"
            ],
            "to": "0x0000000000000000000000000000000000001100",
            "value": [
                "0x00"
            ],
            "data": [
                "0x"
            ],
            "sender": "0xa94f5374fce5edbc8e2a8697c15331677e6ebf0b",
            "secretKey": "0x45a915e4d060149eb4365960e6a7a45f334393093061116b197e3240065ff2d8"
        },
        "post": {
            "Shanghai": [
                {
                    "hash": "0x09d147738510e252754e0ead373b503ff02878cd8e1f2e424f6220f318b9674a",
                    "logs": "0x1dcc4de8dec75d7aab85b567b6ccd41ad312451b948a7413f0a142fd40d49347",
                    "txbytes": "0xf860800a830186a094000000000000000000000000000000000000110080801ca00671a3e9dab47d17669ebe31855e9d6481d6c945fa946dd61fc374eb5420a220a03d6c864c60d6f9c901dcb2ec86286cbaeaa1e86c82c6fa7147cd4417db86bf9f",
                    "indexes": {
                        "data": 0,
                        "gas": 0,
                        "value": 0
                    },
                    "state": {
                        "0x0000000000000000000000000000000000001000": {
                            "nonce": "0x01",
                            "balance": "0x00",
                            "code": "0x600060011b600060011c600a600b600c600d600e9080815f6101026201020363010203047f01010101010101010101010101010101010101010101010101010101010101016001600053600360020160015060046010600039",
                            "storage": {}
                        },
                        "0x0000000000000000000000000000000000001100": {
                            "nonce": "0x01",
                            "balance": "0x0de0b6b3a7640000",
                            "code": "0x600060006000600060006110005af160005260206000f3",
                            "storage": {}
                        },
                        "0xa94f5374fce5edbc8e2a8697c15331677e6ebf0b": {
                            "nonce": "0x01",
                            "balance": "0x6124fee993b860f8",
                            "code": "0x",
                            "storage": {}
                        },
                        "0x2adc25665018aa1fe0e6bc666dac8fc2697ff9ba": {
                            "nonce": "0x00",
                            "balance": "0x01161c",
                            "code": "0x",
                            "storage": {}
                        }
                    }
                }
            ]
        },
        "config": {
            "chainid": "0x01"
        },
        "_info": {
            "hash": "0x57b222db0a12b5f2a5db7d9feb8f1aa7a789be4b8bbc4c4fb33f412aff5dd354",
            "comment": "`execution-spec-tests` generated test",
            "filling-transition-tool": "ethereum-spec-evm-resolver 0.0.5",
            "description": "Cover gaps that result from transforming Yul code into\n    `ethereum_test_tools.vm.opcode.Opcodes` bytecode.\n\n    E.g. Yul tends to optimize stack items by using `SWAP1` and `DUP1` opcodes, which are not\n    regularly used in python code.\n\n    Modify this test to cover more Yul code if required in the future.",
            "url": "https://github.com/ethereum/execution-spec-tests/tree/v4.5.0/tests/homestead/coverage/test_coverage.py#L13",
            "fixture-format": "state_test",
            "eels-resolution": {
                "git-url": "https://github.com/ethereum/execution-specs.git",
                "branch": "master",
                "commit": "fa847a0e48309debee8edc510ceddb2fd5db2f2e"
            }
        }
    }
}