{
    "tests/frontier/opcodes/test_selfdestruct.py::test_double_kill[fork_Frontier-blockchain_test]": {
        "network": "Frontier",
        "genesisBlockHeader": {
            "parentHash": "0x0000000000000000000000000000000000000000000000000000000000000000",
            "uncleHash": "0x1dcc4de8dec75d7aab85b567b6ccd41ad312451b948a7413f0a142fd40d49347",
            "coinbase": "0x0000000000000000000000000000000000000000",
            "stateRoot": "0x70c42824108fafccadbfce71e6e22660c4fad89be18be324cd15ef351969a8c8",
            "transactionsTrie": "0x56e81f171bcc55a6ff8345e692c0f86e5b48e01b996cadc001622fb5e363b421",
            "receiptTrie": "0x56e81f171bcc55a6ff8345e692c0f86e5b48e01b996cadc001622fb5e363b421",
            "bloom": "0x00000000000000000000000000000000000000000000000000000000000000000000000000000000000000000000000000000000000000000000000000000000000000000000000000000000000000000000000000000000000000000000000000000000000000000000000000000000000000000000000000000000000000000000000000000000000000000000000000000000000000000000000000000000000000000000000000000000000000000000000000000000000000000000000000000000000000000000000000000000000000000000000000000000000000000000000000000000000000000000000000000000000000000000000000000000",
            "difficulty": "0x020000",
            "number": "0x00",
            "gasLimit": "0x044aa200",
            "gasUsed": "0x00",
            "timestamp": "0x00",
            "extraData": "0x00",
            "mixHash": "0x0000000000000000000000000000000000000000000000000000000000000000",
            "nonce": "0x0000000000000000",
            "hash": "0x9e64cd1e8c86ab2732ec0bd5eb1c0de533d8be4fa509f7cb9e93f7b404c23f69"
        },
        "pre": {
            "0xa94f5374fce5edbc8e2a8697c15331677e6ebf0b": {
                "nonce": "0x00",
                "balance": "0x3635c9adc5dea00000",
                "code": "0x",
                "storage": {}
            }
        },
        "postState": {
            "0xa94f5374fce5edbc8e2a8697c15331677e6ebf0b": {
                "nonce": "0x03",
                "balance": "0x3635c9adc5de97cf16",
                "code": "0x",
                "storage": {}
            },
            "0x2adc25665018aa1fe0e6bc666dac8fc2697ff9ba": {
                "nonce": "0x00",
                "balance": "0x8ac7230489f030ea",
                "code": "0x",
                "storage": {}
            },
            "0x6295ee1b4f6dd65047762f924ecd367c17eabf8f": {
                "nonce": "0x00",
                "balance": "0x00",
                "code": "0x",
                "storage": {}
            }
        },
        "lastblockhash": "0x9d3f25f29bb98a604dbdb7f13c96368170ab53064cbaea611359ae15a77c0445",
        "config": {
            "network": "Frontier",
            "chainid": "0x01"
        },
        "genesisRLP": "0xf901f9f901f4a00000000000000000000000000000000000000000000000000000000000000000a01dcc4de8dec75d7aab85b567b6ccd41ad312451b948a7413f0a142fd40d49347940000000000000000000000000000000000000000a070c42824108fafccadbfce71e6e22660c4fad89be18be324cd15ef351969a8c8a056e81f171bcc55a6ff8345e692c0f86e5b48e01b996cadc001622fb5e363b421a056e81f171bcc55a6ff8345e692c0f86e5b48e01b996cadc001622fb5e363b421b9010000000000000000000000000000000000000000000000000000000000000000000000000000000000000000000000000000000000000000000000000000000000000000000000000000000000000000000000000000000000000000000000000000000000000000000000000000000000000000000000000000000000000000000000000000000000000000000000000000000000000000000000000000000000000000000000000000000000000000000000000000000000000000000000000000000000000000000000000000000000000000000000000000000000000000000000000000000000000000000000000000000000000000000000000000000000830200008084044aa200808000a00000000000000000000000000000000000000000000000000000000000000000880000000000000000c0c0",
        "blocks": [
            {
                "blockHeader": {
                    "parentHash": "0x9e64cd1e8c86ab2732ec0bd5eb1c0de533d8be4fa509f7cb9e93f7b404c23f69",
                    "uncleHash": "0x1dcc4de8dec75d7aab85b567b6ccd41ad312451b948a7413f0a142fd40d49347",
                    "coinbase": "0x2adc25665018aa1fe0e6bc666dac8fc2697ff9ba",
                    "stateRoot": "0xd57a9c43e86b33f8781a609421d2dd2c3afe14404ae77fef058e98aac969b5a9",
                    "transactionsTrie": "0xe4404b8bad07df259155e5974dea5f25fe3327572d16e6b05286d3bad7fe13b8",
                    "receiptTrie": "0xb9613e9deb05fae5ee19ceb2d4937ad8d84fe4256f120c4ba7c688dc83b92cb1",
                    "bloom": "0x00000000000000000000000000000000000000000000000000000000000000000000000000000000000000000000000000000000000000000000000000000000000000000000000000000000000000000000000000000000000000000000000000000000000000000000000000000000000000000000000000000000000000000000000000000000000000000000000000000000000000000000000000000000000000000000000000000000000000000000000000000000000000000000000000000000000000000000000000000000000000000000000000000000000000000000000000000000000000000000000000000000000000000000000000000000",
                    "difficulty": "0x020040",
                    "number": "0x01",
                    "gasLimit": "0x044aa200",
                    "gasUsed": "0x56a4",
                    "timestamp": "0x0c",
                    "extraData": "0x",
                    "mixHash": "0x0000000000000000000000000000000000000000000000000000000000000000",
                    "nonce": "0x0000000000000000",
                    "hash": "0xc3ec609913c489cc5c8f63faa6d48842629708726d70a7fdf33e077e411871a3"
                },
                "transactions": [
                    {
                        "type": "0x00",
                        "chainId": "0x01",
                        "nonce": "0x00",
                        "gasPrice": "0x0a",
                        "gasLimit": "0x0186a0",
                        "value": "0x00",
                        "data": "0x610002600081600b8239f330ff",
                        "v": "0x1b",
                        "r": "0x01b55e813ad8437fea73a9a8eef28b0097a4cb1edcf03bdb2656a5ce32291737",
                        "s": "0x093d0d90cfbbf26cbefb131cafe4a2f4e59cd3855690eb1ea723a3164226bdf1",
                        "sender": "0xa94f5374fce5edbc8e2a8697c15331677e6ebf0b",
                        "to": ""
                    }
                ],
                "uncleHeaders": [],
                "rlp": "0xf90257f901f6a09e64cd1e8c86ab2732ec0bd5eb1c0de533d8be4fa509f7cb9e93f7b404c23f69a01dcc4de8dec75d7aab85b567b6ccd41ad312451b948a7413f0a142fd40d49347942adc25665018aa1fe0e6bc666dac8fc2697ff9baa0d57a9c43e86b33f8781a609421d2dd2c3afe14404ae77fef058e98aac969b5a9a0e4404b8bad07df259155e5974dea5f25fe3327572d16e6b05286d3bad7fe13b8a0b9613e9deb05fae5ee19ceb2d4937ad8d84fe4256f120c4ba7c688dc83b92cb1b9010000000000000000000000000000000000000000000000000000000000000000000000000000000000000000000000000000000000000000000000000000000000000000000000000000000000000000000000000000000000000000000000000000000000000000000000000000000000000000000000000000000000000000000000000000000000000000000000000000000000000000000000000000000000000000000000000000000000000000000000000000000000000000000000000000000000000000000000000000000000000000000000000000000000000000000000000000000000000000000000000000000000000000000000000000000000830200400184044aa2008256a40c80a00000000000000000000000000000000000000000000000000000000000000000880000000000000000f85bf859800a830186a080808d610002600081600b8239f330ff1ba001b55e813ad8437fea73a9a8eef28b0097a4cb1edcf03bdb2656a5ce32291737a0093d0d90cfbbf26cbefb131cafe4a2f4e59cd3855690eb1ea723a3164226bdf1c0",
                "blocknumber": "1"
            },
            {
                "blockHeader": {
                    "parentHash": "0xc3ec609913c489cc5c8f63faa6d48842629708726d70a7fdf33e077e411871a3",
                    "uncleHash": "0x1dcc4de8dec75d7aab85b567b6ccd41ad312451b948a7413f0a142fd40d49347",
                    "coinbase": "0x2adc25665018aa1fe0e6bc666dac8fc2697ff9ba",
                    "stateRoot": "0x9f63869babe654b6ab809db30931c76916fa8f1610e4f3aeaeb341f976490bbe",
                    "transactionsTrie": "0x74c8dbafb3153f0a6b769794480a8a6bf606ff377d3a982c9dfd53c3fef46257",
                    "receiptTrie": "0x663fe96c77f1266e310b4de60e5f9f342a87f5a466a0448c723a70f3b099b65f",
                    "bloom": "0x00000000000000000000000000000000000000000000000000000000000000000000000000000000000000000000000000000000000000000000000000000000000000000000000000000000000000000000000000000000000000000000000000000000000000000000000000000000000000000000000000000000000000000000000000000000000000000000000000000000000000000000000000000000000000000000000000000000000000000000000000000000000000000000000000000000000000000000000000000000000000000000000000000000000000000000000000000000000000000000000000000000000000000000000000000000",
                    "difficulty": "0x020080",
                    "number": "0x02",
                    "gasLimit": "0x044aa200",
                    "gasUsed": "0x7b0d",
                    "timestamp": "0x18",
                    "extraData": "0x",
                    "mixHash": "0x0000000000000000000000000000000000000000000000000000000000000000",
                    "nonce": "0x0000000000000000",
                    "hash": "0x9d3f25f29bb98a604dbdb7f13c96368170ab53064cbaea611359ae15a77c0445"
                },
                "transactions": [
                    {
                        "type": "0x00",
                        "chainId": "0x01",
                        "nonce": "0x01",
                        "gasPrice": "0x0a",
                        "gasLimit": "0x0186a0",
                        "to": "0x6295ee1b4f6dd65047762f924ecd367c17eabf8f",
                        "value": "0x00",
                        "data": "0x",
                        "v": "0x1b",
                        "r": "0x1a68e6227c5905893e84f7da3d1a3a2bbaebefcd83092196acbfba8ef11c2103",
                        "s": "0x08931a1ce69128d49fd2524640bd1a94fe01a712b6604625727d5e46af69cb08",
                        "sender": "0xa94f5374fce5edbc8e2a8697c15331677e6ebf0b"
                    },
                    {
                        "type": "0x00",
                        "chainId": "0x01",
                        "nonce": "0x02",
                        "gasPrice": "0x0a",
                        "gasLimit": "0x0186a0",
                        "to": "0x6295ee1b4f6dd65047762f924ecd367c17eabf8f",
                        "value": "0x00",
                        "data": "0x",
                        "v": "0x1b",
                        "r": "0x7d45f6d4be6cee11f9289fb7b6797c7bf1022ff5f41e87b83d1fb95698e1dcbe",
                        "s": "0x3ce0cecbe5bb9265cc3860d8271fb10823dd5c1a59db9cb2644a28d2ed22acac",
                        "sender": "0xa94f5374fce5edbc8e2a8697c15331677e6ebf0b"
                    }
                ],
                "uncleHeaders": [],
                "rlp": "0xf902c0f901f6a0c3ec609913c489cc5c8f63faa6d48842629708726d70a7fdf33e077e411871a3a01dcc4de8dec75d7aab85b567b6ccd41ad312451b948a7413f0a142fd40d49347942adc25665018aa1fe0e6bc666dac8fc2697ff9baa09f63869babe654b6ab809db30931c76916fa8f1610e4f3aeaeb341f976490bbea074c8dbafb3153f0a6b769794480a8a6bf606ff377d3a982c9dfd53c3fef46257a0663fe96c77f1266e310b4de60e5f9f342a87f5a466a0448c723a70f3b099b65fb9010000000000000000000000000000000000000000000000000000000000000000000000000000000000000000000000000000000000000000000000000000000000000000000000000000000000000000000000000000000000000000000000000000000000000000000000000000000000000000000000000000000000000000000000000000000000000000000000000000000000000000000000000000000000000000000000000000000000000000000000000000000000000000000000000000000000000000000000000000000000000000000000000000000000000000000000000000000000000000000000000000000000000000000000000000000000830200800284044aa200827b0d1880a00000000000000000000000000000000000000000000000000000000000000000880000000000000000f8c4f860010a830186a0946295ee1b4f6dd65047762f924ecd367c17eabf8f80801ba01a68e6227c5905893e84f7da3d1a3a2bbaebefcd83092196acbfba8ef11c2103a008931a1ce69128d49fd2524640bd1a94fe01a712b6604625727d5e46af69cb08f860020a830186a0946295ee1b4f6dd65047762f924ecd367c17eabf8f80801ba07d45f6d4be6cee11f9289fb7b6797c7bf1022ff5f41e87b83d1fb95698e1dcbea03ce0cecbe5bb9265cc3860d8271fb10823dd5c1a59db9cb2644a28d2ed22acacc0",
                "blocknumber": "2"
            }
        ],
        "sealEngine": "NoProof",
        "_info": {
            "hash": "0xbd0f6fc01acb93aeb93e756a930a056626dc4bc955c3f8db5204b99ed4d4a123",
            "comment": "`execution-spec-tests` generated test",
            "filling-transition-tool": "ethereum-spec-evm-resolver 0.0.5",
            "description": "Test that when two transactions attempt to destruct a contract,\n    the second transaction actually resurrects the contract as an empty account (prior to Spurious\n    Dragon).",
            "url": "https://github.com/ethereum/execution-spec-tests/tree/v4.5.0/tests/frontier/opcodes/test_selfdestruct.py#L9",
            "fixture-format": "blockchain_test",
            "eels-resolution": {
                "git-url": "https://github.com/ethereum/execution-specs.git",
                "branch": "master",
                "commit": "fa847a0e48309debee8edc510ceddb2fd5db2f2e"
            }
        }
    },
    "tests/frontier/opcodes/test_selfdestruct.py::test_double_kill[fork_Homestead-blockchain_test]": {
        "network": "Homestead",
        "genesisBlockHeader": {
            "parentHash": "0x0000000000000000000000000000000000000000000000000000000000000000",
            "uncleHash": "0x1dcc4de8dec75d7aab85b567b6ccd41ad312451b948a7413f0a142fd40d49347",
            "coinbase": "0x0000000000000000000000000000000000000000",
            "stateRoot": "0x70c42824108fafccadbfce71e6e22660c4fad89be18be324cd15ef351969a8c8",
            "transactionsTrie": "0x56e81f171bcc55a6ff8345e692c0f86e5b48e01b996cadc001622fb5e363b421",
            "receiptTrie": "0x56e81f171bcc55a6ff8345e692c0f86e5b48e01b996cadc001622fb5e363b421",
            "bloom": "0x00000000000000000000000000000000000000000000000000000000000000000000000000000000000000000000000000000000000000000000000000000000000000000000000000000000000000000000000000000000000000000000000000000000000000000000000000000000000000000000000000000000000000000000000000000000000000000000000000000000000000000000000000000000000000000000000000000000000000000000000000000000000000000000000000000000000000000000000000000000000000000000000000000000000000000000000000000000000000000000000000000000000000000000000000000000",
            "difficulty": "0x020000",
            "number": "0x00",
            "gasLimit": "0x044aa200",
            "gasUsed": "0x00",
            "timestamp": "0x00",
            "extraData": "0x00",
            "mixHash": "0x0000000000000000000000000000000000000000000000000000000000000000",
            "nonce": "0x0000000000000000",
            "hash": "0x9e64cd1e8c86ab2732ec0bd5eb1c0de533d8be4fa509f7cb9e93f7b404c23f69"
        },
        "pre": {
            "0xa94f5374fce5edbc8e2a8697c15331677e6ebf0b": {
                "nonce": "0x00",
                "balance": "0x3635c9adc5dea00000",
                "code": "0x",
                "storage": {}
            }
        },
        "postState": {
            "0xa94f5374fce5edbc8e2a8697c15331677e6ebf0b": {
                "nonce": "0x03",
                "balance": "0x3635c9adc5de92ed16",
                "code": "0x",
                "storage": {}
            },
            "0x2adc25665018aa1fe0e6bc666dac8fc2697ff9ba": {
                "nonce": "0x00",
                "balance": "0x8ac7230489f512ea",
                "code": "0x",
                "storage": {}
            },
            "0x6295ee1b4f6dd65047762f924ecd367c17eabf8f": {
                "nonce": "0x00",
                "balance": "0x00",
                "code": "0x",
                "storage": {}
            }
        },
        "lastblockhash": "0x88e6b1f7a95f9459dcbf6113b4fecc8d2eaf5f4457b4bdaaee1b8594e31deed6",
        "config": {
            "network": "Homestead",
            "chainid": "0x01"
        },
        "genesisRLP": "0xf901f9f901f4a00000000000000000000000000000000000000000000000000000000000000000a01dcc4de8dec75d7aab85b567b6ccd41ad312451b948a7413f0a142fd40d49347940000000000000000000000000000000000000000a070c42824108fafccadbfce71e6e22660c4fad89be18be324cd15ef351969a8c8a056e81f171bcc55a6ff8345e692c0f86e5b48e01b996cadc001622fb5e363b421a056e81f171bcc55a6ff8345e692c0f86e5b48e01b996cadc001622fb5e363b421b9010000000000000000000000000000000000000000000000000000000000000000000000000000000000000000000000000000000000000000000000000000000000000000000000000000000000000000000000000000000000000000000000000000000000000000000000000000000000000000000000000000000000000000000000000000000000000000000000000000000000000000000000000000000000000000000000000000000000000000000000000000000000000000000000000000000000000000000000000000000000000000000000000000000000000000000000000000000000000000000000000000000000000000000000000000000000830200008084044aa200808000a00000000000000000000000000000000000000000000000000000000000000000880000000000000000c0c0",
        "blocks": [
            {
                "blockHeader": {
                    "parentHash": "0x9e64cd1e8c86ab2732ec0bd5eb1c0de533d8be4fa509f7cb9e93f7b404c23f69",
                    "uncleHash": "0x1dcc4de8dec75d7aab85b567b6ccd41ad312451b948a7413f0a142fd40d49347",
                    "coinbase": "0x2adc25665018aa1fe0e6bc666dac8fc2697ff9ba",
                    "stateRoot": "0x1098fb6f9eea12bb3d8207321be54f341b3d56c84d6a6f4f19e68fb3ef6e43b6",
                    "transactionsTrie": "0xe4404b8bad07df259155e5974dea5f25fe3327572d16e6b05286d3bad7fe13b8",
                    "receiptTrie": "0x0a6aa09c5785efad9d3f3258530756de4a467f0763097972bedf45774f156bf8",
                    "bloom": "0x00000000000000000000000000000000000000000000000000000000000000000000000000000000000000000000000000000000000000000000000000000000000000000000000000000000000000000000000000000000000000000000000000000000000000000000000000000000000000000000000000000000000000000000000000000000000000000000000000000000000000000000000000000000000000000000000000000000000000000000000000000000000000000000000000000000000000000000000000000000000000000000000000000000000000000000000000000000000000000000000000000000000000000000000000000000",
                    "difficulty": "0x020000",
                    "number": "0x01",
                    "gasLimit": "0x044aa200",
                    "gasUsed": "0xd3a4",
                    "timestamp": "0x0c",
                    "extraData": "0x",
                    "mixHash": "0x0000000000000000000000000000000000000000000000000000000000000000",
                    "nonce": "0x0000000000000000",
                    "hash": "0xd6a7973b4af85b4833a77160b1e0a39fa492799891e1c7ea351a61b78c3ef2b7"
                },
                "transactions": [
                    {
                        "type": "0x00",
                        "chainId": "0x01",
                        "nonce": "0x00",
                        "gasPrice": "0x0a",
                        "gasLimit": "0x0186a0",
                        "value": "0x00",
                        "data": "0x610002600081600b8239f330ff",
                        "v": "0x1b",
                        "r": "0x01b55e813ad8437fea73a9a8eef28b0097a4cb1edcf03bdb2656a5ce32291737",
                        "s": "0x093d0d90cfbbf26cbefb131cafe4a2f4e59cd3855690eb1ea723a3164226bdf1",
                        "sender": "0xa94f5374fce5edbc8e2a8697c15331677e6ebf0b",
                        "to": ""
                    }
                ],
                "uncleHeaders": [],
                "rlp": "0xf90257f901f6a09e64cd1e8c86ab2732ec0bd5eb1c0de533d8be4fa509f7cb9e93f7b404c23f69a01dcc4de8dec75d7aab85b567b6ccd41ad312451b948a7413f0a142fd40d49347942adc25665018aa1fe0e6bc666dac8fc2697ff9baa01098fb6f9eea12bb3d8207321be54f341b3d56c84d6a6f4f19e68fb3ef6e43b6a0e4404b8bad07df259155e5974dea5f25fe3327572d16e6b05286d3bad7fe13b8a00a6aa09c5785efad9d3f3258530756de4a467f0763097972bedf45774f156bf8b9010000000000000000000000000000000000000000000000000000000000000000000000000000000000000000000000000000000000000000000000000000000000000000000000000000000000000000000000000000000000000000000000000000000000000000000000000000000000000000000000000000000000000000000000000000000000000000000000000000000000000000000000000000000000000000000000000000000000000000000000000000000000000000000000000000000000000000000000000000000000000000000000000000000000000000000000000000000000000000000000000000000000000000000000000000000000830200000184044aa20082d3a40c80a00000000000000000000000000000000000000000000000000000000000000000880000000000000000f85bf859800a830186a080808d610002600081600b8239f330ff1ba001b55e813ad8437fea73a9a8eef28b0097a4cb1edcf03bdb2656a5ce32291737a0093d0d90cfbbf26cbefb131cafe4a2f4e59cd3855690eb1ea723a3164226bdf1c0",
                "blocknumber": "1"
            },
            {
                "blockHeader": {
                    "parentHash": "0xd6a7973b4af85b4833a77160b1e0a39fa492799891e1c7ea351a61b78c3ef2b7",
                    "uncleHash": "0x1dcc4de8dec75d7aab85b567b6ccd41ad312451b948a7413f0a142fd40d49347",
                    "coinbase": "0x2adc25665018aa1fe0e6bc666dac8fc2697ff9ba",
                    "stateRoot": "0xf6bbc543ba274d164de3f9f97abc1bdda0c69d27fab17fcba7a23f7766037c93",
                    "transactionsTrie": "0x74c8dbafb3153f0a6b769794480a8a6bf606ff377d3a982c9dfd53c3fef46257",
                    "receiptTrie": "0x8b4f32f32048eaa6765d528072e45bf93d9e9249274e288751f875b664cbd718",
                    "bloom": "0x00000000000000000000000000000000000000000000000000000000000000000000000000000000000000000000000000000000000000000000000000000000000000000000000000000000000000000000000000000000000000000000000000000000000000000000000000000000000000000000000000000000000000000000000000000000000000000000000000000000000000000000000000000000000000000000000000000000000000000000000000000000000000000000000000000000000000000000000000000000000000000000000000000000000000000000000000000000000000000000000000000000000000000000000000000000",
                    "difficulty": "0x020000",
                    "number": "0x02",
                    "gasLimit": "0x044aa200",
                    "gasUsed": "0x7b0d",
                    "timestamp": "0x18",
                    "extraData": "0x",
                    "mixHash": "0x0000000000000000000000000000000000000000000000000000000000000000",
                    "nonce": "0x0000000000000000",
                    "hash": "0x88e6b1f7a95f9459dcbf6113b4fecc8d2eaf5f4457b4bdaaee1b8594e31deed6"
                },
                "transactions": [
                    {
                        "type": "0x00",
                        "chainId": "0x01",
                        "nonce": "0x01",
                        "gasPrice": "0x0a",
                        "gasLimit": "0x0186a0",
                        "to": "0x6295ee1b4f6dd65047762f924ecd367c17eabf8f",
                        "value": "0x00",
                        "data": "0x",
                        "v": "0x1b",
                        "r": "0x1a68e6227c5905893e84f7da3d1a3a2bbaebefcd83092196acbfba8ef11c2103",
                        "s": "0x08931a1ce69128d49fd2524640bd1a94fe01a712b6604625727d5e46af69cb08",
                        "sender": "0xa94f5374fce5edbc8e2a8697c15331677e6ebf0b"
                    },
                    {
                        "type": "0x00",
                        "chainId": "0x01",
                        "nonce": "0x02",
                        "gasPrice": "0x0a",
                        "gasLimit": "0x0186a0",
                        "to": "0x6295ee1b4f6dd65047762f924ecd367c17eabf8f",
                        "value": "0x00",
                        "data": "0x",
                        "v": "0x1b",
                        "r": "0x7d45f6d4be6cee11f9289fb7b6797c7bf1022ff5f41e87b83d1fb95698e1dcbe",
                        "s": "0x3ce0cecbe5bb9265cc3860d8271fb10823dd5c1a59db9cb2644a28d2ed22acac",
                        "sender": "0xa94f5374fce5edbc8e2a8697c15331677e6ebf0b"
                    }
                ],
                "uncleHeaders": [],
                "rlp": "0xf902c0f901f6a0d6a7973b4af85b4833a77160b1e0a39fa492799891e1c7ea351a61b78c3ef2b7a01dcc4de8dec75d7aab85b567b6ccd41ad312451b948a7413f0a142fd40d49347942adc25665018aa1fe0e6bc666dac8fc2697ff9baa0f6bbc543ba274d164de3f9f97abc1bdda0c69d27fab17fcba7a23f7766037c93a074c8dbafb3153f0a6b769794480a8a6bf606ff377d3a982c9dfd53c3fef46257a08b4f32f32048eaa6765d528072e45bf93d9e9249274e288751f875b664cbd718b9010000000000000000000000000000000000000000000000000000000000000000000000000000000000000000000000000000000000000000000000000000000000000000000000000000000000000000000000000000000000000000000000000000000000000000000000000000000000000000000000000000000000000000000000000000000000000000000000000000000000000000000000000000000000000000000000000000000000000000000000000000000000000000000000000000000000000000000000000000000000000000000000000000000000000000000000000000000000000000000000000000000000000000000000000000000000830200000284044aa200827b0d1880a00000000000000000000000000000000000000000000000000000000000000000880000000000000000f8c4f860010a830186a0946295ee1b4f6dd65047762f924ecd367c17eabf8f80801ba01a68e6227c5905893e84f7da3d1a3a2bbaebefcd83092196acbfba8ef11c2103a008931a1ce69128d49fd2524640bd1a94fe01a712b6604625727d5e46af69cb08f860020a830186a0946295ee1b4f6dd65047762f924ecd367c17eabf8f80801ba07d45f6d4be6cee11f9289fb7b6797c7bf1022ff5f41e87b83d1fb95698e1dcbea03ce0cecbe5bb9265cc3860d8271fb10823dd5c1a59db9cb2644a28d2ed22acacc0",
                "blocknumber": "2"
            }
        ],
        "sealEngine": "NoProof",
        "_info": {
            "hash": "0x81479665d0e9741f2a223247ce39d928964745d11ea8d05f74ce38f57c5ce5be",
            "comment": "`execution-spec-tests` generated test",
            "filling-transition-tool": "ethereum-spec-evm-resolver 0.0.5",
            "description": "Test that when two transactions attempt to destruct a contract,\n    the second transaction actually resurrects the contract as an empty account (prior to Spurious\n    Dragon).",
            "url": "https://github.com/ethereum/execution-spec-tests/tree/v4.5.0/tests/frontier/opcodes/test_selfdestruct.py#L9",
            "fixture-format": "blockchain_test",
            "eels-resolution": {
                "git-url": "https://github.com/ethereum/execution-specs.git",
                "branch": "master",
                "commit": "fa847a0e48309debee8edc510ceddb2fd5db2f2e"
            }
        }
    }
}