{
    "tests/homestead/yul/test_yul_example.py::test_yul[fork_Berlin-state_test]": {
        "env": {
            "currentCoinbase": "0x2adc25665018aa1fe0e6bc666dac8fc2697ff9ba",
            "currentGasLimit": "0x044aa200",
            "currentNumber": "0x01",
            "currentTimestamp": "0x03e8",
            "currentDifficulty": "0x020000"
        },
        "pre": {
            "0x0000000000000000000000000000000000001000": {
                "nonce": "0x01",
                "balance": "0x0ba1a9ce0ba1a9ce",
                "code": "0x6009600260016012565b60005560206000f35b019056",
                "storage": {}
            },
            "0xa94f5374fce5edbc8e2a8697c15331677e6ebf0b": {
                "nonce": "0x00",
                "balance": "0x0ba1a9ce0ba1a9ce",
                "code": "0x",
                "storage": {}
            }
        },
        "transaction": {
            "nonce": "0x00",
            "gasPrice": "0x0a",
            "gasLimit": [
                "0x07a120"
            ],
            "to": "0x0000000000000000000000000000000000001000",
            "value": [
                "0x00"
            ],
            "data": [
                "0x"
            ],
            "sender": "0xa94f5374fce5edbc8e2a8697c15331677e6ebf0b",
            "secretKey": "0x45a915e4d060149eb4365960e6a7a45f334393093061116b197e3240065ff2d8"
        },
        "post": {
            "Berlin": [
                {
                    "hash": "0x6b782b3826b53ae2e8ebea3585648c75e87459fb70a3ad0ad58025e867c9e86c",
                    "logs": "0x1dcc4de8dec75d7aab85b567b6ccd41ad312451b948a7413f0a142fd40d49347",
                    "txbytes": "0xf85f800a8307a120940000000000000000000000000000000000001000808026a00141be98af88ea73fa99d7dcda246716f1ffb823e2a37ce07796aa32c39f1a0e9f2235efef08f9ca13c3ea4b4f2bc22810b5d3d8d570945dba45024e456c1a71",
                    "indexes": {
                        "data": 0,
                        "gas": 0,
                        "value": 0
                    },
                    "state": {
                        "0x0000000000000000000000000000000000001000": {
                            "nonce": "0x01",
                            "balance": "0x0ba1a9ce0ba1a9ce",
                            "code": "0x6009600260016012565b60005560206000f35b019056",
                            "storage": {
                                "0x00": "0x03"
                            }
                        },
                        "0xa94f5374fce5edbc8e2a8697c15331677e6ebf0b": {
                            "nonce": "0x01",
                            "balance": "0x0ba1a9ce0b9b1456",
                            "code": "0x",
                            "storage": {}
                        },
                        "0x2adc25665018aa1fe0e6bc666dac8fc2697ff9ba": {
                            "nonce": "0x00",
                            "balance": "0x069578",
                            "code": "0x",
                            "storage": {}
                        }
                    }
                }
            ]
        },
        "config": {
            "chainid": "0x01"
        },
        "_info": {
            "hash": "0x07db224de7845bbd79d94cf5f279dcef4c6136a477d2828e9fe55e193bb9ec1a",
            "comment": "`execution-spec-tests` generated test",
            "filling-transition-tool": "ethereum-spec-evm-resolver 0.0.5",
            "description": "Test YUL compiled bytecode.",
            "url": "https://github.com/ethereum/execution-spec-tests/tree/v4.5.0/tests/homestead/yul/test_yul_example.py#L16",
            "fixture-format": "state_test",
            "eels-resolution": {
                "git-url": "https://github.com/ethereum/execution-specs.git",
                "branch": "master",
                "commit": "fa847a0e48309debee8edc510ceddb2fd5db2f2e"
            }
        }
    },
    "tests/homestead/yul/test_yul_example.py::test_yul[fork_Byzantium-state_test]": {
        "env": {
            "currentCoinbase": "0x2adc25665018aa1fe0e6bc666dac8fc2697ff9ba",
            "currentGasLimit": "0x044aa200",
            "currentNumber": "0x01",
            "currentTimestamp": "0x03e8",
            "currentDifficulty": "0x020000"
        },
        "pre": {
            "0x0000000000000000000000000000000000001000": {
                "nonce": "0x01",
                "balance": "0x0ba1a9ce0ba1a9ce",
                "code": "0x6009600260016012565b60005560206000f35b019056",
                "storage": {}
            },
            "0xa94f5374fce5edbc8e2a8697c15331677e6ebf0b": {
                "nonce": "0x00",
                "balance": "0x0ba1a9ce0ba1a9ce",
                "code": "0x",
                "storage": {}
            }
        },
        "transaction": {
            "nonce": "0x00",
            "gasPrice": "0x0a",
            "gasLimit": [
                "0x07a120"
            ],
            "to": "0x0000000000000000000000000000000000001000",
            "value": [
                "0x00"
            ],
            "data": [
                "0x"
            ],
            "sender": "0xa94f5374fce5edbc8e2a8697c15331677e6ebf0b",
            "secretKey": "0x45a915e4d060149eb4365960e6a7a45f334393093061116b197e3240065ff2d8"
        },
        "post": {
            "Byzantium": [
                {
                    "hash": "0x7dc61640680eaa1caf8d8f7458872c370a6c31cec9983d5b8a591c3a89b58cfb",
                    "logs": "0x1dcc4de8dec75d7aab85b567b6ccd41ad312451b948a7413f0a142fd40d49347",
                    "txbytes": "0xf85f800a8307a120940000000000000000000000000000000000001000808026a00141be98af88ea73fa99d7dcda246716f1ffb823e2a37ce07796aa32c39f1a0e9f2235efef08f9ca13c3ea4b4f2bc22810b5d3d8d570945dba45024e456c1a71",
                    "indexes": {
                        "data": 0,
                        "gas": 0,
                        "value": 0
                    },
                    "state": {
                        "0x0000000000000000000000000000000000001000": {
                            "nonce": "0x01",
                            "balance": "0x0ba1a9ce0ba1a9ce",
                            "code": "0x6009600260016012565b60005560206000f35b019056",
                            "storage": {
                                "0x00": "0x03"
                            }
                        },
                        "0xa94f5374fce5edbc8e2a8697c15331677e6ebf0b": {
                            "nonce": "0x01",
                            "balance": "0x0ba1a9ce0b9b665e",
                            "code": "0x",
                            "storage": {}
                        },
                        "0x2adc25665018aa1fe0e6bc666dac8fc2697ff9ba": {
                            "nonce": "0x00",
                            "balance": "0x064370",
                            "code": "0x",
                            "storage": {}
                        }
                    }
                }
            ]
        },
        "config": {
            "chainid": "0x01"
        },
        "_info": {
            "hash": "0x6bf91b7a5a0e73513a9571dbcf18c3836e740f6b1ca74f3febbe7d85306e8ce1",
            "comment": "`execution-spec-tests` generated test",
            "filling-transition-tool": "ethereum-spec-evm-resolver 0.0.5",
            "description": "Test YUL compiled bytecode.",
            "url": "https://github.com/ethereum/execution-spec-tests/tree/v4.5.0/tests/homestead/yul/test_yul_example.py#L16",
            "fixture-format": "state_test",
            "eels-resolution": {
                "git-url": "https://github.com/ethereum/execution-specs.git",
                "branch": "master",
                "commit": "fa847a0e48309debee8edc510ceddb2fd5db2f2e"
            }
        }
    },
    "tests/homestead/yul/test_yul_example.py::test_yul[fork_Cancun-state_test]": {
        "env": {
            "currentCoinbase": "0x2adc25665018aa1fe0e6bc666dac8fc2697ff9ba",
            "currentGasLimit": "0x044aa200",
            "currentNumber": "0x01",
            "currentTimestamp": "0x03e8",
            "currentRandom": "0x0000000000000000000000000000000000000000000000000000000000000000",
            "currentDifficulty": "0x00",
            "currentBaseFee": "0x07",
            "currentExcessBlobGas": "0x00"
        },
        "pre": {
            "0x0000000000000000000000000000000000001000": {
                "nonce": "0x01",
                "balance": "0x0ba1a9ce0ba1a9ce",
                "code": "0x6009600260016010565b5f5560205ff35b019056",
                "storage": {}
            },
            "0xa94f5374fce5edbc8e2a8697c15331677e6ebf0b": {
                "nonce": "0x00",
                "balance": "0x0ba1a9ce0ba1a9ce",
                "code": "0x",
                "storage": {}
            }
        },
        "transaction": {
            "nonce": "0x00",
            "gasPrice": "0x0a",
            "gasLimit": [
                "0x07a120"
            ],
            "to": "0x0000000000000000000000000000000000001000",
            "value": [
                "0x00"
            ],
            "data": [
                "0x"
            ],
            "sender": "0xa94f5374fce5edbc8e2a8697c15331677e6ebf0b",
            "secretKey": "0x45a915e4d060149eb4365960e6a7a45f334393093061116b197e3240065ff2d8"
        },
        "post": {
            "Cancun": [
                {
                    "hash": "0xb56915796a9b7a9b1c40d2cf7b8b7e6c25098ab3aafd76d6cd6edabb7d74e083",
                    "logs": "0x1dcc4de8dec75d7aab85b567b6ccd41ad312451b948a7413f0a142fd40d49347",
                    "txbytes": "0xf85f800a8307a120940000000000000000000000000000000000001000808026a00141be98af88ea73fa99d7dcda246716f1ffb823e2a37ce07796aa32c39f1a0e9f2235efef08f9ca13c3ea4b4f2bc22810b5d3d8d570945dba45024e456c1a71",
                    "indexes": {
                        "data": 0,
                        "gas": 0,
                        "value": 0
                    },
                    "state": {
                        "0x0000000000000000000000000000000000001000": {
                            "nonce": "0x01",
                            "balance": "0x0ba1a9ce0ba1a9ce",
                            "code": "0x6009600260016010565b5f5560205ff35b019056",
                            "storage": {
                                "0x00": "0x03"
                            }
                        },
                        "0xa94f5374fce5edbc8e2a8697c15331677e6ebf0b": {
                            "nonce": "0x01",
                            "balance": "0x0ba1a9ce0b9b146a",
                            "code": "0x",
                            "storage": {}
                        },
                        "0x2adc25665018aa1fe0e6bc666dac8fc2697ff9ba": {
                            "nonce": "0x00",
                            "balance": "0x01f99e",
                            "code": "0x",
                            "storage": {}
                        }
                    }
                }
            ]
        },
        "config": {
            "blobSchedule": {
                "Cancun": {
                    "target": "0x03",
                    "max": "0x06",
                    "baseFeeUpdateFraction": "0x32f0ed"
                }
            },
            "chainid": "0x01"
        },
        "_info": {
            "hash": "0x9e9ce85fd887a4c69df404af350a643799a069a0a209d38470327230fb78d1a0",
            "comment": "`execution-spec-tests` generated test",
            "filling-transition-tool": "ethereum-spec-evm-resolver 0.0.5",
            "description": "Test YUL compiled bytecode.",
            "url": "https://github.com/ethereum/execution-spec-tests/tree/v4.5.0/tests/homestead/yul/test_yul_example.py#L16",
            "fixture-format": "state_test",
            "eels-resolution": {
                "git-url": "https://github.com/ethereum/execution-specs.git",
                "branch": "master",
                "commit": "fa847a0e48309debee8edc510ceddb2fd5db2f2e"
            }
        }
    },
    "tests/homestead/yul/test_yul_example.py::test_yul[fork_ConstantinopleFix-state_test]": {
        "env": {
            "currentCoinbase": "0x2adc25665018aa1fe0e6bc666dac8fc2697ff9ba",
            "currentGasLimit": "0x044aa200",
            "currentNumber": "0x01",
            "currentTimestamp": "0x03e8",
            "currentDifficulty": "0x020000"
        },
        "pre": {
            "0x0000000000000000000000000000000000001000": {
                "nonce": "0x01",
                "balance": "0x0ba1a9ce0ba1a9ce",
                "code": "0x6009600260016012565b60005560206000f35b019056",
                "storage": {}
            },
            "0xa94f5374fce5edbc8e2a8697c15331677e6ebf0b": {
                "nonce": "0x00",
                "balance": "0x0ba1a9ce0ba1a9ce",
                "code": "0x",
                "storage": {}
            }
        },
        "transaction": {
            "nonce": "0x00",
            "gasPrice": "0x0a",
            "gasLimit": [
                "0x07a120"
            ],
            "to": "0x0000000000000000000000000000000000001000",
            "value": [
                "0x00"
            ],
            "data": [
                "0x"
            ],
            "sender": "0xa94f5374fce5edbc8e2a8697c15331677e6ebf0b",
            "secretKey": "0x45a915e4d060149eb4365960e6a7a45f334393093061116b197e3240065ff2d8"
        },
        "post": {
            "ConstantinopleFix": [
                {
                    "hash": "0x7dc61640680eaa1caf8d8f7458872c370a6c31cec9983d5b8a591c3a89b58cfb",
                    "logs": "0x1dcc4de8dec75d7aab85b567b6ccd41ad312451b948a7413f0a142fd40d49347",
                    "txbytes": "0xf85f800a8307a120940000000000000000000000000000000000001000808026a00141be98af88ea73fa99d7dcda246716f1ffb823e2a37ce07796aa32c39f1a0e9f2235efef08f9ca13c3ea4b4f2bc22810b5d3d8d570945dba45024e456c1a71",
                    "indexes": {
                        "data": 0,
                        "gas": 0,
                        "value": 0
                    },
                    "state": {
                        "0x0000000000000000000000000000000000001000": {
                            "nonce": "0x01",
                            "balance": "0x0ba1a9ce0ba1a9ce",
                            "code": "0x6009600260016012565b60005560206000f35b019056",
                            "storage": {
                                "0x00": "0x03"
                            }
                        },
                        "0xa94f5374fce5edbc8e2a8697c15331677e6ebf0b": {
                            "nonce": "0x01",
                            "balance": "0x0ba1a9ce0b9b665e",
                            "code": "0x",
                            "storage": {}
                        },
                        "0x2adc25665018aa1fe0e6bc666dac8fc2697ff9ba": {
                            "nonce": "0x00",
                            "balance": "0x064370",
                            "code": "0x",
                            "storage": {}
                        }
                    }
                }
            ]
        },
        "config": {
            "chainid": "0x01"
        },
        "_info": {
            "hash": "0xf17e713fa0e2615d688f93b88ed98ceb02c9d6d52c95e9f6341ce087978837f8",
            "comment": "`execution-spec-tests` generated test",
            "filling-transition-tool": "ethereum-spec-evm-resolver 0.0.5",
            "description": "Test YUL compiled bytecode.",
            "url": "https://github.com/ethereum/execution-spec-tests/tree/v4.5.0/tests/homestead/yul/test_yul_example.py#L16",
            "fixture-format": "state_test",
            "eels-resolution": {
                "git-url": "https://github.com/ethereum/execution-specs.git",
                "branch": "master",
                "commit": "fa847a0e48309debee8edc510ceddb2fd5db2f2e"
            }
        }
    },
    "tests/homestead/yul/test_yul_example.py::test_yul[fork_Homestead-state_test]": {
        "env": {
            "currentCoinbase": "0x2adc25665018aa1fe0e6bc666dac8fc2697ff9ba",
            "currentGasLimit": "0x044aa200",
            "currentNumber": "0x01",
            "currentTimestamp": "0x03e8",
            "currentDifficulty": "0x020000"
        },
        "pre": {
            "0x0000000000000000000000000000000000001000": {
                "nonce": "0x01",
                "balance": "0x0ba1a9ce0ba1a9ce",
                "code": "0x6009600260016012565b60005560206000f35b600082820190509291505056",
                "storage": {}
            },
            "0xa94f5374fce5edbc8e2a8697c15331677e6ebf0b": {
                "nonce": "0x00",
                "balance": "0x0ba1a9ce0ba1a9ce",
                "code": "0x",
                "storage": {}
            }
        },
        "transaction": {
            "nonce": "0x00",
            "gasPrice": "0x0a",
            "gasLimit": [
                "0x07a120"
            ],
            "to": "0x0000000000000000000000000000000000001000",
            "value": [
                "0x00"
            ],
            "data": [
                "0x"
            ],
            "sender": "0xa94f5374fce5edbc8e2a8697c15331677e6ebf0b",
            "secretKey": "0x45a915e4d060149eb4365960e6a7a45f334393093061116b197e3240065ff2d8"
        },
        "post": {
            "Homestead": [
                {
                    "hash": "0x154f5935a676cbe98229394ce886e15212312de9a32076027fd4b77e79ad3d18",
                    "logs": "0x1dcc4de8dec75d7aab85b567b6ccd41ad312451b948a7413f0a142fd40d49347",
                    "txbytes": "0xf860800a8307a12094000000000000000000000000000000000000100080801ca08852a15dfcce4d37ed08c9dd99a42dc48d8d24a2ca16b97a2305fb9ee8dd14a7a07702c68e6921f2d1b530f1a66e373214355fb828f90ebbfb0fa9312d57cd9c52",
                    "indexes": {
                        "data": 0,
                        "gas": 0,
                        "value": 0
                    },
                    "state": {
                        "0x0000000000000000000000000000000000001000": {
                            "nonce": "0x01",
                            "balance": "0x0ba1a9ce0ba1a9ce",
                            "code": "0x6009600260016012565b60005560206000f35b600082820190509291505056",
                            "storage": {
                                "0x00": "0x03"
                            }
                        },
                        "0xa94f5374fce5edbc8e2a8697c15331677e6ebf0b": {
                            "nonce": "0x01",
                            "balance": "0x0ba1a9ce0b9b658c",
                            "code": "0x",
                            "storage": {}
                        },
                        "0x2adc25665018aa1fe0e6bc666dac8fc2697ff9ba": {
                            "nonce": "0x00",
                            "balance": "0x064442",
                            "code": "0x",
                            "storage": {}
                        }
                    }
                }
            ]
        },
        "config": {
            "chainid": "0x01"
        },
        "_info": {
            "hash": "0xadad19c0c0dae233d54be0a0ddc89c77323c792b672537ce62de84aa08e7045c",
            "comment": "`execution-spec-tests` generated test",
            "filling-transition-tool": "ethereum-spec-evm-resolver 0.0.5",
            "description": "Test YUL compiled bytecode.",
            "url": "https://github.com/ethereum/execution-spec-tests/tree/v4.5.0/tests/homestead/yul/test_yul_example.py#L16",
            "fixture-format": "state_test",
            "eels-resolution": {
                "git-url": "https://github.com/ethereum/execution-specs.git",
                "branch": "master",
                "commit": "fa847a0e48309debee8edc510ceddb2fd5db2f2e"
            }
        }
    },
    "tests/homestead/yul/test_yul_example.py::test_yul[fork_Istanbul-state_test]": {
        "env": {
            "currentCoinbase": "0x2adc25665018aa1fe0e6bc666dac8fc2697ff9ba",
            "currentGasLimit": "0x044aa200",
            "currentNumber": "0x01",
            "currentTimestamp": "0x03e8",
            "currentDifficulty": "0x020000"
        },
        "pre": {
            "0x0000000000000000000000000000000000001000": {
                "nonce": "0x01",
                "balance": "0x0ba1a9ce0ba1a9ce",
                "code": "0x6009600260016012565b60005560206000f35b019056",
                "storage": {}
            },
            "0xa94f5374fce5edbc8e2a8697c15331677e6ebf0b": {
                "nonce": "0x00",
                "balance": "0x0ba1a9ce0ba1a9ce",
                "code": "0x",
                "storage": {}
            }
        },
        "transaction": {
            "nonce": "0x00",
            "gasPrice": "0x0a",
            "gasLimit": [
                "0x07a120"
            ],
            "to": "0x0000000000000000000000000000000000001000",
            "value": [
                "0x00"
            ],
            "data": [
                "0x"
            ],
            "sender": "0xa94f5374fce5edbc8e2a8697c15331677e6ebf0b",
            "secretKey": "0x45a915e4d060149eb4365960e6a7a45f334393093061116b197e3240065ff2d8"
        },
        "post": {
            "Istanbul": [
                {
                    "hash": "0x7dc61640680eaa1caf8d8f7458872c370a6c31cec9983d5b8a591c3a89b58cfb",
                    "logs": "0x1dcc4de8dec75d7aab85b567b6ccd41ad312451b948a7413f0a142fd40d49347",
                    "txbytes": "0xf85f800a8307a120940000000000000000000000000000000000001000808026a00141be98af88ea73fa99d7dcda246716f1ffb823e2a37ce07796aa32c39f1a0e9f2235efef08f9ca13c3ea4b4f2bc22810b5d3d8d570945dba45024e456c1a71",
                    "indexes": {
                        "data": 0,
                        "gas": 0,
                        "value": 0
                    },
                    "state": {
                        "0x0000000000000000000000000000000000001000": {
                            "nonce": "0x01",
                            "balance": "0x0ba1a9ce0ba1a9ce",
                            "code": "0x6009600260016012565b60005560206000f35b019056",
                            "storage": {
                                "0x00": "0x03"
                            }
                        },
                        "0xa94f5374fce5edbc8e2a8697c15331677e6ebf0b": {
                            "nonce": "0x01",
                            "balance": "0x0ba1a9ce0b9b665e",
                            "code": "0x",
                            "storage": {}
                        },
                        "0x2adc25665018aa1fe0e6bc666dac8fc2697ff9ba": {
                            "nonce": "0x00",
                            "balance": "0x064370",
                            "code": "0x",
                            "storage": {}
                        }
                    }
                }
            ]
        },
        "config": {
            "chainid": "0x01"
        },
        "_info": {
            "hash": "0xde75ed8bf2d0a3a6bd21490e8e0aa4e28a43fc2b9fd59053b7a4276cff928da2",
            "comment": "`execution-spec-tests` generated test",
            "filling-transition-tool": "ethereum-spec-evm-resolver 0.0.5",
            "description": "Test YUL compiled bytecode.",
            "url": "https://github.com/ethereum/execution-spec-tests/tree/v4.5.0/tests/homestead/yul/test_yul_example.py#L16",
            "fixture-format": "state_test",
            "eels-resolution": {
                "git-url": "https://github.com/ethereum/execution-specs.git",
                "branch": "master",
                "commit": "fa847a0e48309debee8edc510ceddb2fd5db2f2e"
            }
        }
    },
    "tests/homestead/yul/test_yul_example.py::test_yul[fork_London-state_test]": {
        "env": {
            "currentCoinbase": "0x2adc25665018aa1fe0e6bc666dac8fc2697ff9ba",
            "currentGasLimit": "0x044aa200",
            "currentNumber": "0x01",
            "currentTimestamp": "0x03e8",
            "currentDifficulty": "0x020000",
            "currentBaseFee": "0x07"
        },
        "pre": {
            "0x0000000000000000000000000000000000001000": {
                "nonce": "0x01",
                "balance": "0x0ba1a9ce0ba1a9ce",
                "code": "0x6009600260016012565b60005560206000f35b019056",
                "storage": {}
            },
            "0xa94f5374fce5edbc8e2a8697c15331677e6ebf0b": {
                "nonce": "0x00",
                "balance": "0x0ba1a9ce0ba1a9ce",
                "code": "0x",
                "storage": {}
            }
        },
        "transaction": {
            "nonce": "0x00",
            "gasPrice": "0x0a",
            "gasLimit": [
                "0x07a120"
            ],
            "to": "0x0000000000000000000000000000000000001000",
            "value": [
                "0x00"
            ],
            "data": [
                "0x"
            ],
            "sender": "0xa94f5374fce5edbc8e2a8697c15331677e6ebf0b",
            "secretKey": "0x45a915e4d060149eb4365960e6a7a45f334393093061116b197e3240065ff2d8"
        },
        "post": {
            "London": [
                {
                    "hash": "0xad2805e2bebbce8cc20207e2cefc20e4bc9e080bae569b734b3177db925b5e4f",
                    "logs": "0x1dcc4de8dec75d7aab85b567b6ccd41ad312451b948a7413f0a142fd40d49347",
                    "txbytes": "0xf85f800a8307a120940000000000000000000000000000000000001000808026a00141be98af88ea73fa99d7dcda246716f1ffb823e2a37ce07796aa32c39f1a0e9f2235efef08f9ca13c3ea4b4f2bc22810b5d3d8d570945dba45024e456c1a71",
                    "indexes": {
                        "data": 0,
                        "gas": 0,
                        "value": 0
                    },
                    "state": {
                        "0x0000000000000000000000000000000000001000": {
                            "nonce": "0x01",
                            "balance": "0x0ba1a9ce0ba1a9ce",
                            "code": "0x6009600260016012565b60005560206000f35b019056",
                            "storage": {
                                "0x00": "0x03"
                            }
                        },
                        "0xa94f5374fce5edbc8e2a8697c15331677e6ebf0b": {
                            "nonce": "0x01",
                            "balance": "0x0ba1a9ce0b9b1456",
                            "code": "0x",
                            "storage": {}
                        },
                        "0x2adc25665018aa1fe0e6bc666dac8fc2697ff9ba": {
                            "nonce": "0x00",
                            "balance": "0x01f9a4",
                            "code": "0x",
                            "storage": {}
                        }
                    }
                }
            ]
        },
        "config": {
            "chainid": "0x01"
        },
        "_info": {
            "hash": "0x0e68f8346d1f559e6e95f72eb4c53e793821b211393034049a51ba332897a34f",
            "comment": "`execution-spec-tests` generated test",
            "filling-transition-tool": "ethereum-spec-evm-resolver 0.0.5",
            "description": "Test YUL compiled bytecode.",
            "url": "https://github.com/ethereum/execution-spec-tests/tree/v4.5.0/tests/homestead/yul/test_yul_example.py#L16",
            "fixture-format": "state_test",
            "eels-resolution": {
                "git-url": "https://github.com/ethereum/execution-specs.git",
                "branch": "master",
                "commit": "fa847a0e48309debee8edc510ceddb2fd5db2f2e"
            }
        }
    },
    "tests/homestead/yul/test_yul_example.py::test_yul[fork_Paris-state_test]": {
        "env": {
            "currentCoinbase": "0x2adc25665018aa1fe0e6bc666dac8fc2697ff9ba",
            "currentGasLimit": "0x044aa200",
            "currentNumber": "0x01",
            "currentTimestamp": "0x03e8",
            "currentRandom": "0x0000000000000000000000000000000000000000000000000000000000000000",
            "currentDifficulty": "0x00",
            "currentBaseFee": "0x07"
        },
        "pre": {
            "0x0000000000000000000000000000000000001000": {
                "nonce": "0x01",
                "balance": "0x0ba1a9ce0ba1a9ce",
                "code": "0x6009600260016012565b60005560206000f35b019056",
                "storage": {}
            },
            "0xa94f5374fce5edbc8e2a8697c15331677e6ebf0b": {
                "nonce": "0x00",
                "balance": "0x0ba1a9ce0ba1a9ce",
                "code": "0x",
                "storage": {}
            }
        },
        "transaction": {
            "nonce": "0x00",
            "gasPrice": "0x0a",
            "gasLimit": [
                "0x07a120"
            ],
            "to": "0x0000000000000000000000000000000000001000",
            "value": [
                "0x00"
            ],
            "data": [
                "0x"
            ],
            "sender": "0xa94f5374fce5edbc8e2a8697c15331677e6ebf0b",
            "secretKey": "0x45a915e4d060149eb4365960e6a7a45f334393093061116b197e3240065ff2d8"
        },
        "post": {
            "Paris": [
                {
                    "hash": "0xad2805e2bebbce8cc20207e2cefc20e4bc9e080bae569b734b3177db925b5e4f",
                    "logs": "0x1dcc4de8dec75d7aab85b567b6ccd41ad312451b948a7413f0a142fd40d49347",
                    "txbytes": "0xf85f800a8307a120940000000000000000000000000000000000001000808026a00141be98af88ea73fa99d7dcda246716f1ffb823e2a37ce07796aa32c39f1a0e9f2235efef08f9ca13c3ea4b4f2bc22810b5d3d8d570945dba45024e456c1a71",
                    "indexes": {
                        "data": 0,
                        "gas": 0,
                        "value": 0
                    },
                    "state": {
                        "0x0000000000000000000000000000000000001000": {
                            "nonce": "0x01",
                            "balance": "0x0ba1a9ce0ba1a9ce",
                            "code": "0x6009600260016012565b60005560206000f35b019056",
                            "storage": {
                                "0x00": "0x03"
                            }
                        },
                        "0xa94f5374fce5edbc8e2a8697c15331677e6ebf0b": {
                            "nonce": "0x01",
                            "balance": "0x0ba1a9ce0b9b1456",
                            "code": "0x",
                            "storage": {}
                        },
                        "0x2adc25665018aa1fe0e6bc666dac8fc2697ff9ba": {
                            "nonce": "0x00",
                            "balance": "0x01f9a4",
                            "code": "0x",
                            "storage": {}
                        }
                    }
                }
            ]
        },
        "config": {
            "chainid": "0x01"
        },
        "_info": {
            "hash": "0xd10702d4f8a5a4eca913acd578dd0b54a8167baf3247198d71a8c7b848ae875e",
            "comment": "`execution-spec-tests` generated test",
            "filling-transition-tool": "ethereum-spec-evm-resolver 0.0.5",
            "description": "Test YUL compiled bytecode.",
            "url": "https://github.com/ethereum/execution-spec-tests/tree/v4.5.0/tests/homestead/yul/test_yul_example.py#L16",
            "fixture-format": "state_test",
            "eels-resolution": {
                "git-url": "https://github.com/ethereum/execution-specs.git",
                "branch": "master",
                "commit": "fa847a0e48309debee8edc510ceddb2fd5db2f2e"
            }
        }
    },
    "tests/homestead/yul/test_yul_example.py::test_yul[fork_Shanghai-state_test]": {
        "env": {
            "currentCoinbase": "0x2adc25665018aa1fe0e6bc666dac8fc2697ff9ba",
            "currentGasLimit": "0x044aa200",
            "currentNumber": "0x01",
            "currentTimestamp": "0x03e8",
            "currentRandom": "0x0000000000000000000000000000000000000000000000000000000000000000",
            "currentDifficulty": "0x00",
            "currentBaseFee": "0x07"
        },
        "pre": {
            "0x0000000000000000000000000000000000001000": {
                "nonce": "0x01",
                "balance": "0x0ba1a9ce0ba1a9ce",
                "code": "0x6009600260016010565b5f5560205ff35b019056",
                "storage": {}
            },
            "0xa94f5374fce5edbc8e2a8697c15331677e6ebf0b": {
                "nonce": "0x00",
                "balance": "0x0ba1a9ce0ba1a9ce",
                "code": "0x",
                "storage": {}
            }
        },
        "transaction": {
            "nonce": "0x00",
            "gasPrice": "0x0a",
            "gasLimit": [
                "0x07a120"
            ],
            "to": "0x0000000000000000000000000000000000001000",
            "value": [
                "0x00"
            ],
            "data": [
                "0x"
            ],
            "sender": "0xa94f5374fce5edbc8e2a8697c15331677e6ebf0b",
            "secretKey": "0x45a915e4d060149eb4365960e6a7a45f334393093061116b197e3240065ff2d8"
        },
        "post": {
            "Shanghai": [
                {
                    "hash": "0xb56915796a9b7a9b1c40d2cf7b8b7e6c25098ab3aafd76d6cd6edabb7d74e083",
                    "logs": "0x1dcc4de8dec75d7aab85b567b6ccd41ad312451b948a7413f0a142fd40d49347",
                    "txbytes": "0xf85f800a8307a120940000000000000000000000000000000000001000808026a00141be98af88ea73fa99d7dcda246716f1ffb823e2a37ce07796aa32c39f1a0e9f2235efef08f9ca13c3ea4b4f2bc22810b5d3d8d570945dba45024e456c1a71",
                    "indexes": {
                        "data": 0,
                        "gas": 0,
                        "value": 0
                    },
                    "state": {
                        "0x0000000000000000000000000000000000001000": {
                            "nonce": "0x01",
                            "balance": "0x0ba1a9ce0ba1a9ce",
                            "code": "0x6009600260016010565b5f5560205ff35b019056",
                            "storage": {
                                "0x00": "0x03"
                            }
                        },
                        "0xa94f5374fce5edbc8e2a8697c15331677e6ebf0b": {
                            "nonce": "0x01",
                            "balance": "0x0ba1a9ce0b9b146a",
                            "code": "0x",
                            "storage": {}
                        },
                        "0x2adc25665018aa1fe0e6bc666dac8fc2697ff9ba": {
                            "nonce": "0x00",
                            "balance": "0x01f99e",
                            "code": "0x",
                            "storage": {}
                        }
                    }
                }
            ]
        },
        "config": {
            "chainid": "0x01"
        },
        "_info": {
            "hash": "0xc2921f3aabb245cdfd2c4f1242f61468904b6feb9bc7d95072b06ef4f4a498ed",
            "comment": "`execution-spec-tests` generated test",
            "filling-transition-tool": "ethereum-spec-evm-resolver 0.0.5",
            "description": "Test YUL compiled bytecode.",
            "url": "https://github.com/ethereum/execution-spec-tests/tree/v4.5.0/tests/homestead/yul/test_yul_example.py#L16",
            "fixture-format": "state_test",
            "eels-resolution": {
                "git-url": "https://github.com/ethereum/execution-specs.git",
                "branch": "master",
                "commit": "fa847a0e48309debee8edc510ceddb2fd5db2f2e"
            }
        }
    }
}