{
    "tests/berlin/eip2930_access_list/test_acl.py::test_access_list[fork_Cancun-blockchain_test_engine_from_state_test]": {
        "network": "Cancun",
        "genesisBlockHeader": {
            "parentHash": "0x0000000000000000000000000000000000000000000000000000000000000000",
            "uncleHash": "0x1dcc4de8dec75d7aab85b567b6ccd41ad312451b948a7413f0a142fd40d49347",
            "coinbase": "0x0000000000000000000000000000000000000000",
            "stateRoot": "0x1ede9eb5af545cf8f2d9c35b3b3d69187a1a2bdb1ad7ede3dc5e50e58c86321b",
            "transactionsTrie": "0x56e81f171bcc55a6ff8345e692c0f86e5b48e01b996cadc001622fb5e363b421",
            "receiptTrie": "0x56e81f171bcc55a6ff8345e692c0f86e5b48e01b996cadc001622fb5e363b421",
            "bloom": "0x00000000000000000000000000000000000000000000000000000000000000000000000000000000000000000000000000000000000000000000000000000000000000000000000000000000000000000000000000000000000000000000000000000000000000000000000000000000000000000000000000000000000000000000000000000000000000000000000000000000000000000000000000000000000000000000000000000000000000000000000000000000000000000000000000000000000000000000000000000000000000000000000000000000000000000000000000000000000000000000000000000000000000000000000000000000",
            "difficulty": "0x00",
            "number": "0x00",
            "gasLimit": "0x044aa200",
            "gasUsed": "0x00",
            "timestamp": "0x00",
            "extraData": "0x00",
            "mixHash": "0x0000000000000000000000000000000000000000000000000000000000000000",
            "nonce": "0x0000000000000000",
            "baseFeePerGas": "0x07",
            "withdrawalsRoot": "0x56e81f171bcc55a6ff8345e692c0f86e5b48e01b996cadc001622fb5e363b421",
            "blobGasUsed": "0x00",
            "excessBlobGas": "0x00",
            "parentBeaconBlockRoot": "0x0000000000000000000000000000000000000000000000000000000000000000",
            "hash": "0x345774c3b5c83fdb5fecedb9be1adfb0027de5e87ea6c13babb41cf73fd50f40"
        },
        "pre": {
            "0x000f3df6d732807ef1319fb7b8bb8522d0beac02": {
                "nonce": "0x01",
                "balance": "0x00",
                "code": "0x3373fffffffffffffffffffffffffffffffffffffffe14604d57602036146024575f5ffd5b5f35801560495762001fff810690815414603c575f5ffd5b62001fff01545f5260205ff35b5f5ffd5b62001fff42064281555f359062001fff015500",
                "storage": {}
            },
            "0x0000000000000000000000000000000000001000": {
                "nonce": "0x01",
                "balance": "0x03",
                "code": "0x5854505854",
                "storage": {}
            },
            "0xa94f5374fce5edbc8e2a8697c15331677e6ebf0b": {
                "nonce": "0x00",
                "balance": "0x300000",
                "code": "0x",
                "storage": {}
            }
        },
        "postState": {
            "0x000f3df6d732807ef1319fb7b8bb8522d0beac02": {
                "nonce": "0x01",
                "balance": "0x00",
                "code": "0x3373fffffffffffffffffffffffffffffffffffffffe14604d57602036146024575f5ffd5b5f35801560495762001fff810690815414603c575f5ffd5b62001fff01545f5260205ff35b5f5ffd5b62001fff42064281555f359062001fff015500",
                "storage": {
                    "0x03e8": "0x03e8"
                }
            },
            "0x0000000000000000000000000000000000001000": {
                "nonce": "0x01",
                "balance": "0x04",
                "code": "0x5854505854",
                "storage": {}
            },
            "0xa94f5374fce5edbc8e2a8697c15331677e6ebf0b": {
                "nonce": "0x01",
                "balance": "0x2cd931",
                "code": "0x",
                "storage": {}
            }
        },
        "lastblockhash": "0x4b833272aa3b79f2456566ef51de70d25f83762c683eaad67c50e9fef6c25061",
        "config": {
            "network": "Cancun",
            "chainid": "0x01",
            "blobSchedule": {
                "Cancun": {
                    "target": "0x03",
                    "max": "0x06",
                    "baseFeeUpdateFraction": "0x32f0ed"
                }
            }
        },
        "engineNewPayloads": [
            {
                "params": [
                    {
                        "parentHash": "0x345774c3b5c83fdb5fecedb9be1adfb0027de5e87ea6c13babb41cf73fd50f40",
                        "feeRecipient": "0x2adc25665018aa1fe0e6bc666dac8fc2697ff9ba",
                        "stateRoot": "0x328c81e36d8172f6661c2047a931225f227b9136af144eeb3b1045110c04199c",
                        "receiptsRoot": "0xc166d1f62ef90bdef78d79a4b28579b279621fbcd156aba3060f242d5feeda67",
                        "logsBloom": "0x00000000000000000000000000000000000000000000000000000000000000000000000000000000000000000000000000000000000000000000000000000000000000000000000000000000000000000000000000000000000000000000000000000000000000000000000000000000000000000000000000000000000000000000000000000000000000000000000000000000000000000000000000000000000000000000000000000000000000000000000000000000000000000000000000000000000000000000000000000000000000000000000000000000000000000000000000000000000000000000000000000000000000000000000000000000",
                        "blockNumber": "0x1",
                        "gasLimit": "0x44aa200",
                        "gasUsed": "0x7342",
                        "timestamp": "0x3e8",
                        "extraData": "0x00",
                        "prevRandao": "0x0000000000000000000000000000000000000000000000000000000000000000",
                        "baseFeePerGas": "0x7",
                        "blobGasUsed": "0x0",
                        "excessBlobGas": "0x0",
                        "blockHash": "0x4b833272aa3b79f2456566ef51de70d25f83762c683eaad67c50e9fef6c25061",
                        "transactions": [
                            "0x01f89b0180078304ef009400000000000000000000000000000000000010000180f838f7940000000000000000000000000000000000000000e1a0000000000000000000000000000000000000000000000000000000000000000080a081a25ffdb3797e6428f854c642e1884ee7b7be0c4ccbb7e989b70039b87e4450a02d25e40f45271d5f77735d06550dff43bf328190de034157cefec446855513d6"
                        ],
                        "withdrawals": []
                    },
                    [],
                    "0x0000000000000000000000000000000000000000000000000000000000000000"
                ],
                "newPayloadVersion": "3",
                "forkchoiceUpdatedVersion": "3"
            }
        ],
        "_info": {
            "hash": "0x738eb426db4725162807559e83124ca9c6c2cc933ac60c578583c895f3316add",
            "comment": "`execution-spec-tests` generated test",
            "filling-transition-tool": "ethereum-spec-evm-resolver 0.0.5",
            "description": "Test type 1 transaction.",
            "url": "https://github.com/ethereum/execution-spec-tests/tree/v4.5.0/tests/berlin/eip2930_access_list/test_acl.py#L19",
            "fixture-format": "blockchain_test_engine",
            "reference-spec": "https://github.com/ethereum/EIPs/blob/master/EIPS/eip-2930.md",
            "reference-spec-version": "c9db53a936c5c9cbe2db32ba0d1b86c4c6e73534",
            "eels-resolution": {
                "git-url": "https://github.com/ethereum/execution-specs.git",
                "branch": "master",
                "commit": "fa847a0e48309debee8edc510ceddb2fd5db2f2e"
            }
        }
    },
    "tests/berlin/eip2930_access_list/test_acl.py::test_access_list[fork_Paris-blockchain_test_engine_from_state_test]": {
        "network": "Paris",
        "genesisBlockHeader": {
            "parentHash": "0x0000000000000000000000000000000000000000000000000000000000000000",
            "uncleHash": "0x1dcc4de8dec75d7aab85b567b6ccd41ad312451b948a7413f0a142fd40d49347",
            "coinbase": "0x0000000000000000000000000000000000000000",
            "stateRoot": "0xdcddfa4aea2ba8d951face17b28ca6e2daff3f94996ea0c6d606b168be11e1e3",
            "transactionsTrie": "0x56e81f171bcc55a6ff8345e692c0f86e5b48e01b996cadc001622fb5e363b421",
            "receiptTrie": "0x56e81f171bcc55a6ff8345e692c0f86e5b48e01b996cadc001622fb5e363b421",
            "bloom": "0x00000000000000000000000000000000000000000000000000000000000000000000000000000000000000000000000000000000000000000000000000000000000000000000000000000000000000000000000000000000000000000000000000000000000000000000000000000000000000000000000000000000000000000000000000000000000000000000000000000000000000000000000000000000000000000000000000000000000000000000000000000000000000000000000000000000000000000000000000000000000000000000000000000000000000000000000000000000000000000000000000000000000000000000000000000000",
            "difficulty": "0x00",
            "number": "0x00",
            "gasLimit": "0x044aa200",
            "gasUsed": "0x00",
            "timestamp": "0x00",
            "extraData": "0x00",
            "mixHash": "0x0000000000000000000000000000000000000000000000000000000000000000",
            "nonce": "0x0000000000000000",
            "baseFeePerGas": "0x07",
            "hash": "0x84229dc344d0a468e3f36adda005385f4b175a5652e4197dede1092d66b85820"
        },
        "pre": {
            "0x0000000000000000000000000000000000001000": {
                "nonce": "0x01",
                "balance": "0x03",
                "code": "0x5854505854",
                "storage": {}
            },
            "0xa94f5374fce5edbc8e2a8697c15331677e6ebf0b": {
                "nonce": "0x00",
                "balance": "0x300000",
                "code": "0x",
                "storage": {}
            }
        },
        "postState": {
            "0x0000000000000000000000000000000000001000": {
                "nonce": "0x01",
                "balance": "0x04",
                "code": "0x5854505854",
                "storage": {}
            },
            "0xa94f5374fce5edbc8e2a8697c15331677e6ebf0b": {
                "nonce": "0x01",
                "balance": "0x2cd931",
                "code": "0x",
                "storage": {}
            }
        },
        "lastblockhash": "0x3acc0e3b30f31382c2754cbf1cf2ac80bdbd6f46a8ecc962709cfc972d0254ab",
        "config": {
            "network": "Paris",
            "chainid": "0x01"
        },
        "engineNewPayloads": [
            {
                "params": [
                    {
                        "parentHash": "0x84229dc344d0a468e3f36adda005385f4b175a5652e4197dede1092d66b85820",
                        "feeRecipient": "0x2adc25665018aa1fe0e6bc666dac8fc2697ff9ba",
                        "stateRoot": "0xbba7329a789fb21eec852df40d72d9cdfdc51c993c77183b610e962210c819f6",
                        "receiptsRoot": "0xc166d1f62ef90bdef78d79a4b28579b279621fbcd156aba3060f242d5feeda67",
                        "logsBloom": "0x00000000000000000000000000000000000000000000000000000000000000000000000000000000000000000000000000000000000000000000000000000000000000000000000000000000000000000000000000000000000000000000000000000000000000000000000000000000000000000000000000000000000000000000000000000000000000000000000000000000000000000000000000000000000000000000000000000000000000000000000000000000000000000000000000000000000000000000000000000000000000000000000000000000000000000000000000000000000000000000000000000000000000000000000000000000",
                        "blockNumber": "0x1",
                        "gasLimit": "0x44aa200",
                        "gasUsed": "0x7342",
                        "timestamp": "0x3e8",
                        "extraData": "0x00",
                        "prevRandao": "0x0000000000000000000000000000000000000000000000000000000000000000",
                        "baseFeePerGas": "0x7",
                        "blockHash": "0x3acc0e3b30f31382c2754cbf1cf2ac80bdbd6f46a8ecc962709cfc972d0254ab",
                        "transactions": [
                            "0x01f89b0180078304ef009400000000000000000000000000000000000010000180f838f7940000000000000000000000000000000000000000e1a0000000000000000000000000000000000000000000000000000000000000000080a081a25ffdb3797e6428f854c642e1884ee7b7be0c4ccbb7e989b70039b87e4450a02d25e40f45271d5f77735d06550dff43bf328190de034157cefec446855513d6"
                        ]
                    }
                ],
                "newPayloadVersion": "1",
                "forkchoiceUpdatedVersion": "1"
            }
        ],
        "_info": {
            "hash": "0x38563b3d69811436aad241fe4efe4e719826174374157a515ec66b39c67c3ad5",
            "comment": "`execution-spec-tests` generated test",
            "filling-transition-tool": "ethereum-spec-evm-resolver 0.0.5",
            "description": "Test type 1 transaction.",
            "url": "https://github.com/ethereum/execution-spec-tests/tree/v4.5.0/tests/berlin/eip2930_access_list/test_acl.py#L19",
            "fixture-format": "blockchain_test_engine",
            "reference-spec": "https://github.com/ethereum/EIPs/blob/master/EIPS/eip-2930.md",
            "reference-spec-version": "c9db53a936c5c9cbe2db32ba0d1b86c4c6e73534",
            "eels-resolution": {
                "git-url": "https://github.com/ethereum/execution-specs.git",
                "branch": "master",
                "commit": "fa847a0e48309debee8edc510ceddb2fd5db2f2e"
            }
        }
    },
    "tests/berlin/eip2930_access_list/test_acl.py::test_access_list[fork_Shanghai-blockchain_test_engine_from_state_test]": {
        "network": "Shanghai",
        "genesisBlockHeader": {
            "parentHash": "0x0000000000000000000000000000000000000000000000000000000000000000",
            "uncleHash": "0x1dcc4de8dec75d7aab85b567b6ccd41ad312451b948a7413f0a142fd40d49347",
            "coinbase": "0x0000000000000000000000000000000000000000",
            "stateRoot": "0xdcddfa4aea2ba8d951face17b28ca6e2daff3f94996ea0c6d606b168be11e1e3",
            "transactionsTrie": "0x56e81f171bcc55a6ff8345e692c0f86e5b48e01b996cadc001622fb5e363b421",
            "receiptTrie": "0x56e81f171bcc55a6ff8345e692c0f86e5b48e01b996cadc001622fb5e363b421",
            "bloom": "0x00000000000000000000000000000000000000000000000000000000000000000000000000000000000000000000000000000000000000000000000000000000000000000000000000000000000000000000000000000000000000000000000000000000000000000000000000000000000000000000000000000000000000000000000000000000000000000000000000000000000000000000000000000000000000000000000000000000000000000000000000000000000000000000000000000000000000000000000000000000000000000000000000000000000000000000000000000000000000000000000000000000000000000000000000000000",
            "difficulty": "0x00",
            "number": "0x00",
            "gasLimit": "0x044aa200",
            "gasUsed": "0x00",
            "timestamp": "0x00",
            "extraData": "0x00",
            "mixHash": "0x0000000000000000000000000000000000000000000000000000000000000000",
            "nonce": "0x0000000000000000",
            "baseFeePerGas": "0x07",
            "withdrawalsRoot": "0x56e81f171bcc55a6ff8345e692c0f86e5b48e01b996cadc001622fb5e363b421",
            "hash": "0x21d1cf0fcd1f19bfc3dff8bb42054477d71f1656d0fcf9e2f5a98f4aecc5003e"
        },
        "pre": {
            "0x0000000000000000000000000000000000001000": {
                "nonce": "0x01",
                "balance": "0x03",
                "code": "0x5854505854",
                "storage": {}
            },
            "0xa94f5374fce5edbc8e2a8697c15331677e6ebf0b": {
                "nonce": "0x00",
                "balance": "0x300000",
                "code": "0x",
                "storage": {}
            }
        },
        "postState": {
            "0x0000000000000000000000000000000000001000": {
                "nonce": "0x01",
                "balance": "0x04",
                "code": "0x5854505854",
                "storage": {}
            },
            "0xa94f5374fce5edbc8e2a8697c15331677e6ebf0b": {
                "nonce": "0x01",
                "balance": "0x2cd931",
                "code": "0x",
                "storage": {}
            }
        },
        "lastblockhash": "0x34e2f48e566286589c5ba5970fdea1d096e137a6212beb15e74adc94854ac0bf",
        "config": {
            "network": "Shanghai",
            "chainid": "0x01"
        },
        "engineNewPayloads": [
            {
                "params": [
                    {
                        "parentHash": "0x21d1cf0fcd1f19bfc3dff8bb42054477d71f1656d0fcf9e2f5a98f4aecc5003e",
                        "feeRecipient": "0x2adc25665018aa1fe0e6bc666dac8fc2697ff9ba",
                        "stateRoot": "0xbba7329a789fb21eec852df40d72d9cdfdc51c993c77183b610e962210c819f6",
                        "receiptsRoot": "0xc166d1f62ef90bdef78d79a4b28579b279621fbcd156aba3060f242d5feeda67",
                        "logsBloom": "0x00000000000000000000000000000000000000000000000000000000000000000000000000000000000000000000000000000000000000000000000000000000000000000000000000000000000000000000000000000000000000000000000000000000000000000000000000000000000000000000000000000000000000000000000000000000000000000000000000000000000000000000000000000000000000000000000000000000000000000000000000000000000000000000000000000000000000000000000000000000000000000000000000000000000000000000000000000000000000000000000000000000000000000000000000000000",
                        "blockNumber": "0x1",
                        "gasLimit": "0x44aa200",
                        "gasUsed": "0x7342",
                        "timestamp": "0x3e8",
                        "extraData": "0x00",
                        "prevRandao": "0x0000000000000000000000000000000000000000000000000000000000000000",
                        "baseFeePerGas": "0x7",
                        "blockHash": "0x34e2f48e566286589c5ba5970fdea1d096e137a6212beb15e74adc94854ac0bf",
                        "transactions": [
                            "0x01f89b0180078304ef009400000000000000000000000000000000000010000180f838f7940000000000000000000000000000000000000000e1a0000000000000000000000000000000000000000000000000000000000000000080a081a25ffdb3797e6428f854c642e1884ee7b7be0c4ccbb7e989b70039b87e4450a02d25e40f45271d5f77735d06550dff43bf328190de034157cefec446855513d6"
                        ],
                        "withdrawals": []
                    }
                ],
                "newPayloadVersion": "2",
                "forkchoiceUpdatedVersion": "2"
            }
        ],
        "_info": {
            "hash": "0xd92d468bcdbedf806bf8e3423b84cbd49782ceba7bb4f1cfdc113d09a5bc8d12",
            "comment": "`execution-spec-tests` generated test",
            "filling-transition-tool": "ethereum-spec-evm-resolver 0.0.5",
            "description": "Test type 1 transaction.",
            "url": "https://github.com/ethereum/execution-spec-tests/tree/v4.5.0/tests/berlin/eip2930_access_list/test_acl.py#L19",
            "fixture-format": "blockchain_test_engine",
            "reference-spec": "https://github.com/ethereum/EIPs/blob/master/EIPS/eip-2930.md",
            "reference-spec-version": "c9db53a936c5c9cbe2db32ba0d1b86c4c6e73534",
            "eels-resolution": {
                "git-url": "https://github.com/ethereum/execution-specs.git",
                "branch": "master",
                "commit": "fa847a0e48309debee8edc510ceddb2fd5db2f2e"
            }
        }
    }
}