{
    "tests/cancun/eip4844_blobs/test_blob_txs.py::test_blob_tx_attribute_opcodes[fork_Cancun-blockchain_test_from_state_test-tx_gas_500000-opcode_CALLER]": {
        "network": "Cancun",
        "genesisBlockHeader": {
            "parentHash": "0x0000000000000000000000000000000000000000000000000000000000000000",
            "uncleHash": "0x1dcc4de8dec75d7aab85b567b6ccd41ad312451b948a7413f0a142fd40d49347",
            "coinbase": "0x0000000000000000000000000000000000000000",
            "stateRoot": "0x19c36d785d7d027599ef34acdd61f87789ca466d5545c5e1d6df814543c1b8cc",
            "transactionsTrie": "0x56e81f171bcc55a6ff8345e692c0f86e5b48e01b996cadc001622fb5e363b421",
            "receiptTrie": "0x56e81f171bcc55a6ff8345e692c0f86e5b48e01b996cadc001622fb5e363b421",
            "bloom": "0x00000000000000000000000000000000000000000000000000000000000000000000000000000000000000000000000000000000000000000000000000000000000000000000000000000000000000000000000000000000000000000000000000000000000000000000000000000000000000000000000000000000000000000000000000000000000000000000000000000000000000000000000000000000000000000000000000000000000000000000000000000000000000000000000000000000000000000000000000000000000000000000000000000000000000000000000000000000000000000000000000000000000000000000000000000000",
            "difficulty": "0x00",
            "number": "0x00",
            "gasLimit": "0x044aa200",
            "gasUsed": "0x00",
            "timestamp": "0x00",
            "extraData": "0x00",
            "mixHash": "0x0000000000000000000000000000000000000000000000000000000000000000",
            "nonce": "0x0000000000000000",
            "baseFeePerGas": "0x07",
            "withdrawalsRoot": "0x56e81f171bcc55a6ff8345e692c0f86e5b48e01b996cadc001622fb5e363b421",
            "blobGasUsed": "0x00",
            "excessBlobGas": "0x140000",
            "parentBeaconBlockRoot": "0x0000000000000000000000000000000000000000000000000000000000000000",
            "hash": "0x020ca7e2685d5f0a5467699f30f872e17f300a99b423a5472ce72e57875ea5b0"
        },
        "pre": {
            "0x000f3df6d732807ef1319fb7b8bb8522d0beac02": {
                "nonce": "0x01",
                "balance": "0x00",
                "code": "0x3373fffffffffffffffffffffffffffffffffffffffe14604d57602036146024575f5ffd5b5f35801560495762001fff810690815414603c575f5ffd5b62001fff01545f5260205ff35b5f5ffd5b62001fff42064281555f359062001fff015500",
                "storage": {}
            },
            "0xa94f5374fce5edbc8e2a8697c15331677e6ebf0b": {
                "nonce": "0x00",
                "balance": "0x3767e1",
                "code": "0x",
                "storage": {}
            },
            "0x0000000000000000000000000000000000001000": {
                "nonce": "0x01",
                "balance": "0x00",
                "code": "0x33600055",
                "storage": {}
            }
        },
        "postState": {
            "0x000f3df6d732807ef1319fb7b8bb8522d0beac02": {
                "nonce": "0x01",
                "balance": "0x00",
                "code": "0x3373fffffffffffffffffffffffffffffffffffffffe14604d57602036146024575f5ffd5b5f35801560495762001fff810690815414603c575f5ffd5b62001fff01545f5260205ff35b5f5ffd5b62001fff42064281555f359062001fff015500",
                "storage": {
                    "0x03e8": "0x03e8"
                }
            },
            "0xa94f5374fce5edbc8e2a8697c15331677e6ebf0b": {
                "nonce": "0x01",
                "balance": "0x30cd39",
                "code": "0x",
                "storage": {}
            },
            "0x0000000000000000000000000000000000001000": {
                "nonce": "0x01",
                "balance": "0x01",
                "code": "0x33600055",
                "storage": {
                    "0x00": "0xa94f5374fce5edbc8e2a8697c15331677e6ebf0b"
                }
            }
        },
        "lastblockhash": "0x13bc7d2da3f0a4d80c09a13b6e69a8fd816fefc72282edd5b4c539de95ab0033",
        "config": {
            "network": "Cancun",
            "chainid": "0x01",
            "blobSchedule": {
                "Cancun": {
                    "target": "0x03",
                    "max": "0x06",
                    "baseFeeUpdateFraction": "0x32f0ed"
                }
            }
        },
        "genesisRLP": "0xf9023ff90239a00000000000000000000000000000000000000000000000000000000000000000a01dcc4de8dec75d7aab85b567b6ccd41ad312451b948a7413f0a142fd40d49347940000000000000000000000000000000000000000a019c36d785d7d027599ef34acdd61f87789ca466d5545c5e1d6df814543c1b8cca056e81f171bcc55a6ff8345e692c0f86e5b48e01b996cadc001622fb5e363b421a056e81f171bcc55a6ff8345e692c0f86e5b48e01b996cadc001622fb5e363b421b9010000000000000000000000000000000000000000000000000000000000000000000000000000000000000000000000000000000000000000000000000000000000000000000000000000000000000000000000000000000000000000000000000000000000000000000000000000000000000000000000000000000000000000000000000000000000000000000000000000000000000000000000000000000000000000000000000000000000000000000000000000000000000000000000000000000000000000000000000000000000000000000000000000000000000000000000000000000000000000000000000000000000000000000000000000000000808084044aa200808000a0000000000000000000000000000000000000000000000000000000000000000088000000000000000007a056e81f171bcc55a6ff8345e692c0f86e5b48e01b996cadc001622fb5e363b4218083140000a00000000000000000000000000000000000000000000000000000000000000000c0c0c0",
        "blocks": [
            {
                "blockHeader": {
                    "parentHash": "0x020ca7e2685d5f0a5467699f30f872e17f300a99b423a5472ce72e57875ea5b0",
                    "uncleHash": "0x1dcc4de8dec75d7aab85b567b6ccd41ad312451b948a7413f0a142fd40d49347",
                    "coinbase": "0x2adc25665018aa1fe0e6bc666dac8fc2697ff9ba",
                    "stateRoot": "0x94f794046e33ffcad3369bfa81ba2c0f2040dd2103117e7b0d250596fe43f2b0",
                    "transactionsTrie": "0x061aa667d8bf3e36a83aef3829a1bffc5a89e2be7bc6e7c1116c24a30ba77eea",
                    "receiptTrie": "0xc117ad0158b04d4277c8a0d1b440360bf3f011ad7caccf8740df472c96e8f5cc",
                    "bloom": "0x00000000000000000000000000000000000000000000000000000000000000000000000000000000000000000000000000000000000000000000000000000000000000000000000000000000000000000000000000000000000000000000000000000000000000000000000000000000000000000000000000000000000000000000000000000000000000000000000000000000000000000000000000000000000000000000000000000000000000000000000000000000000000000000000000000000000000000000000000000000000000000000000000000000000000000000000000000000000000000000000000000000000000000000000000000000",
                    "difficulty": "0x00",
                    "number": "0x01",
                    "gasLimit": "0x044aa200",
                    "gasUsed": "0xa861",
                    "timestamp": "0x03e8",
                    "extraData": "0x00",
                    "mixHash": "0x0000000000000000000000000000000000000000000000000000000000000000",
                    "nonce": "0x0000000000000000",
                    "baseFeePerGas": "0x07",
                    "withdrawalsRoot": "0x56e81f171bcc55a6ff8345e692c0f86e5b48e01b996cadc001622fb5e363b421",
                    "blobGasUsed": "0x020000",
                    "excessBlobGas": "0x0e0000",
                    "parentBeaconBlockRoot": "0x0000000000000000000000000000000000000000000000000000000000000000",
                    "hash": "0x13bc7d2da3f0a4d80c09a13b6e69a8fd816fefc72282edd5b4c539de95ab0033"
                },
                "transactions": [
                    {
                        "type": "0x03",
                        "chainId": "0x01",
                        "nonce": "0x00",
                        "maxPriorityFeePerGas": "0x00",
                        "maxFeePerGas": "0x07",
                        "gasLimit": "0x07a120",
                        "to": "0x0000000000000000000000000000000000001000",
                        "value": "0x01",
                        "data": "0x",
                        "accessList": [],
                        "maxFeePerBlobGas": "0x01",
                        "blobVersionedHashes": [
                            "0x0100000000000000000000000000000000000000000000000000000000000000"
                        ],
                        "v": "0x01",
                        "r": "0x5d260164f6c88b0679ed6f202155cac9cb5172df71ea31f31e0167b726b6f117",
                        "s": "0x4f08a2e56842fe684e36ef8a173d2f80dc98d98699ad1531a8ab09936b01d678",
                        "sender": "0xa94f5374fce5edbc8e2a8697c15331677e6ebf0b"
                    }
                ],
                "uncleHeaders": [],
                "withdrawals": [],
                "rlp": "0xf902d2f90240a0020ca7e2685d5f0a5467699f30f872e17f300a99b423a5472ce72e57875ea5b0a01dcc4de8dec75d7aab85b567b6ccd41ad312451b948a7413f0a142fd40d49347942adc25665018aa1fe0e6bc666dac8fc2697ff9baa094f794046e33ffcad3369bfa81ba2c0f2040dd2103117e7b0d250596fe43f2b0a0061aa667d8bf3e36a83aef3829a1bffc5a89e2be7bc6e7c1116c24a30ba77eeaa0c117ad0158b04d4277c8a0d1b440360bf3f011ad7caccf8740df472c96e8f5ccb9010000000000000000000000000000000000000000000000000000000000000000000000000000000000000000000000000000000000000000000000000000000000000000000000000000000000000000000000000000000000000000000000000000000000000000000000000000000000000000000000000000000000000000000000000000000000000000000000000000000000000000000000000000000000000000000000000000000000000000000000000000000000000000000000000000000000000000000000000000000000000000000000000000000000000000000000000000000000000000000000000000000000000000000000000000000000800184044aa20082a8618203e800a0000000000000000000000000000000000000000000000000000000000000000088000000000000000007a056e81f171bcc55a6ff8345e692c0f86e5b48e01b996cadc001622fb5e363b42183020000830e0000a00000000000000000000000000000000000000000000000000000000000000000f88bb88903f886018080078307a1209400000000000000000000000000000000000010000180c001e1a0010000000000000000000000000000000000000000000000000000000000000001a05d260164f6c88b0679ed6f202155cac9cb5172df71ea31f31e0167b726b6f117a04f08a2e56842fe684e36ef8a173d2f80dc98d98699ad1531a8ab09936b01d678c0c0",
                "blocknumber": "1"
            }
        ],
        "sealEngine": "NoProof",
        "_info": {
            "hash": "0x691f0128135ba23dd11292ee6992d766d5cf2eb55efa6595ef51289d0dab0319",
            "comment": "`execution-spec-tests` generated test",
            "filling-transition-tool": "ethereum-spec-evm-resolver 0.0.5",
            "description": "Test opcodes that read transaction attributes work properly for blob type transactions.\n\n    - ORIGIN\n    - CALLER",
            "url": "https://github.com/ethereum/execution-spec-tests/tree/v4.5.0/tests/cancun/eip4844_blobs/test_blob_txs.py#L1113",
            "fixture-format": "blockchain_test",
            "reference-spec": "https://github.com/ethereum/EIPs/blob/master/EIPS/eip-4844.md",
            "reference-spec-version": "de2e4a46ad93fc04e6fe3174dc6e90a3307bdb5f",
            "eels-resolution": {
                "git-url": "https://github.com/ethereum/execution-specs.git",
                "branch": "master",
                "commit": "fa847a0e48309debee8edc510ceddb2fd5db2f2e"
            }
        }
    },
    "tests/cancun/eip4844_blobs/test_blob_txs.py::test_blob_tx_attribute_opcodes[fork_Cancun-blockchain_test_from_state_test-tx_gas_500000-opcode_ORIGIN]": {
        "network": "Cancun",
        "genesisBlockHeader": {
            "parentHash": "0x0000000000000000000000000000000000000000000000000000000000000000",
            "uncleHash": "0x1dcc4de8dec75d7aab85b567b6ccd41ad312451b948a7413f0a142fd40d49347",
            "coinbase": "0x0000000000000000000000000000000000000000",
            "stateRoot": "0x550dd637b91f126f1d1a7457054693e82f01dfb8fed064e6bf2fe5427dcc48cb",
            "transactionsTrie": "0x56e81f171bcc55a6ff8345e692c0f86e5b48e01b996cadc001622fb5e363b421",
            "receiptTrie": "0x56e81f171bcc55a6ff8345e692c0f86e5b48e01b996cadc001622fb5e363b421",
            "bloom": "0x00000000000000000000000000000000000000000000000000000000000000000000000000000000000000000000000000000000000000000000000000000000000000000000000000000000000000000000000000000000000000000000000000000000000000000000000000000000000000000000000000000000000000000000000000000000000000000000000000000000000000000000000000000000000000000000000000000000000000000000000000000000000000000000000000000000000000000000000000000000000000000000000000000000000000000000000000000000000000000000000000000000000000000000000000000000",
            "difficulty": "0x00",
            "number": "0x00",
            "gasLimit": "0x044aa200",
            "gasUsed": "0x00",
            "timestamp": "0x00",
            "extraData": "0x00",
            "mixHash": "0x0000000000000000000000000000000000000000000000000000000000000000",
            "nonce": "0x0000000000000000",
            "baseFeePerGas": "0x07",
            "withdrawalsRoot": "0x56e81f171bcc55a6ff8345e692c0f86e5b48e01b996cadc001622fb5e363b421",
            "blobGasUsed": "0x00",
            "excessBlobGas": "0x140000",
            "parentBeaconBlockRoot": "0x0000000000000000000000000000000000000000000000000000000000000000",
            "hash": "0x32f07344194ecc02ea85eb021bcb56954f4846041126a3ae3e0d04eb80fcd5ab"
        },
        "pre": {
            "0x000f3df6d732807ef1319fb7b8bb8522d0beac02": {
                "nonce": "0x01",
                "balance": "0x00",
                "code": "0x3373fffffffffffffffffffffffffffffffffffffffe14604d57602036146024575f5ffd5b5f35801560495762001fff810690815414603c575f5ffd5b62001fff01545f5260205ff35b5f5ffd5b62001fff42064281555f359062001fff015500",
                "storage": {}
            },
            "0xa94f5374fce5edbc8e2a8697c15331677e6ebf0b": {
                "nonce": "0x00",
                "balance": "0x3767e1",
                "code": "0x",
                "storage": {}
            },
            "0x0000000000000000000000000000000000001000": {
                "nonce": "0x01",
                "balance": "0x00",
                "code": "0x32600055",
                "storage": {}
            }
        },
        "postState": {
            "0x000f3df6d732807ef1319fb7b8bb8522d0beac02": {
                "nonce": "0x01",
                "balance": "0x00",
                "code": "0x3373fffffffffffffffffffffffffffffffffffffffe14604d57602036146024575f5ffd5b5f35801560495762001fff810690815414603c575f5ffd5b62001fff01545f5260205ff35b5f5ffd5b62001fff42064281555f359062001fff015500",
                "storage": {
                    "0x03e8": "0x03e8"
                }
            },
            "0xa94f5374fce5edbc8e2a8697c15331677e6ebf0b": {
                "nonce": "0x01",
                "balance": "0x30cd39",
                "code": "0x",
                "storage": {}
            },
            "0x0000000000000000000000000000000000001000": {
                "nonce": "0x01",
                "balance": "0x01",
                "code": "0x32600055",
                "storage": {
                    "0x00": "0xa94f5374fce5edbc8e2a8697c15331677e6ebf0b"
                }
            }
        },
        "lastblockhash": "0xaeac1a8c311b92de964492a74f3ad8927ab16eb576546a16cdee1a15afc61986",
        "config": {
            "network": "Cancun",
            "chainid": "0x01",
            "blobSchedule": {
                "Cancun": {
                    "target": "0x03",
                    "max": "0x06",
                    "baseFeeUpdateFraction": "0x32f0ed"
                }
            }
        },
        "genesisRLP": "0xf9023ff90239a00000000000000000000000000000000000000000000000000000000000000000a01dcc4de8dec75d7aab85b567b6ccd41ad312451b948a7413f0a142fd40d49347940000000000000000000000000000000000000000a0550dd637b91f126f1d1a7457054693e82f01dfb8fed064e6bf2fe5427dcc48cba056e81f171bcc55a6ff8345e692c0f86e5b48e01b996cadc001622fb5e363b421a056e81f171bcc55a6ff8345e692c0f86e5b48e01b996cadc001622fb5e363b421b9010000000000000000000000000000000000000000000000000000000000000000000000000000000000000000000000000000000000000000000000000000000000000000000000000000000000000000000000000000000000000000000000000000000000000000000000000000000000000000000000000000000000000000000000000000000000000000000000000000000000000000000000000000000000000000000000000000000000000000000000000000000000000000000000000000000000000000000000000000000000000000000000000000000000000000000000000000000000000000000000000000000000000000000000000000000000808084044aa200808000a0000000000000000000000000000000000000000000000000000000000000000088000000000000000007a056e81f171bcc55a6ff8345e692c0f86e5b48e01b996cadc001622fb5e363b4218083140000a00000000000000000000000000000000000000000000000000000000000000000c0c0c0",
        "blocks": [
            {
                "blockHeader": {
                    "parentHash": "0x32f07344194ecc02ea85eb021bcb56954f4846041126a3ae3e0d04eb80fcd5ab",
                    "uncleHash": "0x1dcc4de8dec75d7aab85b567b6ccd41ad312451b948a7413f0a142fd40d49347",
                    "coinbase": "0x2adc25665018aa1fe0e6bc666dac8fc2697ff9ba",
                    "stateRoot": "0xabdec04df6806deadd9bdc2f09c45eeee087fbd942fe65b80e00c4b282073a17",
                    "transactionsTrie": "0x061aa667d8bf3e36a83aef3829a1bffc5a89e2be7bc6e7c1116c24a30ba77eea",
                    "receiptTrie": "0xc117ad0158b04d4277c8a0d1b440360bf3f011ad7caccf8740df472c96e8f5cc",
                    "bloom": "0x00000000000000000000000000000000000000000000000000000000000000000000000000000000000000000000000000000000000000000000000000000000000000000000000000000000000000000000000000000000000000000000000000000000000000000000000000000000000000000000000000000000000000000000000000000000000000000000000000000000000000000000000000000000000000000000000000000000000000000000000000000000000000000000000000000000000000000000000000000000000000000000000000000000000000000000000000000000000000000000000000000000000000000000000000000000",
                    "difficulty": "0x00",
                    "number": "0x01",
                    "gasLimit": "0x044aa200",
                    "gasUsed": "0xa861",
                    "timestamp": "0x03e8",
                    "extraData": "0x00",
                    "mixHash": "0x0000000000000000000000000000000000000000000000000000000000000000",
                    "nonce": "0x0000000000000000",
                    "baseFeePerGas": "0x07",
                    "withdrawalsRoot": "0x56e81f171bcc55a6ff8345e692c0f86e5b48e01b996cadc001622fb5e363b421",
                    "blobGasUsed": "0x020000",
                    "excessBlobGas": "0x0e0000",
                    "parentBeaconBlockRoot": "0x0000000000000000000000000000000000000000000000000000000000000000",
                    "hash": "0xaeac1a8c311b92de964492a74f3ad8927ab16eb576546a16cdee1a15afc61986"
                },
                "transactions": [
                    {
                        "type": "0x03",
                        "chainId": "0x01",
                        "nonce": "0x00",
                        "maxPriorityFeePerGas": "0x00",
                        "maxFeePerGas": "0x07",
                        "gasLimit": "0x07a120",
                        "to": "0x0000000000000000000000000000000000001000",
                        "value": "0x01",
                        "data": "0x",
                        "accessList": [],
                        "maxFeePerBlobGas": "0x01",
                        "blobVersionedHashes": [
                            "0x0100000000000000000000000000000000000000000000000000000000000000"
                        ],
                        "v": "0x01",
                        "r": "0x5d260164f6c88b0679ed6f202155cac9cb5172df71ea31f31e0167b726b6f117",
                        "s": "0x4f08a2e56842fe684e36ef8a173d2f80dc98d98699ad1531a8ab09936b01d678",
                        "sender": "0xa94f5374fce5edbc8e2a8697c15331677e6ebf0b"
                    }
                ],
                "uncleHeaders": [],
                "withdrawals": [],
                "rlp": "0xf902d2f90240a032f07344194ecc02ea85eb021bcb56954f4846041126a3ae3e0d04eb80fcd5aba01dcc4de8dec75d7aab85b567b6ccd41ad312451b948a7413f0a142fd40d49347942adc25665018aa1fe0e6bc666dac8fc2697ff9baa0abdec04df6806deadd9bdc2f09c45eeee087fbd942fe65b80e00c4b282073a17a0061aa667d8bf3e36a83aef3829a1bffc5a89e2be7bc6e7c1116c24a30ba77eeaa0c117ad0158b04d4277c8a0d1b440360bf3f011ad7caccf8740df472c96e8f5ccb9010000000000000000000000000000000000000000000000000000000000000000000000000000000000000000000000000000000000000000000000000000000000000000000000000000000000000000000000000000000000000000000000000000000000000000000000000000000000000000000000000000000000000000000000000000000000000000000000000000000000000000000000000000000000000000000000000000000000000000000000000000000000000000000000000000000000000000000000000000000000000000000000000000000000000000000000000000000000000000000000000000000000000000000000000000000000800184044aa20082a8618203e800a0000000000000000000000000000000000000000000000000000000000000000088000000000000000007a056e81f171bcc55a6ff8345e692c0f86e5b48e01b996cadc001622fb5e363b42183020000830e0000a00000000000000000000000000000000000000000000000000000000000000000f88bb88903f886018080078307a1209400000000000000000000000000000000000010000180c001e1a0010000000000000000000000000000000000000000000000000000000000000001a05d260164f6c88b0679ed6f202155cac9cb5172df71ea31f31e0167b726b6f117a04f08a2e56842fe684e36ef8a173d2f80dc98d98699ad1531a8ab09936b01d678c0c0",
                "blocknumber": "1"
            }
        ],
        "sealEngine": "NoProof",
        "_info": {
            "hash": "0x6d6d0433201670a4b3d4055c20f8c4ff24cf697b9c6f52a2dca132d1347d65c0",
            "comment": "`execution-spec-tests` generated test",
            "filling-transition-tool": "ethereum-spec-evm-resolver 0.0.5",
            "description": "Test opcodes that read transaction attributes work properly for blob type transactions.\n\n    - ORIGIN\n    - CALLER",
            "url": "https://github.com/ethereum/execution-spec-tests/tree/v4.5.0/tests/cancun/eip4844_blobs/test_blob_txs.py#L1113",
            "fixture-format": "blockchain_test",
            "reference-spec": "https://github.com/ethereum/EIPs/blob/master/EIPS/eip-4844.md",
            "reference-spec-version": "de2e4a46ad93fc04e6fe3174dc6e90a3307bdb5f",
            "eels-resolution": {
                "git-url": "https://github.com/ethereum/execution-specs.git",
                "branch": "master",
                "commit": "fa847a0e48309debee8edc510ceddb2fd5db2f2e"
            }
        }
    }
}