{
    "tests/cancun/eip4844_blobs/test_blob_txs.py::test_invalid_tx_max_fee_per_blob_gas[fork_Cancun-insufficient_max_fee_per_blob_gas-blockchain_test-account_balance_modifier_1000000000]": {
        "network": "Cancun",
        "genesisBlockHeader": {
            "parentHash": "0x0000000000000000000000000000000000000000000000000000000000000000",
            "uncleHash": "0x1dcc4de8dec75d7aab85b567b6ccd41ad312451b948a7413f0a142fd40d49347",
            "coinbase": "0x0000000000000000000000000000000000000000",
            "stateRoot": "0x6ab7a7d10b0430f1610d4c3d1e1a572379830cb57cf551631c4ede43be870164",
            "transactionsTrie": "0x56e81f171bcc55a6ff8345e692c0f86e5b48e01b996cadc001622fb5e363b421",
            "receiptTrie": "0x56e81f171bcc55a6ff8345e692c0f86e5b48e01b996cadc001622fb5e363b421",
            "bloom": "0x00000000000000000000000000000000000000000000000000000000000000000000000000000000000000000000000000000000000000000000000000000000000000000000000000000000000000000000000000000000000000000000000000000000000000000000000000000000000000000000000000000000000000000000000000000000000000000000000000000000000000000000000000000000000000000000000000000000000000000000000000000000000000000000000000000000000000000000000000000000000000000000000000000000000000000000000000000000000000000000000000000000000000000000000000000000",
            "difficulty": "0x00",
            "number": "0x00",
            "gasLimit": "0x044aa200",
            "gasUsed": "0x00",
            "timestamp": "0x00",
            "extraData": "0x00",
            "mixHash": "0x0000000000000000000000000000000000000000000000000000000000000000",
            "nonce": "0x0000000000000000",
            "baseFeePerGas": "0x07",
            "withdrawalsRoot": "0x56e81f171bcc55a6ff8345e692c0f86e5b48e01b996cadc001622fb5e363b421",
            "blobGasUsed": "0x00",
            "excessBlobGas": "0x280000",
            "parentBeaconBlockRoot": "0x0000000000000000000000000000000000000000000000000000000000000000",
            "hash": "0xa665ef7084311a808af1d4639fe9338ac7c77b7b95c60f1a2f4ce2550ebc2301"
        },
        "pre": {
            "0x000f3df6d732807ef1319fb7b8bb8522d0beac02": {
                "nonce": "0x01",
                "balance": "0x00",
                "code": "0x3373fffffffffffffffffffffffffffffffffffffffe14604d57602036146024575f5ffd5b5f35801560495762001fff810690815414603c575f5ffd5b62001fff01545f5260205ff35b5f5ffd5b62001fff42064281555f359062001fff015500",
                "storage": {}
            },
            "0xa94f5374fce5edbc8e2a8697c15331677e6ebf0b": {
                "nonce": "0x00",
                "balance": "0x3b9f0839",
                "code": "0x",
                "storage": {}
            },
            "0x6389e7f33ce3b1e94e4325ef02829cd12297ef71": {
                "nonce": "0x00",
                "balance": "0x033b2e3c9fd0803ce8000000",
                "code": "0x",
                "storage": {}
            }
        },
        "postState": {
            "0x000f3df6d732807ef1319fb7b8bb8522d0beac02": {
                "nonce": "0x01",
                "balance": "0x00",
                "code": "0x3373fffffffffffffffffffffffffffffffffffffffe14604d57602036146024575f5ffd5b5f35801560495762001fff810690815414603c575f5ffd5b62001fff01545f5260205ff35b5f5ffd5b62001fff42064281555f359062001fff015500",
                "storage": {
                    "0x0c": "0x0c"
                }
            },
            "0xa94f5374fce5edbc8e2a8697c15331677e6ebf0b": {
                "nonce": "0x00",
                "balance": "0x3b9f0839",
                "code": "0x",
                "storage": {}
            },
            "0x6389e7f33ce3b1e94e4325ef02829cd12297ef71": {
                "nonce": "0x01",
                "balance": "0x033b2e3c9fd0803ce7f5c1c7",
                "code": "0x",
                "storage": {}
            },
            "0x78cc42dd276339ef70b322674fd5dc7ea6ea9373": {
                "nonce": "0x00",
                "balance": "0x01",
                "code": "0x",
                "storage": {}
            }
        },
        "lastblockhash": "0x549c3366b457963a74152a3688fa3c9a2154591ff34c2a9faa567ea7aa058dd7",
        "config": {
            "network": "Cancun",
            "chainid": "0x01",
            "blobSchedule": {
                "Cancun": {
                    "target": "0x03",
                    "max": "0x06",
                    "baseFeeUpdateFraction": "0x32f0ed"
                }
            }
        },
        "genesisRLP": "0xf9023ff90239a00000000000000000000000000000000000000000000000000000000000000000a01dcc4de8dec75d7aab85b567b6ccd41ad312451b948a7413f0a142fd40d49347940000000000000000000000000000000000000000a06ab7a7d10b0430f1610d4c3d1e1a572379830cb57cf551631c4ede43be870164a056e81f171bcc55a6ff8345e692c0f86e5b48e01b996cadc001622fb5e363b421a056e81f171bcc55a6ff8345e692c0f86e5b48e01b996cadc001622fb5e363b421b9010000000000000000000000000000000000000000000000000000000000000000000000000000000000000000000000000000000000000000000000000000000000000000000000000000000000000000000000000000000000000000000000000000000000000000000000000000000000000000000000000000000000000000000000000000000000000000000000000000000000000000000000000000000000000000000000000000000000000000000000000000000000000000000000000000000000000000000000000000000000000000000000000000000000000000000000000000000000000000000000000000000000000000000000000000000000808084044aa200808000a0000000000000000000000000000000000000000000000000000000000000000088000000000000000007a056e81f171bcc55a6ff8345e692c0f86e5b48e01b996cadc001622fb5e363b4218083280000a00000000000000000000000000000000000000000000000000000000000000000c0c0c0",
        "blocks": [
            {
                "blockHeader": {
                    "parentHash": "0xa665ef7084311a808af1d4639fe9338ac7c77b7b95c60f1a2f4ce2550ebc2301",
                    "uncleHash": "0x1dcc4de8dec75d7aab85b567b6ccd41ad312451b948a7413f0a142fd40d49347",
                    "coinbase": "0x2adc25665018aa1fe0e6bc666dac8fc2697ff9ba",
                    "stateRoot": "0x486e4fd82bfabd13a439b708abf28054109d6a8583c2c96ac44504a50c09abe7",
                    "transactionsTrie": "0xba2fbf66b9cae532cc4ae96941bbd596c795d1eb17edb881a8ae357b9e7602bd",
                    "receiptTrie": "0xeaa8c40899a61ae59615cf9985f5e2194f8fd2b57d273be63bde6733e89b12ab",
                    "bloom": "0x00000000000000000000000000000000000000000000000000000000000000000000000000000000000000000000000000000000000000000000000000000000000000000000000000000000000000000000000000000000000000000000000000000000000000000000000000000000000000000000000000000000000000000000000000000000000000000000000000000000000000000000000000000000000000000000000000000000000000000000000000000000000000000000000000000000000000000000000000000000000000000000000000000000000000000000000000000000000000000000000000000000000000000000000000000000",
                    "difficulty": "0x00",
                    "number": "0x01",
                    "gasLimit": "0x044aa200",
                    "gasUsed": "0x5208",
                    "timestamp": "0x0c",
                    "extraData": "0x",
                    "mixHash": "0x0000000000000000000000000000000000000000000000000000000000000000",
                    "nonce": "0x0000000000000000",
                    "baseFeePerGas": "0x07",
                    "withdrawalsRoot": "0x56e81f171bcc55a6ff8345e692c0f86e5b48e01b996cadc001622fb5e363b421",
                    "blobGasUsed": "0x080000",
                    "excessBlobGas": "0x220000",
                    "parentBeaconBlockRoot": "0x0000000000000000000000000000000000000000000000000000000000000000",
                    "hash": "0x549c3366b457963a74152a3688fa3c9a2154591ff34c2a9faa567ea7aa058dd7"
                },
                "transactions": [
                    {
                        "type": "0x03",
                        "chainId": "0x01",
                        "nonce": "0x00",
                        "maxPriorityFeePerGas": "0x00",
                        "maxFeePerGas": "0x07",
                        "gasLimit": "0x5208",
                        "to": "0x78cc42dd276339ef70b322674fd5dc7ea6ea9373",
                        "value": "0x01",
                        "data": "0x",
                        "accessList": [],
                        "maxFeePerBlobGas": "0x01",
                        "blobVersionedHashes": [
                            "0x0100000000000000000000000000000000000000000000000000000000000000",
                            "0x0100000000000000000000000000000000000000000000000000000000000001",
                            "0x0100000000000000000000000000000000000000000000000000000000000002",
                            "0x0100000000000000000000000000000000000000000000000000000000000003"
                        ],
                        "v": "0x00",
                        "r": "0x61b783e988f32ba3b37b6a95e9d19eeefe4e4ad8c029fe1fead2606ba889686d",
                        "s": "0x05da7cc2c9fa29140216460a3db6f600ac8ddc7884e34075fbdc928ce6e28162",
                        "sender": "0x6389e7f33ce3b1e94e4325ef02829cd12297ef71"
                    }
                ],
                "uncleHeaders": [],
                "withdrawals": [],
                "rlp": "0xf90333f9023ea0a665ef7084311a808af1d4639fe9338ac7c77b7b95c60f1a2f4ce2550ebc2301a01dcc4de8dec75d7aab85b567b6ccd41ad312451b948a7413f0a142fd40d49347942adc25665018aa1fe0e6bc666dac8fc2697ff9baa0486e4fd82bfabd13a439b708abf28054109d6a8583c2c96ac44504a50c09abe7a0ba2fbf66b9cae532cc4ae96941bbd596c795d1eb17edb881a8ae357b9e7602bda0eaa8c40899a61ae59615cf9985f5e2194f8fd2b57d273be63bde6733e89b12abb9010000000000000000000000000000000000000000000000000000000000000000000000000000000000000000000000000000000000000000000000000000000000000000000000000000000000000000000000000000000000000000000000000000000000000000000000000000000000000000000000000000000000000000000000000000000000000000000000000000000000000000000000000000000000000000000000000000000000000000000000000000000000000000000000000000000000000000000000000000000000000000000000000000000000000000000000000000000000000000000000000000000000000000000000000000000000800184044aa2008252080c80a0000000000000000000000000000000000000000000000000000000000000000088000000000000000007a056e81f171bcc55a6ff8345e692c0f86e5b48e01b996cadc001622fb5e363b4218308000083220000a00000000000000000000000000000000000000000000000000000000000000000f8eeb8ec03f8e9018080078252089478cc42dd276339ef70b322674fd5dc7ea6ea93730180c001f884a00100000000000000000000000000000000000000000000000000000000000000a00100000000000000000000000000000000000000000000000000000000000001a00100000000000000000000000000000000000000000000000000000000000002a0010000000000000000000000000000000000000000000000000000000000000380a061b783e988f32ba3b37b6a95e9d19eeefe4e4ad8c029fe1fead2606ba889686da005da7cc2c9fa29140216460a3db6f600ac8ddc7884e34075fbdc928ce6e28162c0c0",
                "blocknumber": "1"
            },
            {
                "rlp": "0xf902cdf9023ca0549c3366b457963a74152a3688fa3c9a2154591ff34c2a9faa567ea7aa058dd7a01dcc4de8dec75d7aab85b567b6ccd41ad312451b948a7413f0a142fd40d49347942adc25665018aa1fe0e6bc666dac8fc2697ff9baa00c17249b68b81e6091bfa75e5f3a1b1abae45748d958a8aea2ef49fa6d0e559ba02a76afdfa881146278980398e5126b0ad060e0d83c40a6bd598ea8ac1ac7c6f4a056e81f171bcc55a6ff8345e692c0f86e5b48e01b996cadc001622fb5e363b421b9010000000000000000000000000000000000000000000000000000000000000000000000000000000000000000000000000000000000000000000000000000000000000000000000000000000000000000000000000000000000000000000000000000000000000000000000000000000000000000000000000000000000000000000000000000000000000000000000000000000000000000000000000000000000000000000000000000000000000000000000000000000000000000000000000000000000000000000000000000000000000000000000000000000000000000000000000000000000000000000000000000000000000000000000000000000000800284044aa200801880a0000000000000000000000000000000000000000000000000000000000000000088000000000000000007a056e81f171bcc55a6ff8345e692c0f86e5b48e01b996cadc001622fb5e363b4218302000083240000a00000000000000000000000000000000000000000000000000000000000000000f88ab88803f88501808007825208948a0a19589531694250d570040a0c4b74576919b80180c001e1a0010000000000000000000000000000000000000000000000000000000000000001a06c120e55aeb31122c5caad29e69d28ec90abb71e089e0cdf4aebbf51bbc46a89a067983552dabf029ffb7ac58209a620d4a98eeeaf3df55bc9eb8e7684051ac70ac0c0",
                "expectException": "TransactionException.INSUFFICIENT_MAX_FEE_PER_BLOB_GAS",
                "rlp_decoded": {
                    "blockHeader": {
                        "parentHash": "0x549c3366b457963a74152a3688fa3c9a2154591ff34c2a9faa567ea7aa058dd7",
                        "uncleHash": "0x1dcc4de8dec75d7aab85b567b6ccd41ad312451b948a7413f0a142fd40d49347",
                        "coinbase": "0x2adc25665018aa1fe0e6bc666dac8fc2697ff9ba",
                        "stateRoot": "0x0c17249b68b81e6091bfa75e5f3a1b1abae45748d958a8aea2ef49fa6d0e559b",
                        "transactionsTrie": "0x2a76afdfa881146278980398e5126b0ad060e0d83c40a6bd598ea8ac1ac7c6f4",
                        "receiptTrie": "0x56e81f171bcc55a6ff8345e692c0f86e5b48e01b996cadc001622fb5e363b421",
                        "bloom": "0x00000000000000000000000000000000000000000000000000000000000000000000000000000000000000000000000000000000000000000000000000000000000000000000000000000000000000000000000000000000000000000000000000000000000000000000000000000000000000000000000000000000000000000000000000000000000000000000000000000000000000000000000000000000000000000000000000000000000000000000000000000000000000000000000000000000000000000000000000000000000000000000000000000000000000000000000000000000000000000000000000000000000000000000000000000000",
                        "difficulty": "0x00",
                        "number": "0x02",
                        "gasLimit": "0x044aa200",
                        "gasUsed": "0x00",
                        "timestamp": "0x18",
                        "extraData": "0x",
                        "mixHash": "0x0000000000000000000000000000000000000000000000000000000000000000",
                        "nonce": "0x0000000000000000",
                        "baseFeePerGas": "0x07",
                        "withdrawalsRoot": "0x56e81f171bcc55a6ff8345e692c0f86e5b48e01b996cadc001622fb5e363b421",
                        "blobGasUsed": "0x020000",
                        "excessBlobGas": "0x240000",
                        "parentBeaconBlockRoot": "0x0000000000000000000000000000000000000000000000000000000000000000",
                        "hash": "0x8b00a83d0b5cedd85554d6efcc9552ac0155f07ab83c32f34fb522b08004a34d"
                    },
                    "transactions": [
                        {
                            "type": "0x03",
                            "chainId": "0x01",
                            "nonce": "0x00",
                            "maxPriorityFeePerGas": "0x00",
                            "maxFeePerGas": "0x07",
                            "gasLimit": "0x5208",
                            "to": "0x8a0a19589531694250d570040a0c4b74576919b8",
                            "value": "0x01",
                            "data": "0x",
                            "accessList": [],
                            "maxFeePerBlobGas": "0x01",
                            "blobVersionedHashes": [
                                "0x0100000000000000000000000000000000000000000000000000000000000000"
                            ],
                            "v": "0x01",
                            "r": "0x6c120e55aeb31122c5caad29e69d28ec90abb71e089e0cdf4aebbf51bbc46a89",
                            "s": "0x67983552dabf029ffb7ac58209a620d4a98eeeaf3df55bc9eb8e7684051ac70a",
                            "sender": "0xa94f5374fce5edbc8e2a8697c15331677e6ebf0b"
                        }
                    ],
                    "uncleHeaders": [],
                    "withdrawals": [],
                    "blocknumber": "2"
                }
            }
        ],
        "sealEngine": "NoProof",
        "_info": {
            "hash": "0x685de201d17b8b588980b481f7a12fa56b67bac22decdba642aae1399ddf8f53",
            "comment": "`execution-spec-tests` generated test",
            "filling-transition-tool": "ethereum-spec-evm-resolver 0.0.5",
            "description": "Reject blocks with invalid blob txs.\n\n    - tx max_fee_per_blob_gas is barely not enough\n    - tx max_fee_per_blob_gas is zero",
            "url": "https://github.com/ethereum/execution-spec-tests/tree/v4.5.0/tests/cancun/eip4844_blobs/test_blob_txs.py#L468",
            "fixture-format": "blockchain_test",
            "reference-spec": "https://github.com/ethereum/EIPs/blob/master/EIPS/eip-4844.md",
            "reference-spec-version": "de2e4a46ad93fc04e6fe3174dc6e90a3307bdb5f",
            "eels-resolution": {
                "git-url": "https://github.com/ethereum/execution-specs.git",
                "branch": "master",
                "commit": "fa847a0e48309debee8edc510ceddb2fd5db2f2e"
            }
        }
    },
    "tests/cancun/eip4844_blobs/test_blob_txs.py::test_invalid_tx_max_fee_per_blob_gas[fork_Cancun-invalid_max_fee_per_blob_gas-blockchain_test-account_balance_modifier_1000000000]": {
        "network": "Cancun",
        "genesisBlockHeader": {
            "parentHash": "0x0000000000000000000000000000000000000000000000000000000000000000",
            "uncleHash": "0x1dcc4de8dec75d7aab85b567b6ccd41ad312451b948a7413f0a142fd40d49347",
            "coinbase": "0x0000000000000000000000000000000000000000",
            "stateRoot": "0xe4a04a57a3865f92a21f069dde95a492a2933ec833d9ac9041d101ab164c1b33",
            "transactionsTrie": "0x56e81f171bcc55a6ff8345e692c0f86e5b48e01b996cadc001622fb5e363b421",
            "receiptTrie": "0x56e81f171bcc55a6ff8345e692c0f86e5b48e01b996cadc001622fb5e363b421",
            "bloom": "0x00000000000000000000000000000000000000000000000000000000000000000000000000000000000000000000000000000000000000000000000000000000000000000000000000000000000000000000000000000000000000000000000000000000000000000000000000000000000000000000000000000000000000000000000000000000000000000000000000000000000000000000000000000000000000000000000000000000000000000000000000000000000000000000000000000000000000000000000000000000000000000000000000000000000000000000000000000000000000000000000000000000000000000000000000000000",
            "difficulty": "0x00",
            "number": "0x00",
            "gasLimit": "0x044aa200",
            "gasUsed": "0x00",
            "timestamp": "0x00",
            "extraData": "0x00",
            "mixHash": "0x0000000000000000000000000000000000000000000000000000000000000000",
            "nonce": "0x0000000000000000",
            "baseFeePerGas": "0x07",
            "withdrawalsRoot": "0x56e81f171bcc55a6ff8345e692c0f86e5b48e01b996cadc001622fb5e363b421",
            "blobGasUsed": "0x00",
            "excessBlobGas": "0x00",
            "parentBeaconBlockRoot": "0x0000000000000000000000000000000000000000000000000000000000000000",
            "hash": "0x8b807a4be9c72e79ed428992b8478b109bdb8fd16e826a803328250a62dcfdb9"
        },
        "pre": {
            "0x000f3df6d732807ef1319fb7b8bb8522d0beac02": {
                "nonce": "0x01",
                "balance": "0x00",
                "code": "0x3373fffffffffffffffffffffffffffffffffffffffe14604d57602036146024575f5ffd5b5f35801560495762001fff810690815414603c575f5ffd5b62001fff01545f5260205ff35b5f5ffd5b62001fff42064281555f359062001fff015500",
                "storage": {}
            },
            "0xa94f5374fce5edbc8e2a8697c15331677e6ebf0b": {
                "nonce": "0x00",
                "balance": "0x3b9d0839",
                "code": "0x",
                "storage": {}
            }
        },
        "postState": {
            "0x000f3df6d732807ef1319fb7b8bb8522d0beac02": {
                "nonce": "0x01",
                "balance": "0x00",
                "code": "0x3373fffffffffffffffffffffffffffffffffffffffe14604d57602036146024575f5ffd5b5f35801560495762001fff810690815414603c575f5ffd5b62001fff01545f5260205ff35b5f5ffd5b62001fff42064281555f359062001fff015500",
                "storage": {}
            },
            "0xa94f5374fce5edbc8e2a8697c15331677e6ebf0b": {
                "nonce": "0x00",
                "balance": "0x3b9d0839",
                "code": "0x",
                "storage": {}
            }
        },
        "lastblockhash": "0x8b807a4be9c72e79ed428992b8478b109bdb8fd16e826a803328250a62dcfdb9",
        "config": {
            "network": "Cancun",
            "chainid": "0x01",
            "blobSchedule": {
                "Cancun": {
                    "target": "0x03",
                    "max": "0x06",
                    "baseFeeUpdateFraction": "0x32f0ed"
                }
            }
        },
        "genesisRLP": "0xf9023cf90236a00000000000000000000000000000000000000000000000000000000000000000a01dcc4de8dec75d7aab85b567b6ccd41ad312451b948a7413f0a142fd40d49347940000000000000000000000000000000000000000a0e4a04a57a3865f92a21f069dde95a492a2933ec833d9ac9041d101ab164c1b33a056e81f171bcc55a6ff8345e692c0f86e5b48e01b996cadc001622fb5e363b421a056e81f171bcc55a6ff8345e692c0f86e5b48e01b996cadc001622fb5e363b421b9010000000000000000000000000000000000000000000000000000000000000000000000000000000000000000000000000000000000000000000000000000000000000000000000000000000000000000000000000000000000000000000000000000000000000000000000000000000000000000000000000000000000000000000000000000000000000000000000000000000000000000000000000000000000000000000000000000000000000000000000000000000000000000000000000000000000000000000000000000000000000000000000000000000000000000000000000000000000000000000000000000000000000000000000000000000000808084044aa200808000a0000000000000000000000000000000000000000000000000000000000000000088000000000000000007a056e81f171bcc55a6ff8345e692c0f86e5b48e01b996cadc001622fb5e363b4218080a00000000000000000000000000000000000000000000000000000000000000000c0c0c0",
        "blocks": [
            {
                "rlp": "0xf902caf90239a08b807a4be9c72e79ed428992b8478b109bdb8fd16e826a803328250a62dcfdb9a01dcc4de8dec75d7aab85b567b6ccd41ad312451b948a7413f0a142fd40d49347942adc25665018aa1fe0e6bc666dac8fc2697ff9baa051704acb40513d28b94346f6fc8a92eab0b41f201a130f2b49efbab7ccc862d3a04fc529192bc3016168579d893942112d8c5cbda708a4925bdb9de9c4f688f27aa056e81f171bcc55a6ff8345e692c0f86e5b48e01b996cadc001622fb5e363b421b9010000000000000000000000000000000000000000000000000000000000000000000000000000000000000000000000000000000000000000000000000000000000000000000000000000000000000000000000000000000000000000000000000000000000000000000000000000000000000000000000000000000000000000000000000000000000000000000000000000000000000000000000000000000000000000000000000000000000000000000000000000000000000000000000000000000000000000000000000000000000000000000000000000000000000000000000000000000000000000000000000000000000000000000000000000000000800184044aa200800c80a0000000000000000000000000000000000000000000000000000000000000000088000000000000000007a056e81f171bcc55a6ff8345e692c0f86e5b48e01b996cadc001622fb5e363b4218302000080a00000000000000000000000000000000000000000000000000000000000000000f88ab88803f88501808007825208948a0a19589531694250d570040a0c4b74576919b80180c080e1a0010000000000000000000000000000000000000000000000000000000000000080a0e139c24284ed0b40e246644bf5af360aa5c100c521855b6a2e38bb2a4381dcd0a07558da5b85545c68103210e3259458bafde2945811850556577981e05b654de8c0c0",
                "expectException": "TransactionException.INSUFFICIENT_MAX_FEE_PER_BLOB_GAS",
                "rlp_decoded": {
                    "blockHeader": {
                        "parentHash": "0x8b807a4be9c72e79ed428992b8478b109bdb8fd16e826a803328250a62dcfdb9",
                        "uncleHash": "0x1dcc4de8dec75d7aab85b567b6ccd41ad312451b948a7413f0a142fd40d49347",
                        "coinbase": "0x2adc25665018aa1fe0e6bc666dac8fc2697ff9ba",
                        "stateRoot": "0x51704acb40513d28b94346f6fc8a92eab0b41f201a130f2b49efbab7ccc862d3",
                        "transactionsTrie": "0x4fc529192bc3016168579d893942112d8c5cbda708a4925bdb9de9c4f688f27a",
                        "receiptTrie": "0x56e81f171bcc55a6ff8345e692c0f86e5b48e01b996cadc001622fb5e363b421",
                        "bloom": "0x00000000000000000000000000000000000000000000000000000000000000000000000000000000000000000000000000000000000000000000000000000000000000000000000000000000000000000000000000000000000000000000000000000000000000000000000000000000000000000000000000000000000000000000000000000000000000000000000000000000000000000000000000000000000000000000000000000000000000000000000000000000000000000000000000000000000000000000000000000000000000000000000000000000000000000000000000000000000000000000000000000000000000000000000000000000",
                        "difficulty": "0x00",
                        "number": "0x01",
                        "gasLimit": "0x044aa200",
                        "gasUsed": "0x00",
                        "timestamp": "0x0c",
                        "extraData": "0x",
                        "mixHash": "0x0000000000000000000000000000000000000000000000000000000000000000",
                        "nonce": "0x0000000000000000",
                        "baseFeePerGas": "0x07",
                        "withdrawalsRoot": "0x56e81f171bcc55a6ff8345e692c0f86e5b48e01b996cadc001622fb5e363b421",
                        "blobGasUsed": "0x020000",
                        "excessBlobGas": "0x00",
                        "parentBeaconBlockRoot": "0x0000000000000000000000000000000000000000000000000000000000000000",
                        "hash": "0xdf262d25d5a86b93a1434226d624d4f695ee7b71aac43a716b7ae47220ba94da"
                    },
                    "transactions": [
                        {
                            "type": "0x03",
                            "chainId": "0x01",
                            "nonce": "0x00",
                            "maxPriorityFeePerGas": "0x00",
                            "maxFeePerGas": "0x07",
                            "gasLimit": "0x5208",
                            "to": "0x8a0a19589531694250d570040a0c4b74576919b8",
                            "value": "0x01",
                            "data": "0x",
                            "accessList": [],
                            "maxFeePerBlobGas": "0x00",
                            "blobVersionedHashes": [
                                "0x0100000000000000000000000000000000000000000000000000000000000000"
                            ],
                            "v": "0x00",
                            "r": "0xe139c24284ed0b40e246644bf5af360aa5c100c521855b6a2e38bb2a4381dcd0",
                            "s": "0x7558da5b85545c68103210e3259458bafde2945811850556577981e05b654de8",
                            "sender": "0xa94f5374fce5edbc8e2a8697c15331677e6ebf0b"
                        }
                    ],
                    "uncleHeaders": [],
                    "withdrawals": [],
                    "blocknumber": "1"
                }
            }
        ],
        "sealEngine": "NoProof",
        "_info": {
            "hash": "0x0f608f21022ff73753b4c83cebc2d5c5f4435a7878e8f3b453dc436f4b858c3f",
            "comment": "`execution-spec-tests` generated test",
            "filling-transition-tool": "ethereum-spec-evm-resolver 0.0.5",
            "description": "Reject blocks with invalid blob txs.\n\n    - tx max_fee_per_blob_gas is barely not enough\n    - tx max_fee_per_blob_gas is zero",
            "url": "https://github.com/ethereum/execution-spec-tests/tree/v4.5.0/tests/cancun/eip4844_blobs/test_blob_txs.py#L468",
            "fixture-format": "blockchain_test",
            "reference-spec": "https://github.com/ethereum/EIPs/blob/master/EIPS/eip-4844.md",
            "reference-spec-version": "de2e4a46ad93fc04e6fe3174dc6e90a3307bdb5f",
            "eels-resolution": {
                "git-url": "https://github.com/ethereum/execution-specs.git",
                "branch": "master",
                "commit": "fa847a0e48309debee8edc510ceddb2fd5db2f2e"
            }
        }
    }
}