{
    "tests/berlin/eip2930_access_list/test_acl.py::test_access_list[fork_Berlin-blockchain_test_from_state_test]": {
        "network": "Berlin",
        "genesisBlockHeader": {
            "parentHash": "0x0000000000000000000000000000000000000000000000000000000000000000",
            "uncleHash": "0x1dcc4de8dec75d7aab85b567b6ccd41ad312451b948a7413f0a142fd40d49347",
            "coinbase": "0x0000000000000000000000000000000000000000",
            "stateRoot": "0xdcddfa4aea2ba8d951face17b28ca6e2daff3f94996ea0c6d606b168be11e1e3",
            "transactionsTrie": "0x56e81f171bcc55a6ff8345e692c0f86e5b48e01b996cadc001622fb5e363b421",
            "receiptTrie": "0x56e81f171bcc55a6ff8345e692c0f86e5b48e01b996cadc001622fb5e363b421",
            "bloom": "0x00000000000000000000000000000000000000000000000000000000000000000000000000000000000000000000000000000000000000000000000000000000000000000000000000000000000000000000000000000000000000000000000000000000000000000000000000000000000000000000000000000000000000000000000000000000000000000000000000000000000000000000000000000000000000000000000000000000000000000000000000000000000000000000000000000000000000000000000000000000000000000000000000000000000000000000000000000000000000000000000000000000000000000000000000000000",
            "difficulty": "0x020000",
            "number": "0x00",
            "gasLimit": "0x044aa200",
            "gasUsed": "0x00",
            "timestamp": "0x00",
            "extraData": "0x00",
            "mixHash": "0x0000000000000000000000000000000000000000000000000000000000000000",
            "nonce": "0x0000000000000000",
            "hash": "0x0891e91d052a1a0c39ee1958297b97d3f4884956eba68d8ecf6a3fe3707a01c1"
        },
        "pre": {
            "0x0000000000000000000000000000000000001000": {
                "nonce": "0x01",
                "balance": "0x03",
                "code": "0x5854505854",
                "storage": {}
            },
            "0xa94f5374fce5edbc8e2a8697c15331677e6ebf0b": {
                "nonce": "0x00",
                "balance": "0x300000",
                "code": "0x",
                "storage": {}
            }
        },
        "postState": {
            "0x0000000000000000000000000000000000001000": {
                "nonce": "0x01",
                "balance": "0x04",
                "code": "0x5854505854",
                "storage": {}
            },
            "0xa94f5374fce5edbc8e2a8697c15331677e6ebf0b": {
                "nonce": "0x01",
                "balance": "0x2cd931",
                "code": "0x",
                "storage": {}
            },
            "0x2adc25665018aa1fe0e6bc666dac8fc2697ff9ba": {
                "nonce": "0x00",
                "balance": "0x1bc16d674ecb26ce",
                "code": "0x",
                "storage": {}
            }
        },
        "lastblockhash": "0xa5963a66b675eb17f35948a453059132a858be1ddde8d0810c4ab475318027a2",
        "config": {
            "network": "Berlin",
            "chainid": "0x01"
        },
        "genesisRLP": "0xf901f9f901f4a00000000000000000000000000000000000000000000000000000000000000000a01dcc4de8dec75d7aab85b567b6ccd41ad312451b948a7413f0a142fd40d49347940000000000000000000000000000000000000000a0dcddfa4aea2ba8d951face17b28ca6e2daff3f94996ea0c6d606b168be11e1e3a056e81f171bcc55a6ff8345e692c0f86e5b48e01b996cadc001622fb5e363b421a056e81f171bcc55a6ff8345e692c0f86e5b48e01b996cadc001622fb5e363b421b9010000000000000000000000000000000000000000000000000000000000000000000000000000000000000000000000000000000000000000000000000000000000000000000000000000000000000000000000000000000000000000000000000000000000000000000000000000000000000000000000000000000000000000000000000000000000000000000000000000000000000000000000000000000000000000000000000000000000000000000000000000000000000000000000000000000000000000000000000000000000000000000000000000000000000000000000000000000000000000000000000000000000000000000000000000000000830200008084044aa200808000a00000000000000000000000000000000000000000000000000000000000000000880000000000000000c0c0",
        "blocks": [
            {
                "blockHeader": {
                    "parentHash": "0x0891e91d052a1a0c39ee1958297b97d3f4884956eba68d8ecf6a3fe3707a01c1",
                    "uncleHash": "0x1dcc4de8dec75d7aab85b567b6ccd41ad312451b948a7413f0a142fd40d49347",
                    "coinbase": "0x2adc25665018aa1fe0e6bc666dac8fc2697ff9ba",
                    "stateRoot": "0x2bda9179e1c1acef5708726a7b97c95278d569a6a2fc123dd8b54db97c41908c",
                    "transactionsTrie": "0x2182b0a8aaa5484a3fdc67d43b96180cdbd09465ec8db206db63c9b071b33f0f",
                    "receiptTrie": "0xc166d1f62ef90bdef78d79a4b28579b279621fbcd156aba3060f242d5feeda67",
                    "bloom": "0x00000000000000000000000000000000000000000000000000000000000000000000000000000000000000000000000000000000000000000000000000000000000000000000000000000000000000000000000000000000000000000000000000000000000000000000000000000000000000000000000000000000000000000000000000000000000000000000000000000000000000000000000000000000000000000000000000000000000000000000000000000000000000000000000000000000000000000000000000000000000000000000000000000000000000000000000000000000000000000000000000000000000000000000000000000000",
                    "difficulty": "0x020000",
                    "number": "0x01",
                    "gasLimit": "0x044aa200",
                    "gasUsed": "0x7342",
                    "timestamp": "0x03e8",
                    "extraData": "0x00",
                    "mixHash": "0x0000000000000000000000000000000000000000000000000000000000000000",
                    "nonce": "0x0000000000000000",
                    "hash": "0xa5963a66b675eb17f35948a453059132a858be1ddde8d0810c4ab475318027a2"
                },
                "transactions": [
                    {
                        "type": "0x01",
                        "chainId": "0x01",
                        "nonce": "0x00",
                        "gasPrice": "0x07",
                        "gasLimit": "0x04ef00",
                        "to": "0x0000000000000000000000000000000000001000",
                        "value": "0x01",
                        "data": "0x",
                        "accessList": [
                            {
                                "address": "0x0000000000000000000000000000000000000000",
                                "storageKeys": [
                                    "0x0000000000000000000000000000000000000000000000000000000000000000"
                                ]
                            }
                        ],
                        "v": "0x00",
                        "r": "0x81a25ffdb3797e6428f854c642e1884ee7b7be0c4ccbb7e989b70039b87e4450",
                        "s": "0x2d25e40f45271d5f77735d06550dff43bf328190de034157cefec446855513d6",
                        "sender": "0xa94f5374fce5edbc8e2a8697c15331677e6ebf0b"
                    }
                ],
                "uncleHeaders": [],
                "rlp": "0xf9029ef901f8a00891e91d052a1a0c39ee1958297b97d3f4884956eba68d8ecf6a3fe3707a01c1a01dcc4de8dec75d7aab85b567b6ccd41ad312451b948a7413f0a142fd40d49347942adc25665018aa1fe0e6bc666dac8fc2697ff9baa02bda9179e1c1acef5708726a7b97c95278d569a6a2fc123dd8b54db97c41908ca02182b0a8aaa5484a3fdc67d43b96180cdbd09465ec8db206db63c9b071b33f0fa0c166d1f62ef90bdef78d79a4b28579b279621fbcd156aba3060f242d5feeda67b9010000000000000000000000000000000000000000000000000000000000000000000000000000000000000000000000000000000000000000000000000000000000000000000000000000000000000000000000000000000000000000000000000000000000000000000000000000000000000000000000000000000000000000000000000000000000000000000000000000000000000000000000000000000000000000000000000000000000000000000000000000000000000000000000000000000000000000000000000000000000000000000000000000000000000000000000000000000000000000000000000000000000000000000000000000000000830200000184044aa2008273428203e800a00000000000000000000000000000000000000000000000000000000000000000880000000000000000f8a0b89e01f89b0180078304ef009400000000000000000000000000000000000010000180f838f7940000000000000000000000000000000000000000e1a0000000000000000000000000000000000000000000000000000000000000000080a081a25ffdb3797e6428f854c642e1884ee7b7be0c4ccbb7e989b70039b87e4450a02d25e40f45271d5f77735d06550dff43bf328190de034157cefec446855513d6c0",
                "blocknumber": "1"
            }
        ],
        "sealEngine": "NoProof",
        "_info": {
            "hash": "0xb92733f02662f19f0161de7f0c8ec60a0788b929a4fdbad091eaaed3a209b6fa",
            "comment": "`execution-spec-tests` generated test",
            "filling-transition-tool": "ethereum-spec-evm-resolver 0.0.5",
            "description": "Test type 1 transaction.",
            "url": "https://github.com/ethereum/execution-spec-tests/tree/v4.5.0/tests/berlin/eip2930_access_list/test_acl.py#L19",
            "fixture-format": "blockchain_test",
            "reference-spec": "https://github.com/ethereum/EIPs/blob/master/EIPS/eip-2930.md",
            "reference-spec-version": "c9db53a936c5c9cbe2db32ba0d1b86c4c6e73534",
            "eels-resolution": {
                "git-url": "https://github.com/ethereum/execution-specs.git",
                "branch": "master",
                "commit": "fa847a0e48309debee8edc510ceddb2fd5db2f2e"
            }
        }
    },
    "tests/berlin/eip2930_access_list/test_acl.py::test_access_list[fork_Cancun-blockchain_test_from_state_test]": {
        "network": "Cancun",
        "genesisBlockHeader": {
            "parentHash": "0x0000000000000000000000000000000000000000000000000000000000000000",
            "uncleHash": "0x1dcc4de8dec75d7aab85b567b6ccd41ad312451b948a7413f0a142fd40d49347",
            "coinbase": "0x0000000000000000000000000000000000000000",
            "stateRoot": "0x1ede9eb5af545cf8f2d9c35b3b3d69187a1a2bdb1ad7ede3dc5e50e58c86321b",
            "transactionsTrie": "0x56e81f171bcc55a6ff8345e692c0f86e5b48e01b996cadc001622fb5e363b421",
            "receiptTrie": "0x56e81f171bcc55a6ff8345e692c0f86e5b48e01b996cadc001622fb5e363b421",
            "bloom": "0x00000000000000000000000000000000000000000000000000000000000000000000000000000000000000000000000000000000000000000000000000000000000000000000000000000000000000000000000000000000000000000000000000000000000000000000000000000000000000000000000000000000000000000000000000000000000000000000000000000000000000000000000000000000000000000000000000000000000000000000000000000000000000000000000000000000000000000000000000000000000000000000000000000000000000000000000000000000000000000000000000000000000000000000000000000000",
            "difficulty": "0x00",
            "number": "0x00",
            "gasLimit": "0x044aa200",
            "gasUsed": "0x00",
            "timestamp": "0x00",
            "extraData": "0x00",
            "mixHash": "0x0000000000000000000000000000000000000000000000000000000000000000",
            "nonce": "0x0000000000000000",
            "baseFeePerGas": "0x07",
            "withdrawalsRoot": "0x56e81f171bcc55a6ff8345e692c0f86e5b48e01b996cadc001622fb5e363b421",
            "blobGasUsed": "0x00",
            "excessBlobGas": "0x00",
            "parentBeaconBlockRoot": "0x0000000000000000000000000000000000000000000000000000000000000000",
            "hash": "0x345774c3b5c83fdb5fecedb9be1adfb0027de5e87ea6c13babb41cf73fd50f40"
        },
        "pre": {
            "0x000f3df6d732807ef1319fb7b8bb8522d0beac02": {
                "nonce": "0x01",
                "balance": "0x00",
                "code": "0x3373fffffffffffffffffffffffffffffffffffffffe14604d57602036146024575f5ffd5b5f35801560495762001fff810690815414603c575f5ffd5b62001fff01545f5260205ff35b5f5ffd5b62001fff42064281555f359062001fff015500",
                "storage": {}
            },
            "0x0000000000000000000000000000000000001000": {
                "nonce": "0x01",
                "balance": "0x03",
                "code": "0x5854505854",
                "storage": {}
            },
            "0xa94f5374fce5edbc8e2a8697c15331677e6ebf0b": {
                "nonce": "0x00",
                "balance": "0x300000",
                "code": "0x",
                "storage": {}
            }
        },
        "postState": {
            "0x000f3df6d732807ef1319fb7b8bb8522d0beac02": {
                "nonce": "0x01",
                "balance": "0x00",
                "code": "0x3373fffffffffffffffffffffffffffffffffffffffe14604d57602036146024575f5ffd5b5f35801560495762001fff810690815414603c575f5ffd5b62001fff01545f5260205ff35b5f5ffd5b62001fff42064281555f359062001fff015500",
                "storage": {
                    "0x03e8": "0x03e8"
                }
            },
            "0x0000000000000000000000000000000000001000": {
                "nonce": "0x01",
                "balance": "0x04",
                "code": "0x5854505854",
                "storage": {}
            },
            "0xa94f5374fce5edbc8e2a8697c15331677e6ebf0b": {
                "nonce": "0x01",
                "balance": "0x2cd931",
                "code": "0x",
                "storage": {}
            }
        },
        "lastblockhash": "0x4b833272aa3b79f2456566ef51de70d25f83762c683eaad67c50e9fef6c25061",
        "config": {
            "network": "Cancun",
            "chainid": "0x01",
            "blobSchedule": {
                "Cancun": {
                    "target": "0x03",
                    "max": "0x06",
                    "baseFeeUpdateFraction": "0x32f0ed"
                }
            }
        },
        "genesisRLP": "0xf9023cf90236a00000000000000000000000000000000000000000000000000000000000000000a01dcc4de8dec75d7aab85b567b6ccd41ad312451b948a7413f0a142fd40d49347940000000000000000000000000000000000000000a01ede9eb5af545cf8f2d9c35b3b3d69187a1a2bdb1ad7ede3dc5e50e58c86321ba056e81f171bcc55a6ff8345e692c0f86e5b48e01b996cadc001622fb5e363b421a056e81f171bcc55a6ff8345e692c0f86e5b48e01b996cadc001622fb5e363b421b9010000000000000000000000000000000000000000000000000000000000000000000000000000000000000000000000000000000000000000000000000000000000000000000000000000000000000000000000000000000000000000000000000000000000000000000000000000000000000000000000000000000000000000000000000000000000000000000000000000000000000000000000000000000000000000000000000000000000000000000000000000000000000000000000000000000000000000000000000000000000000000000000000000000000000000000000000000000000000000000000000000000000000000000000000000000000808084044aa200808000a0000000000000000000000000000000000000000000000000000000000000000088000000000000000007a056e81f171bcc55a6ff8345e692c0f86e5b48e01b996cadc001622fb5e363b4218080a00000000000000000000000000000000000000000000000000000000000000000c0c0c0",
        "blocks": [
            {
                "blockHeader": {
                    "parentHash": "0x345774c3b5c83fdb5fecedb9be1adfb0027de5e87ea6c13babb41cf73fd50f40",
                    "uncleHash": "0x1dcc4de8dec75d7aab85b567b6ccd41ad312451b948a7413f0a142fd40d49347",
                    "coinbase": "0x2adc25665018aa1fe0e6bc666dac8fc2697ff9ba",
                    "stateRoot": "0x328c81e36d8172f6661c2047a931225f227b9136af144eeb3b1045110c04199c",
                    "transactionsTrie": "0x2182b0a8aaa5484a3fdc67d43b96180cdbd09465ec8db206db63c9b071b33f0f",
                    "receiptTrie": "0xc166d1f62ef90bdef78d79a4b28579b279621fbcd156aba3060f242d5feeda67",
                    "bloom": "0x00000000000000000000000000000000000000000000000000000000000000000000000000000000000000000000000000000000000000000000000000000000000000000000000000000000000000000000000000000000000000000000000000000000000000000000000000000000000000000000000000000000000000000000000000000000000000000000000000000000000000000000000000000000000000000000000000000000000000000000000000000000000000000000000000000000000000000000000000000000000000000000000000000000000000000000000000000000000000000000000000000000000000000000000000000000",
                    "difficulty": "0x00",
                    "number": "0x01",
                    "gasLimit": "0x044aa200",
                    "gasUsed": "0x7342",
                    "timestamp": "0x03e8",
                    "extraData": "0x00",
                    "mixHash": "0x0000000000000000000000000000000000000000000000000000000000000000",
                    "nonce": "0x0000000000000000",
                    "baseFeePerGas": "0x07",
                    "withdrawalsRoot": "0x56e81f171bcc55a6ff8345e692c0f86e5b48e01b996cadc001622fb5e363b421",
                    "blobGasUsed": "0x00",
                    "excessBlobGas": "0x00",
                    "parentBeaconBlockRoot": "0x0000000000000000000000000000000000000000000000000000000000000000",
                    "hash": "0x4b833272aa3b79f2456566ef51de70d25f83762c683eaad67c50e9fef6c25061"
                },
                "transactions": [
                    {
                        "type": "0x01",
                        "chainId": "0x01",
                        "nonce": "0x00",
                        "gasPrice": "0x07",
                        "gasLimit": "0x04ef00",
                        "to": "0x0000000000000000000000000000000000001000",
                        "value": "0x01",
                        "data": "0x",
                        "accessList": [
                            {
                                "address": "0x0000000000000000000000000000000000000000",
                                "storageKeys": [
                                    "0x0000000000000000000000000000000000000000000000000000000000000000"
                                ]
                            }
                        ],
                        "v": "0x00",
                        "r": "0x81a25ffdb3797e6428f854c642e1884ee7b7be0c4ccbb7e989b70039b87e4450",
                        "s": "0x2d25e40f45271d5f77735d06550dff43bf328190de034157cefec446855513d6",
                        "sender": "0xa94f5374fce5edbc8e2a8697c15331677e6ebf0b"
                    }
                ],
                "uncleHeaders": [],
                "withdrawals": [],
                "rlp": "0xf902e1f9023aa0345774c3b5c83fdb5fecedb9be1adfb0027de5e87ea6c13babb41cf73fd50f40a01dcc4de8dec75d7aab85b567b6ccd41ad312451b948a7413f0a142fd40d49347942adc25665018aa1fe0e6bc666dac8fc2697ff9baa0328c81e36d8172f6661c2047a931225f227b9136af144eeb3b1045110c04199ca02182b0a8aaa5484a3fdc67d43b96180cdbd09465ec8db206db63c9b071b33f0fa0c166d1f62ef90bdef78d79a4b28579b279621fbcd156aba3060f242d5feeda67b9010000000000000000000000000000000000000000000000000000000000000000000000000000000000000000000000000000000000000000000000000000000000000000000000000000000000000000000000000000000000000000000000000000000000000000000000000000000000000000000000000000000000000000000000000000000000000000000000000000000000000000000000000000000000000000000000000000000000000000000000000000000000000000000000000000000000000000000000000000000000000000000000000000000000000000000000000000000000000000000000000000000000000000000000000000000000800184044aa2008273428203e800a0000000000000000000000000000000000000000000000000000000000000000088000000000000000007a056e81f171bcc55a6ff8345e692c0f86e5b48e01b996cadc001622fb5e363b4218080a00000000000000000000000000000000000000000000000000000000000000000f8a0b89e01f89b0180078304ef009400000000000000000000000000000000000010000180f838f7940000000000000000000000000000000000000000e1a0000000000000000000000000000000000000000000000000000000000000000080a081a25ffdb3797e6428f854c642e1884ee7b7be0c4ccbb7e989b70039b87e4450a02d25e40f45271d5f77735d06550dff43bf328190de034157cefec446855513d6c0c0",
                "blocknumber": "1"
            }
        ],
        "sealEngine": "NoProof",
        "_info": {
            "hash": "0x4f3eac56f736ba75ed5ce143cec5f917b7c0bc8368a74eb06d7fe2ccd2e383fe",
            "comment": "`execution-spec-tests` generated test",
            "filling-transition-tool": "ethereum-spec-evm-resolver 0.0.5",
            "description": "Test type 1 transaction.",
            "url": "https://github.com/ethereum/execution-spec-tests/tree/v4.5.0/tests/berlin/eip2930_access_list/test_acl.py#L19",
            "fixture-format": "blockchain_test",
            "reference-spec": "https://github.com/ethereum/EIPs/blob/master/EIPS/eip-2930.md",
            "reference-spec-version": "c9db53a936c5c9cbe2db32ba0d1b86c4c6e73534",
            "eels-resolution": {
                "git-url": "https://github.com/ethereum/execution-specs.git",
                "branch": "master",
                "commit": "fa847a0e48309debee8edc510ceddb2fd5db2f2e"
            }
        }
    },
    "tests/berlin/eip2930_access_list/test_acl.py::test_access_list[fork_London-blockchain_test_from_state_test]": {
        "network": "London",
        "genesisBlockHeader": {
            "parentHash": "0x0000000000000000000000000000000000000000000000000000000000000000",
            "uncleHash": "0x1dcc4de8dec75d7aab85b567b6ccd41ad312451b948a7413f0a142fd40d49347",
            "coinbase": "0x0000000000000000000000000000000000000000",
            "stateRoot": "0xdcddfa4aea2ba8d951face17b28ca6e2daff3f94996ea0c6d606b168be11e1e3",
            "transactionsTrie": "0x56e81f171bcc55a6ff8345e692c0f86e5b48e01b996cadc001622fb5e363b421",
            "receiptTrie": "0x56e81f171bcc55a6ff8345e692c0f86e5b48e01b996cadc001622fb5e363b421",
            "bloom": "0x00000000000000000000000000000000000000000000000000000000000000000000000000000000000000000000000000000000000000000000000000000000000000000000000000000000000000000000000000000000000000000000000000000000000000000000000000000000000000000000000000000000000000000000000000000000000000000000000000000000000000000000000000000000000000000000000000000000000000000000000000000000000000000000000000000000000000000000000000000000000000000000000000000000000000000000000000000000000000000000000000000000000000000000000000000000",
            "difficulty": "0x020000",
            "number": "0x00",
            "gasLimit": "0x044aa200",
            "gasUsed": "0x00",
            "timestamp": "0x00",
            "extraData": "0x00",
            "mixHash": "0x0000000000000000000000000000000000000000000000000000000000000000",
            "nonce": "0x0000000000000000",
            "baseFeePerGas": "0x07",
            "hash": "0x2b34ec8487313868da1cd00753c17d8d56d1b41531fc541b7367adf6281c6867"
        },
        "pre": {
            "0x0000000000000000000000000000000000001000": {
                "nonce": "0x01",
                "balance": "0x03",
                "code": "0x5854505854",
                "storage": {}
            },
            "0xa94f5374fce5edbc8e2a8697c15331677e6ebf0b": {
                "nonce": "0x00",
                "balance": "0x300000",
                "code": "0x",
                "storage": {}
            }
        },
        "postState": {
            "0x0000000000000000000000000000000000001000": {
                "nonce": "0x01",
                "balance": "0x04",
                "code": "0x5854505854",
                "storage": {}
            },
            "0xa94f5374fce5edbc8e2a8697c15331677e6ebf0b": {
                "nonce": "0x01",
                "balance": "0x2cd931",
                "code": "0x",
                "storage": {}
            },
            "0x2adc25665018aa1fe0e6bc666dac8fc2697ff9ba": {
                "nonce": "0x00",
                "balance": "0x1bc16d674ec80000",
                "code": "0x",
                "storage": {}
            }
        },
        "lastblockhash": "0x86321f07cb05562ec9316e35f1789f96d9b6f9e8e6c26f59e3676cc3dbd3e791",
        "config": {
            "network": "London",
            "chainid": "0x01"
        },
        "genesisRLP": "0xf901faf901f5a00000000000000000000000000000000000000000000000000000000000000000a01dcc4de8dec75d7aab85b567b6ccd41ad312451b948a7413f0a142fd40d49347940000000000000000000000000000000000000000a0dcddfa4aea2ba8d951face17b28ca6e2daff3f94996ea0c6d606b168be11e1e3a056e81f171bcc55a6ff8345e692c0f86e5b48e01b996cadc001622fb5e363b421a056e81f171bcc55a6ff8345e692c0f86e5b48e01b996cadc001622fb5e363b421b9010000000000000000000000000000000000000000000000000000000000000000000000000000000000000000000000000000000000000000000000000000000000000000000000000000000000000000000000000000000000000000000000000000000000000000000000000000000000000000000000000000000000000000000000000000000000000000000000000000000000000000000000000000000000000000000000000000000000000000000000000000000000000000000000000000000000000000000000000000000000000000000000000000000000000000000000000000000000000000000000000000000000000000000000000000000000830200008084044aa200808000a0000000000000000000000000000000000000000000000000000000000000000088000000000000000007c0c0",
        "blocks": [
            {
                "blockHeader": {
                    "parentHash": "0x2b34ec8487313868da1cd00753c17d8d56d1b41531fc541b7367adf6281c6867",
                    "uncleHash": "0x1dcc4de8dec75d7aab85b567b6ccd41ad312451b948a7413f0a142fd40d49347",
                    "coinbase": "0x2adc25665018aa1fe0e6bc666dac8fc2697ff9ba",
                    "stateRoot": "0x45f53c8c7656b28829d36332d0a0d93467c74ef0a547d33bec4aa29d039967f4",
                    "transactionsTrie": "0x2182b0a8aaa5484a3fdc67d43b96180cdbd09465ec8db206db63c9b071b33f0f",
                    "receiptTrie": "0xc166d1f62ef90bdef78d79a4b28579b279621fbcd156aba3060f242d5feeda67",
                    "bloom": "0x00000000000000000000000000000000000000000000000000000000000000000000000000000000000000000000000000000000000000000000000000000000000000000000000000000000000000000000000000000000000000000000000000000000000000000000000000000000000000000000000000000000000000000000000000000000000000000000000000000000000000000000000000000000000000000000000000000000000000000000000000000000000000000000000000000000000000000000000000000000000000000000000000000000000000000000000000000000000000000000000000000000000000000000000000000000",
                    "difficulty": "0x020000",
                    "number": "0x01",
                    "gasLimit": "0x044aa200",
                    "gasUsed": "0x7342",
                    "timestamp": "0x03e8",
                    "extraData": "0x00",
                    "mixHash": "0x0000000000000000000000000000000000000000000000000000000000000000",
                    "nonce": "0x0000000000000000",
                    "baseFeePerGas": "0x07",
                    "hash": "0x86321f07cb05562ec9316e35f1789f96d9b6f9e8e6c26f59e3676cc3dbd3e791"
                },
                "transactions": [
                    {
                        "type": "0x01",
                        "chainId": "0x01",
                        "nonce": "0x00",
                        "gasPrice": "0x07",
                        "gasLimit": "0x04ef00",
                        "to": "0x0000000000000000000000000000000000001000",
                        "value": "0x01",
                        "data": "0x",
                        "accessList": [
                            {
                                "address": "0x0000000000000000000000000000000000000000",
                                "storageKeys": [
                                    "0x0000000000000000000000000000000000000000000000000000000000000000"
                                ]
                            }
                        ],
                        "v": "0x00",
                        "r": "0x81a25ffdb3797e6428f854c642e1884ee7b7be0c4ccbb7e989b70039b87e4450",
                        "s": "0x2d25e40f45271d5f77735d06550dff43bf328190de034157cefec446855513d6",
                        "sender": "0xa94f5374fce5edbc8e2a8697c15331677e6ebf0b"
                    }
                ],
                "uncleHeaders": [],
                "rlp": "0xf9029ff901f9a02b34ec8487313868da1cd00753c17d8d56d1b41531fc541b7367adf6281c6867a01dcc4de8dec75d7aab85b567b6ccd41ad312451b948a7413f0a142fd40d49347942adc25665018aa1fe0e6bc666dac8fc2697ff9baa045f53c8c7656b28829d36332d0a0d93467c74ef0a547d33bec4aa29d039967f4a02182b0a8aaa5484a3fdc67d43b96180cdbd09465ec8db206db63c9b071b33f0fa0c166d1f62ef90bdef78d79a4b28579b279621fbcd156aba3060f242d5feeda67b9010000000000000000000000000000000000000000000000000000000000000000000000000000000000000000000000000000000000000000000000000000000000000000000000000000000000000000000000000000000000000000000000000000000000000000000000000000000000000000000000000000000000000000000000000000000000000000000000000000000000000000000000000000000000000000000000000000000000000000000000000000000000000000000000000000000000000000000000000000000000000000000000000000000000000000000000000000000000000000000000000000000000000000000000000000000000830200000184044aa2008273428203e800a0000000000000000000000000000000000000000000000000000000000000000088000000000000000007f8a0b89e01f89b0180078304ef009400000000000000000000000000000000000010000180f838f7940000000000000000000000000000000000000000e1a0000000000000000000000000000000000000000000000000000000000000000080a081a25ffdb3797e6428f854c642e1884ee7b7be0c4ccbb7e989b70039b87e4450a02d25e40f45271d5f77735d06550dff43bf328190de034157cefec446855513d6c0",
                "blocknumber": "1"
            }
        ],
        "sealEngine": "NoProof",
        "_info": {
            "hash": "0x6f49e6d10c9889fd3f5240f02aa9aebf7b2c0a09d9bc868161957cebdbf0358c",
            "comment": "`execution-spec-tests` generated test",
            "filling-transition-tool": "ethereum-spec-evm-resolver 0.0.5",
            "description": "Test type 1 transaction.",
            "url": "https://github.com/ethereum/execution-spec-tests/tree/v4.5.0/tests/berlin/eip2930_access_list/test_acl.py#L19",
            "fixture-format": "blockchain_test",
            "reference-spec": "https://github.com/ethereum/EIPs/blob/master/EIPS/eip-2930.md",
            "reference-spec-version": "c9db53a936c5c9cbe2db32ba0d1b86c4c6e73534",
            "eels-resolution": {
                "git-url": "https://github.com/ethereum/execution-specs.git",
                "branch": "master",
                "commit": "fa847a0e48309debee8edc510ceddb2fd5db2f2e"
            }
        }
    },
    "tests/berlin/eip2930_access_list/test_acl.py::test_access_list[fork_Paris-blockchain_test_from_state_test]": {
        "network": "Paris",
        "genesisBlockHeader": {
            "parentHash": "0x0000000000000000000000000000000000000000000000000000000000000000",
            "uncleHash": "0x1dcc4de8dec75d7aab85b567b6ccd41ad312451b948a7413f0a142fd40d49347",
            "coinbase": "0x0000000000000000000000000000000000000000",
            "stateRoot": "0xdcddfa4aea2ba8d951face17b28ca6e2daff3f94996ea0c6d606b168be11e1e3",
            "transactionsTrie": "0x56e81f171bcc55a6ff8345e692c0f86e5b48e01b996cadc001622fb5e363b421",
            "receiptTrie": "0x56e81f171bcc55a6ff8345e692c0f86e5b48e01b996cadc001622fb5e363b421",
            "bloom": "0x00000000000000000000000000000000000000000000000000000000000000000000000000000000000000000000000000000000000000000000000000000000000000000000000000000000000000000000000000000000000000000000000000000000000000000000000000000000000000000000000000000000000000000000000000000000000000000000000000000000000000000000000000000000000000000000000000000000000000000000000000000000000000000000000000000000000000000000000000000000000000000000000000000000000000000000000000000000000000000000000000000000000000000000000000000000",
            "difficulty": "0x00",
            "number": "0x00",
            "gasLimit": "0x044aa200",
            "gasUsed": "0x00",
            "timestamp": "0x00",
            "extraData": "0x00",
            "mixHash": "0x0000000000000000000000000000000000000000000000000000000000000000",
            "nonce": "0x0000000000000000",
            "baseFeePerGas": "0x07",
            "hash": "0x84229dc344d0a468e3f36adda005385f4b175a5652e4197dede1092d66b85820"
        },
        "pre": {
            "0x0000000000000000000000000000000000001000": {
                "nonce": "0x01",
                "balance": "0x03",
                "code": "0x5854505854",
                "storage": {}
            },
            "0xa94f5374fce5edbc8e2a8697c15331677e6ebf0b": {
                "nonce": "0x00",
                "balance": "0x300000",
                "code": "0x",
                "storage": {}
            }
        },
        "postState": {
            "0x0000000000000000000000000000000000001000": {
                "nonce": "0x01",
                "balance": "0x04",
                "code": "0x5854505854",
                "storage": {}
            },
            "0xa94f5374fce5edbc8e2a8697c15331677e6ebf0b": {
                "nonce": "0x01",
                "balance": "0x2cd931",
                "code": "0x",
                "storage": {}
            }
        },
        "lastblockhash": "0x3acc0e3b30f31382c2754cbf1cf2ac80bdbd6f46a8ecc962709cfc972d0254ab",
        "config": {
            "network": "Paris",
            "chainid": "0x01"
        },
        "genesisRLP": "0xf901f7f901f2a00000000000000000000000000000000000000000000000000000000000000000a01dcc4de8dec75d7aab85b567b6ccd41ad312451b948a7413f0a142fd40d49347940000000000000000000000000000000000000000a0dcddfa4aea2ba8d951face17b28ca6e2daff3f94996ea0c6d606b168be11e1e3a056e81f171bcc55a6ff8345e692c0f86e5b48e01b996cadc001622fb5e363b421a056e81f171bcc55a6ff8345e692c0f86e5b48e01b996cadc001622fb5e363b421b9010000000000000000000000000000000000000000000000000000000000000000000000000000000000000000000000000000000000000000000000000000000000000000000000000000000000000000000000000000000000000000000000000000000000000000000000000000000000000000000000000000000000000000000000000000000000000000000000000000000000000000000000000000000000000000000000000000000000000000000000000000000000000000000000000000000000000000000000000000000000000000000000000000000000000000000000000000000000000000000000000000000000000000000000000000000000808084044aa200808000a0000000000000000000000000000000000000000000000000000000000000000088000000000000000007c0c0",
        "blocks": [
            {
                "blockHeader": {
                    "parentHash": "0x84229dc344d0a468e3f36adda005385f4b175a5652e4197dede1092d66b85820",
                    "uncleHash": "0x1dcc4de8dec75d7aab85b567b6ccd41ad312451b948a7413f0a142fd40d49347",
                    "coinbase": "0x2adc25665018aa1fe0e6bc666dac8fc2697ff9ba",
                    "stateRoot": "0xbba7329a789fb21eec852df40d72d9cdfdc51c993c77183b610e962210c819f6",
                    "transactionsTrie": "0x2182b0a8aaa5484a3fdc67d43b96180cdbd09465ec8db206db63c9b071b33f0f",
                    "receiptTrie": "0xc166d1f62ef90bdef78d79a4b28579b279621fbcd156aba3060f242d5feeda67",
                    "bloom": "0x00000000000000000000000000000000000000000000000000000000000000000000000000000000000000000000000000000000000000000000000000000000000000000000000000000000000000000000000000000000000000000000000000000000000000000000000000000000000000000000000000000000000000000000000000000000000000000000000000000000000000000000000000000000000000000000000000000000000000000000000000000000000000000000000000000000000000000000000000000000000000000000000000000000000000000000000000000000000000000000000000000000000000000000000000000000",
                    "difficulty": "0x00",
                    "number": "0x01",
                    "gasLimit": "0x044aa200",
                    "gasUsed": "0x7342",
                    "timestamp": "0x03e8",
                    "extraData": "0x00",
                    "mixHash": "0x0000000000000000000000000000000000000000000000000000000000000000",
                    "nonce": "0x0000000000000000",
                    "baseFeePerGas": "0x07",
                    "hash": "0x3acc0e3b30f31382c2754cbf1cf2ac80bdbd6f46a8ecc962709cfc972d0254ab"
                },
                "transactions": [
                    {
                        "type": "0x01",
                        "chainId": "0x01",
                        "nonce": "0x00",
                        "gasPrice": "0x07",
                        "gasLimit": "0x04ef00",
                        "to": "0x0000000000000000000000000000000000001000",
                        "value": "0x01",
                        "data": "0x",
                        "accessList": [
                            {
                                "address": "0x0000000000000000000000000000000000000000",
                                "storageKeys": [
                                    "0x0000000000000000000000000000000000000000000000000000000000000000"
                                ]
                            }
                        ],
                        "v": "0x00",
                        "r": "0x81a25ffdb3797e6428f854c642e1884ee7b7be0c4ccbb7e989b70039b87e4450",
                        "s": "0x2d25e40f45271d5f77735d06550dff43bf328190de034157cefec446855513d6",
                        "sender": "0xa94f5374fce5edbc8e2a8697c15331677e6ebf0b"
                    }
                ],
                "uncleHeaders": [],
                "rlp": "0xf9029cf901f6a084229dc344d0a468e3f36adda005385f4b175a5652e4197dede1092d66b85820a01dcc4de8dec75d7aab85b567b6ccd41ad312451b948a7413f0a142fd40d49347942adc25665018aa1fe0e6bc666dac8fc2697ff9baa0bba7329a789fb21eec852df40d72d9cdfdc51c993c77183b610e962210c819f6a02182b0a8aaa5484a3fdc67d43b96180cdbd09465ec8db206db63c9b071b33f0fa0c166d1f62ef90bdef78d79a4b28579b279621fbcd156aba3060f242d5feeda67b9010000000000000000000000000000000000000000000000000000000000000000000000000000000000000000000000000000000000000000000000000000000000000000000000000000000000000000000000000000000000000000000000000000000000000000000000000000000000000000000000000000000000000000000000000000000000000000000000000000000000000000000000000000000000000000000000000000000000000000000000000000000000000000000000000000000000000000000000000000000000000000000000000000000000000000000000000000000000000000000000000000000000000000000000000000000000800184044aa2008273428203e800a0000000000000000000000000000000000000000000000000000000000000000088000000000000000007f8a0b89e01f89b0180078304ef009400000000000000000000000000000000000010000180f838f7940000000000000000000000000000000000000000e1a0000000000000000000000000000000000000000000000000000000000000000080a081a25ffdb3797e6428f854c642e1884ee7b7be0c4ccbb7e989b70039b87e4450a02d25e40f45271d5f77735d06550dff43bf328190de034157cefec446855513d6c0",
                "blocknumber": "1"
            }
        ],
        "sealEngine": "NoProof",
        "_info": {
            "hash": "0xc13ea8cd01dac96ff69eb0de435280dec4e9a98ff157eab4bf2de6dab5eacc68",
            "comment": "`execution-spec-tests` generated test",
            "filling-transition-tool": "ethereum-spec-evm-resolver 0.0.5",
            "description": "Test type 1 transaction.",
            "url": "https://github.com/ethereum/execution-spec-tests/tree/v4.5.0/tests/berlin/eip2930_access_list/test_acl.py#L19",
            "fixture-format": "blockchain_test",
            "reference-spec": "https://github.com/ethereum/EIPs/blob/master/EIPS/eip-2930.md",
            "reference-spec-version": "c9db53a936c5c9cbe2db32ba0d1b86c4c6e73534",
            "eels-resolution": {
                "git-url": "https://github.com/ethereum/execution-specs.git",
                "branch": "master",
                "commit": "fa847a0e48309debee8edc510ceddb2fd5db2f2e"
            }
        }
    },
    "tests/berlin/eip2930_access_list/test_acl.py::test_access_list[fork_Shanghai-blockchain_test_from_state_test]": {
        "network": "Shanghai",
        "genesisBlockHeader": {
            "parentHash": "0x0000000000000000000000000000000000000000000000000000000000000000",
            "uncleHash": "0x1dcc4de8dec75d7aab85b567b6ccd41ad312451b948a7413f0a142fd40d49347",
            "coinbase": "0x0000000000000000000000000000000000000000",
            "stateRoot": "0xdcddfa4aea2ba8d951face17b28ca6e2daff3f94996ea0c6d606b168be11e1e3",
            "transactionsTrie": "0x56e81f171bcc55a6ff8345e692c0f86e5b48e01b996cadc001622fb5e363b421",
            "receiptTrie": "0x56e81f171bcc55a6ff8345e692c0f86e5b48e01b996cadc001622fb5e363b421",
            "bloom": "0x00000000000000000000000000000000000000000000000000000000000000000000000000000000000000000000000000000000000000000000000000000000000000000000000000000000000000000000000000000000000000000000000000000000000000000000000000000000000000000000000000000000000000000000000000000000000000000000000000000000000000000000000000000000000000000000000000000000000000000000000000000000000000000000000000000000000000000000000000000000000000000000000000000000000000000000000000000000000000000000000000000000000000000000000000000000",
            "difficulty": "0x00",
            "number": "0x00",
            "gasLimit": "0x044aa200",
            "gasUsed": "0x00",
            "timestamp": "0x00",
            "extraData": "0x00",
            "mixHash": "0x0000000000000000000000000000000000000000000000000000000000000000",
            "nonce": "0x0000000000000000",
            "baseFeePerGas": "0x07",
            "withdrawalsRoot": "0x56e81f171bcc55a6ff8345e692c0f86e5b48e01b996cadc001622fb5e363b421",
            "hash": "0x21d1cf0fcd1f19bfc3dff8bb42054477d71f1656d0fcf9e2f5a98f4aecc5003e"
        },
        "pre": {
            "0x0000000000000000000000000000000000001000": {
                "nonce": "0x01",
                "balance": "0x03",
                "code": "0x5854505854",
                "storage": {}
            },
            "0xa94f5374fce5edbc8e2a8697c15331677e6ebf0b": {
                "nonce": "0x00",
                "balance": "0x300000",
                "code": "0x",
                "storage": {}
            }
        },
        "postState": {
            "0x0000000000000000000000000000000000001000": {
                "nonce": "0x01",
                "balance": "0x04",
                "code": "0x5854505854",
                "storage": {}
            },
            "0xa94f5374fce5edbc8e2a8697c15331677e6ebf0b": {
                "nonce": "0x01",
                "balance": "0x2cd931",
                "code": "0x",
                "storage": {}
            }
        },
        "lastblockhash": "0x34e2f48e566286589c5ba5970fdea1d096e137a6212beb15e74adc94854ac0bf",
        "config": {
            "network": "Shanghai",
            "chainid": "0x01"
        },
        "genesisRLP": "0xf90219f90213a00000000000000000000000000000000000000000000000000000000000000000a01dcc4de8dec75d7aab85b567b6ccd41ad312451b948a7413f0a142fd40d49347940000000000000000000000000000000000000000a0dcddfa4aea2ba8d951face17b28ca6e2daff3f94996ea0c6d606b168be11e1e3a056e81f171bcc55a6ff8345e692c0f86e5b48e01b996cadc001622fb5e363b421a056e81f171bcc55a6ff8345e692c0f86e5b48e01b996cadc001622fb5e363b421b9010000000000000000000000000000000000000000000000000000000000000000000000000000000000000000000000000000000000000000000000000000000000000000000000000000000000000000000000000000000000000000000000000000000000000000000000000000000000000000000000000000000000000000000000000000000000000000000000000000000000000000000000000000000000000000000000000000000000000000000000000000000000000000000000000000000000000000000000000000000000000000000000000000000000000000000000000000000000000000000000000000000000000000000000000000000000808084044aa200808000a0000000000000000000000000000000000000000000000000000000000000000088000000000000000007a056e81f171bcc55a6ff8345e692c0f86e5b48e01b996cadc001622fb5e363b421c0c0c0",
        "blocks": [
            {
                "blockHeader": {
                    "parentHash": "0x21d1cf0fcd1f19bfc3dff8bb42054477d71f1656d0fcf9e2f5a98f4aecc5003e",
                    "uncleHash": "0x1dcc4de8dec75d7aab85b567b6ccd41ad312451b948a7413f0a142fd40d49347",
                    "coinbase": "0x2adc25665018aa1fe0e6bc666dac8fc2697ff9ba",
                    "stateRoot": "0xbba7329a789fb21eec852df40d72d9cdfdc51c993c77183b610e962210c819f6",
                    "transactionsTrie": "0x2182b0a8aaa5484a3fdc67d43b96180cdbd09465ec8db206db63c9b071b33f0f",
                    "receiptTrie": "0xc166d1f62ef90bdef78d79a4b28579b279621fbcd156aba3060f242d5feeda67",
                    "bloom": "0x00000000000000000000000000000000000000000000000000000000000000000000000000000000000000000000000000000000000000000000000000000000000000000000000000000000000000000000000000000000000000000000000000000000000000000000000000000000000000000000000000000000000000000000000000000000000000000000000000000000000000000000000000000000000000000000000000000000000000000000000000000000000000000000000000000000000000000000000000000000000000000000000000000000000000000000000000000000000000000000000000000000000000000000000000000000",
                    "difficulty": "0x00",
                    "number": "0x01",
                    "gasLimit": "0x044aa200",
                    "gasUsed": "0x7342",
                    "timestamp": "0x03e8",
                    "extraData": "0x00",
                    "mixHash": "0x0000000000000000000000000000000000000000000000000000000000000000",
                    "nonce": "0x0000000000000000",
                    "baseFeePerGas": "0x07",
                    "withdrawalsRoot": "0x56e81f171bcc55a6ff8345e692c0f86e5b48e01b996cadc001622fb5e363b421",
                    "hash": "0x34e2f48e566286589c5ba5970fdea1d096e137a6212beb15e74adc94854ac0bf"
                },
                "transactions": [
                    {
                        "type": "0x01",
                        "chainId": "0x01",
                        "nonce": "0x00",
                        "gasPrice": "0x07",
                        "gasLimit": "0x04ef00",
                        "to": "0x0000000000000000000000000000000000001000",
                        "value": "0x01",
                        "data": "0x",
                        "accessList": [
                            {
                                "address": "0x0000000000000000000000000000000000000000",
                                "storageKeys": [
                                    "0x0000000000000000000000000000000000000000000000000000000000000000"
                                ]
                            }
                        ],
                        "v": "0x00",
                        "r": "0x81a25ffdb3797e6428f854c642e1884ee7b7be0c4ccbb7e989b70039b87e4450",
                        "s": "0x2d25e40f45271d5f77735d06550dff43bf328190de034157cefec446855513d6",
                        "sender": "0xa94f5374fce5edbc8e2a8697c15331677e6ebf0b"
                    }
                ],
                "uncleHeaders": [],
                "withdrawals": [],
                "rlp": "0xf902bef90217a021d1cf0fcd1f19bfc3dff8bb42054477d71f1656d0fcf9e2f5a98f4aecc5003ea01dcc4de8dec75d7aab85b567b6ccd41ad312451b948a7413f0a142fd40d49347942adc25665018aa1fe0e6bc666dac8fc2697ff9baa0bba7329a789fb21eec852df40d72d9cdfdc51c993c77183b610e962210c819f6a02182b0a8aaa5484a3fdc67d43b96180cdbd09465ec8db206db63c9b071b33f0fa0c166d1f62ef90bdef78d79a4b28579b279621fbcd156aba3060f242d5feeda67b9010000000000000000000000000000000000000000000000000000000000000000000000000000000000000000000000000000000000000000000000000000000000000000000000000000000000000000000000000000000000000000000000000000000000000000000000000000000000000000000000000000000000000000000000000000000000000000000000000000000000000000000000000000000000000000000000000000000000000000000000000000000000000000000000000000000000000000000000000000000000000000000000000000000000000000000000000000000000000000000000000000000000000000000000000000000000800184044aa2008273428203e800a0000000000000000000000000000000000000000000000000000000000000000088000000000000000007a056e81f171bcc55a6ff8345e692c0f86e5b48e01b996cadc001622fb5e363b421f8a0b89e01f89b0180078304ef009400000000000000000000000000000000000010000180f838f7940000000000000000000000000000000000000000e1a0000000000000000000000000000000000000000000000000000000000000000080a081a25ffdb3797e6428f854c642e1884ee7b7be0c4ccbb7e989b70039b87e4450a02d25e40f45271d5f77735d06550dff43bf328190de034157cefec446855513d6c0c0",
                "blocknumber": "1"
            }
        ],
        "sealEngine": "NoProof",
        "_info": {
            "hash": "0xa1ec1f4b5227efcfe8f026909eb3d38c80ad34427621fd4c0121907f219c7d88",
            "comment": "`execution-spec-tests` generated test",
            "filling-transition-tool": "ethereum-spec-evm-resolver 0.0.5",
            "description": "Test type 1 transaction.",
            "url": "https://github.com/ethereum/execution-spec-tests/tree/v4.5.0/tests/berlin/eip2930_access_list/test_acl.py#L19",
            "fixture-format": "blockchain_test",
            "reference-spec": "https://github.com/ethereum/EIPs/blob/master/EIPS/eip-2930.md",
            "reference-spec-version": "c9db53a936c5c9cbe2db32ba0d1b86c4c6e73534",
            "eels-resolution": {
                "git-url": "https://github.com/ethereum/execution-specs.git",
                "branch": "master",
                "commit": "fa847a0e48309debee8edc510ceddb2fd5db2f2e"
            }
        }
    }
}