{
    "tests/constantinople/eip1014_create2/test_recreate.py::test_recreate[fork_Paris-blockchain_test_engine-recreate_on_separate_block_False]": {
        "network": "Paris",
        "genesisBlockHeader": {
            "parentHash": "0x0000000000000000000000000000000000000000000000000000000000000000",
            "uncleHash": "0x1dcc4de8dec75d7aab85b567b6ccd41ad312451b948a7413f0a142fd40d49347",
            "coinbase": "0x0000000000000000000000000000000000000000",
            "stateRoot": "0x505721270b6f8e490a52f75aff2d978bc9c1cbadfab062e8c9b4b983f5fd631b",
            "transactionsTrie": "0x56e81f171bcc55a6ff8345e692c0f86e5b48e01b996cadc001622fb5e363b421",
            "receiptTrie": "0x56e81f171bcc55a6ff8345e692c0f86e5b48e01b996cadc001622fb5e363b421",
            "bloom": "0x00000000000000000000000000000000000000000000000000000000000000000000000000000000000000000000000000000000000000000000000000000000000000000000000000000000000000000000000000000000000000000000000000000000000000000000000000000000000000000000000000000000000000000000000000000000000000000000000000000000000000000000000000000000000000000000000000000000000000000000000000000000000000000000000000000000000000000000000000000000000000000000000000000000000000000000000000000000000000000000000000000000000000000000000000000000",
            "difficulty": "0x00",
            "number": "0x00",
            "gasLimit": "0x044aa200",
            "gasUsed": "0x00",
            "timestamp": "0x00",
            "extraData": "0x00",
            "mixHash": "0x0000000000000000000000000000000000000000000000000000000000000000",
            "nonce": "0x0000000000000000",
            "baseFeePerGas": "0x07",
            "hash": "0xe340708303d1252ad2a6739588f4f6a68fa135ad8babd6a4e0b4008583216caf"
        },
        "pre": {
            "0x0000000000000000000000000000000000001000": {
                "nonce": "0x01",
                "balance": "0x00",
                "code": "0x36600060003760003660006000f5",
                "storage": {}
            },
            "0xa94f5374fce5edbc8e2a8697c15331677e6ebf0b": {
                "nonce": "0x00",
                "balance": "0x3635c9adc5dea00000",
                "code": "0x",
                "storage": {}
            }
        },
        "postState": {
            "0x0000000000000000000000000000000000001000": {
                "nonce": "0x03",
                "balance": "0x00",
                "code": "0x36600060003760003660006000f5",
                "storage": {}
            },
            "0xa94f5374fce5edbc8e2a8697c15331677e6ebf0b": {
                "nonce": "0x05",
                "balance": "0x3635c9adc5de7cc110",
                "code": "0x",
                "storage": {}
            },
            "0x2adc25665018aa1fe0e6bc666dac8fc2697ff9ba": {
                "nonce": "0x00",
                "balance": "0x0a92e1",
                "code": "0x",
                "storage": {}
            },
            "0x0000000000000000000000000000000000000000": {
                "nonce": "0x00",
                "balance": "0x01",
                "code": "0x",
                "storage": {}
            },
            "0xff2925f4cd8bed5eacbfb1f5c26d08f80922b6ca": {
                "nonce": "0x01",
                "balance": "0x01",
                "code": "0x34600014600c5734600055005b6000ff",
                "storage": {}
            }
        },
        "lastblockhash": "0x751e061dc6a7e0a5591f3dcde9f780828b3988f48fd7c979c4b35d347e94eb3b",
        "config": {
            "network": "Paris",
            "chainid": "0x01"
        },
        "engineNewPayloads": [
            {
                "params": [
                    {
                        "parentHash": "0xe340708303d1252ad2a6739588f4f6a68fa135ad8babd6a4e0b4008583216caf",
                        "feeRecipient": "0x2adc25665018aa1fe0e6bc666dac8fc2697ff9ba",
                        "stateRoot": "0x3dcbc9b3d6fc622e4823ede1efbffe30525332a863b5c58b15f1a620f983b684",
                        "receiptsRoot": "0xff54271061ca2dfedc89a7da56880675d25f63ed847ccf4ef24ddf2d7b83ce2e",
                        "logsBloom": "0x00000000000000000000000000000000000000000000000000000000000000000000000000000000000000000000000000000000000000000000000000000000000000000000000000000000000000000000000000000000000000000000000000000000000000000000000000000000000000000000000000000000000000000000000000000000000000000000000000000000000000000000000000000000000000000000000000000000000000000000000000000000000000000000000000000000000000000000000000000000000000000000000000000000000000000000000000000000000000000000000000000000000000000000000000000000",
                        "blockNumber": "0x1",
                        "gasLimit": "0x44aa200",
                        "gasUsed": "0x185a0",
                        "timestamp": "0xc",
                        "extraData": "0x",
                        "prevRandao": "0x0000000000000000000000000000000000000000000000000000000000000000",
                        "baseFeePerGas": "0x7",
                        "blockHash": "0xbcde52e9361bb93c19b1b87b6d7c7a707c1699f5aa6f2d3cc61262ef981366cb",
                        "transactions": [
                            "0xf87b800a830186a0940000000000000000000000000000000000001000809b610010600081600b8239f334600014600c5734600055005b6000ff25a03e9df6f50cc1c6573d0d6a32808b7dfcd54aec10d8e8f3f1c479ec5600f2f20ca07b2cae28289be79f4d1bc589eb747a32be5a6f625402423d516e124bd4ceb609",
                            "0xf860010a830186a094ff2925f4cd8bed5eacbfb1f5c26d08f80922b6ca018026a0617859108abb7e6a3f6b6d5412cfe3a3faffad021abf76cc1bd383ebfd7686b8a058cd4c67bec08937f7a3ac50c2488260f503b079960df5fc4c4204eec85edad4"
                        ]
                    }
                ],
                "newPayloadVersion": "1",
                "forkchoiceUpdatedVersion": "1"
            },
            {
                "params": [
                    {
                        "parentHash": "0xbcde52e9361bb93c19b1b87b6d7c7a707c1699f5aa6f2d3cc61262ef981366cb",
                        "feeRecipient": "0x2adc25665018aa1fe0e6bc666dac8fc2697ff9ba",
                        "stateRoot": "0xf2f5fa5200b4ba838299def86d5358246340a583c617118415bf56943ea493cd",
                        "receiptsRoot": "0xb9f37c456281f08dd49ae5141bdf5ec52a05ac1647473f4790988dfc03451788",
                        "logsBloom": "0x00000000000000000000000000000000000000000000000000000000000000000000000000000000000000000000000000000000000000000000000000000000000000000000000000000000000000000000000000000000000000000000000000000000000000000000000000000000000000000000000000000000000000000000000000000000000000000000000000000000000000000000000000000000000000000000000000000000000000000000000000000000000000000000000000000000000000000000000000000000000000000000000000000000000000000000000000000000000000000000000000000000000000000000000000000000",
                        "blockNumber": "0x2",
                        "gasLimit": "0x44aa200",
                        "gasUsed": "0x200ab",
                        "timestamp": "0x18",
                        "extraData": "0x",
                        "prevRandao": "0x0000000000000000000000000000000000000000000000000000000000000000",
                        "baseFeePerGas": "0x7",
                        "blockHash": "0x751e061dc6a7e0a5591f3dcde9f780828b3988f48fd7c979c4b35d347e94eb3b",
                        "transactions": [
                            "0xf860020a830186a094ff2925f4cd8bed5eacbfb1f5c26d08f80922b6ca808025a03a47eb9050e2933dcd6ca8225fd1625c77fa6129f405a75b32a703a1d7cdcd2ea07d46acb8e01f737ba676f075e2f8626958d35e60279c89bbcc463d42d34eaa2e",
                            "0xf860030a830186a094ff2925f4cd8bed5eacbfb1f5c26d08f80922b6ca018026a036c3e33bf43b04aa77616e3f539cc641e29b4fb812c8db1d8ed90aa0a9966f47a013c958977ef342cfd4786f452d3fbe4251fcca85bcbe04e5aabc67ab98ff9f62",
                            "0xf87b040a830186a0940000000000000000000000000000000000001000809b610010600081600b8239f334600014600c5734600055005b6000ff25a06af55da14dc0fcbb21fd23deebb1f2ce2d98501330441cf160c8583c1fdd1f50a01fafe921fa716ba9d33f8a420f7fa39a9d1bb3ef98d0dc0b9d12985b31d5beb0"
                        ]
                    }
                ],
                "newPayloadVersion": "1",
                "forkchoiceUpdatedVersion": "1"
            }
        ],
        "_info": {
            "hash": "0x81ba538056cc8023b4c9dbdda3c5d2412e34941d60045d23d296bd70895badfe",
            "comment": "`execution-spec-tests` generated test",
            "filling-transition-tool": "ethereum-spec-evm-resolver 0.0.5",
            "description": "Test that the storage is cleared when a contract is first destructed then re-created using\n    CREATE2.",
            "url": "https://github.com/ethereum/execution-spec-tests/tree/v4.5.0/tests/constantinople/eip1014_create2/test_recreate.py#L24",
            "fixture-format": "blockchain_test_engine",
            "reference-spec": "https://github.com/ethereum/EIPs/blob/master/EIPS/eip-1014.md",
            "reference-spec-version": "31d4d62ec1dfc9f2bb26ca648f05d4cc2f47da09",
            "eels-resolution": {
                "git-url": "https://github.com/ethereum/execution-specs.git",
                "branch": "master",
                "commit": "fa847a0e48309debee8edc510ceddb2fd5db2f2e"
            }
        }
    },
    "tests/constantinople/eip1014_create2/test_recreate.py::test_recreate[fork_Paris-blockchain_test_engine-recreate_on_separate_block_True]": {
        "network": "Paris",
        "genesisBlockHeader": {
            "parentHash": "0x0000000000000000000000000000000000000000000000000000000000000000",
            "uncleHash": "0x1dcc4de8dec75d7aab85b567b6ccd41ad312451b948a7413f0a142fd40d49347",
            "coinbase": "0x0000000000000000000000000000000000000000",
            "stateRoot": "0x505721270b6f8e490a52f75aff2d978bc9c1cbadfab062e8c9b4b983f5fd631b",
            "transactionsTrie": "0x56e81f171bcc55a6ff8345e692c0f86e5b48e01b996cadc001622fb5e363b421",
            "receiptTrie": "0x56e81f171bcc55a6ff8345e692c0f86e5b48e01b996cadc001622fb5e363b421",
            "bloom": "0x00000000000000000000000000000000000000000000000000000000000000000000000000000000000000000000000000000000000000000000000000000000000000000000000000000000000000000000000000000000000000000000000000000000000000000000000000000000000000000000000000000000000000000000000000000000000000000000000000000000000000000000000000000000000000000000000000000000000000000000000000000000000000000000000000000000000000000000000000000000000000000000000000000000000000000000000000000000000000000000000000000000000000000000000000000000",
            "difficulty": "0x00",
            "number": "0x00",
            "gasLimit": "0x044aa200",
            "gasUsed": "0x00",
            "timestamp": "0x00",
            "extraData": "0x00",
            "mixHash": "0x0000000000000000000000000000000000000000000000000000000000000000",
            "nonce": "0x0000000000000000",
            "baseFeePerGas": "0x07",
            "hash": "0xe340708303d1252ad2a6739588f4f6a68fa135ad8babd6a4e0b4008583216caf"
        },
        "pre": {
            "0x0000000000000000000000000000000000001000": {
                "nonce": "0x01",
                "balance": "0x00",
                "code": "0x36600060003760003660006000f5",
                "storage": {}
            },
            "0xa94f5374fce5edbc8e2a8697c15331677e6ebf0b": {
                "nonce": "0x00",
                "balance": "0x3635c9adc5dea00000",
                "code": "0x",
                "storage": {}
            }
        },
        "postState": {
            "0x0000000000000000000000000000000000001000": {
                "nonce": "0x03",
                "balance": "0x00",
                "code": "0x36600060003760003660006000f5",
                "storage": {}
            },
            "0xa94f5374fce5edbc8e2a8697c15331677e6ebf0b": {
                "nonce": "0x05",
                "balance": "0x3635c9adc5de7cc110",
                "code": "0x",
                "storage": {}
            },
            "0x2adc25665018aa1fe0e6bc666dac8fc2697ff9ba": {
                "nonce": "0x00",
                "balance": "0x0a92e1",
                "code": "0x",
                "storage": {}
            },
            "0x0000000000000000000000000000000000000000": {
                "nonce": "0x00",
                "balance": "0x01",
                "code": "0x",
                "storage": {}
            },
            "0xff2925f4cd8bed5eacbfb1f5c26d08f80922b6ca": {
                "nonce": "0x01",
                "balance": "0x01",
                "code": "0x34600014600c5734600055005b6000ff",
                "storage": {}
            }
        },
        "lastblockhash": "0xf146b9bb28a7062d6b9c3f0729aa65b5c48d61c780c385fbb2563bf2eaa87d72",
        "config": {
            "network": "Paris",
            "chainid": "0x01"
        },
        "engineNewPayloads": [
            {
                "params": [
                    {
                        "parentHash": "0xe340708303d1252ad2a6739588f4f6a68fa135ad8babd6a4e0b4008583216caf",
                        "feeRecipient": "0x2adc25665018aa1fe0e6bc666dac8fc2697ff9ba",
                        "stateRoot": "0x3dcbc9b3d6fc622e4823ede1efbffe30525332a863b5c58b15f1a620f983b684",
                        "receiptsRoot": "0xff54271061ca2dfedc89a7da56880675d25f63ed847ccf4ef24ddf2d7b83ce2e",
                        "logsBloom": "0x00000000000000000000000000000000000000000000000000000000000000000000000000000000000000000000000000000000000000000000000000000000000000000000000000000000000000000000000000000000000000000000000000000000000000000000000000000000000000000000000000000000000000000000000000000000000000000000000000000000000000000000000000000000000000000000000000000000000000000000000000000000000000000000000000000000000000000000000000000000000000000000000000000000000000000000000000000000000000000000000000000000000000000000000000000000",
                        "blockNumber": "0x1",
                        "gasLimit": "0x44aa200",
                        "gasUsed": "0x185a0",
                        "timestamp": "0xc",
                        "extraData": "0x",
                        "prevRandao": "0x0000000000000000000000000000000000000000000000000000000000000000",
                        "baseFeePerGas": "0x7",
                        "blockHash": "0xbcde52e9361bb93c19b1b87b6d7c7a707c1699f5aa6f2d3cc61262ef981366cb",
                        "transactions": [
                            "0xf87b800a830186a0940000000000000000000000000000000000001000809b610010600081600b8239f334600014600c5734600055005b6000ff25a03e9df6f50cc1c6573d0d6a32808b7dfcd54aec10d8e8f3f1c479ec5600f2f20ca07b2cae28289be79f4d1bc589eb747a32be5a6f625402423d516e124bd4ceb609",
                            "0xf860010a830186a094ff2925f4cd8bed5eacbfb1f5c26d08f80922b6ca018026a0617859108abb7e6a3f6b6d5412cfe3a3faffad021abf76cc1bd383ebfd7686b8a058cd4c67bec08937f7a3ac50c2488260f503b079960df5fc4c4204eec85edad4"
                        ]
                    }
                ],
                "newPayloadVersion": "1",
                "forkchoiceUpdatedVersion": "1"
            },
            {
                "params": [
                    {
                        "parentHash": "0xbcde52e9361bb93c19b1b87b6d7c7a707c1699f5aa6f2d3cc61262ef981366cb",
                        "feeRecipient": "0x2adc25665018aa1fe0e6bc666dac8fc2697ff9ba",
                        "stateRoot": "0x715f1f1dcd711f770b30bb43aebd20a15098bea4b533e24c3ee324dae0aa9001",
                        "receiptsRoot": "0x8ada53349c2f06feac9ba1bbf6e85148742f3987eab93629728c42127e3a7240",
                        "logsBloom": "0x00000000000000000000000000000000000000000000000000000000000000000000000000000000000000000000000000000000000000000000000000000000000000000000000000000000000000000000000000000000000000000000000000000000000000000000000000000000000000000000000000000000000000000000000000000000000000000000000000000000000000000000000000000000000000000000000000000000000000000000000000000000000000000000000000000000000000000000000000000000000000000000000000000000000000000000000000000000000000000000000000000000000000000000000000000000",
                        "blockNumber": "0x2",
                        "gasLimit": "0x44aa200",
                        "gasUsed": "0x12381",
                        "timestamp": "0x18",
                        "extraData": "0x",
                        "prevRandao": "0x0000000000000000000000000000000000000000000000000000000000000000",
                        "baseFeePerGas": "0x7",
                        "blockHash": "0x9b95083df57e770dea268d2b9ca50010df315ddec352b472d5312b0fa8af9bf3",
                        "transactions": [
                            "0xf860020a830186a094ff2925f4cd8bed5eacbfb1f5c26d08f80922b6ca808025a03a47eb9050e2933dcd6ca8225fd1625c77fa6129f405a75b32a703a1d7cdcd2ea07d46acb8e01f737ba676f075e2f8626958d35e60279c89bbcc463d42d34eaa2e",
                            "0xf860030a830186a094ff2925f4cd8bed5eacbfb1f5c26d08f80922b6ca018026a036c3e33bf43b04aa77616e3f539cc641e29b4fb812c8db1d8ed90aa0a9966f47a013c958977ef342cfd4786f452d3fbe4251fcca85bcbe04e5aabc67ab98ff9f62"
                        ]
                    }
                ],
                "newPayloadVersion": "1",
                "forkchoiceUpdatedVersion": "1"
            },
            {
                "params": [
                    {
                        "parentHash": "0x9b95083df57e770dea268d2b9ca50010df315ddec352b472d5312b0fa8af9bf3",
                        "feeRecipient": "0x2adc25665018aa1fe0e6bc666dac8fc2697ff9ba",
                        "stateRoot": "0xf2f5fa5200b4ba838299def86d5358246340a583c617118415bf56943ea493cd",
                        "receiptsRoot": "0xa25697b6c6412e06e702b34fcf67b47212e93bfcec18a5970eca0ea593b0f020",
                        "logsBloom": "0x00000000000000000000000000000000000000000000000000000000000000000000000000000000000000000000000000000000000000000000000000000000000000000000000000000000000000000000000000000000000000000000000000000000000000000000000000000000000000000000000000000000000000000000000000000000000000000000000000000000000000000000000000000000000000000000000000000000000000000000000000000000000000000000000000000000000000000000000000000000000000000000000000000000000000000000000000000000000000000000000000000000000000000000000000000000",
                        "blockNumber": "0x3",
                        "gasLimit": "0x44aa200",
                        "gasUsed": "0xdd2a",
                        "timestamp": "0x24",
                        "extraData": "0x",
                        "prevRandao": "0x0000000000000000000000000000000000000000000000000000000000000000",
                        "baseFeePerGas": "0x7",
                        "blockHash": "0xf146b9bb28a7062d6b9c3f0729aa65b5c48d61c780c385fbb2563bf2eaa87d72",
                        "transactions": [
                            "0xf87b040a830186a0940000000000000000000000000000000000001000809b610010600081600b8239f334600014600c5734600055005b6000ff25a06af55da14dc0fcbb21fd23deebb1f2ce2d98501330441cf160c8583c1fdd1f50a01fafe921fa716ba9d33f8a420f7fa39a9d1bb3ef98d0dc0b9d12985b31d5beb0"
                        ]
                    }
                ],
                "newPayloadVersion": "1",
                "forkchoiceUpdatedVersion": "1"
            }
        ],
        "_info": {
            "hash": "0xe59232e14469c755a82dd170ceab7faae415df931533f643301c84788896349f",
            "comment": "`execution-spec-tests` generated test",
            "filling-transition-tool": "ethereum-spec-evm-resolver 0.0.5",
            "description": "Test that the storage is cleared when a contract is first destructed then re-created using\n    CREATE2.",
            "url": "https://github.com/ethereum/execution-spec-tests/tree/v4.5.0/tests/constantinople/eip1014_create2/test_recreate.py#L24",
            "fixture-format": "blockchain_test_engine",
            "reference-spec": "https://github.com/ethereum/EIPs/blob/master/EIPS/eip-1014.md",
            "reference-spec-version": "31d4d62ec1dfc9f2bb26ca648f05d4cc2f47da09",
            "eels-resolution": {
                "git-url": "https://github.com/ethereum/execution-specs.git",
                "branch": "master",
                "commit": "fa847a0e48309debee8edc510ceddb2fd5db2f2e"
            }
        }
    },
    "tests/constantinople/eip1014_create2/test_recreate.py::test_recreate[fork_Shanghai-blockchain_test_engine-recreate_on_separate_block_False]": {
        "network": "Shanghai",
        "genesisBlockHeader": {
            "parentHash": "0x0000000000000000000000000000000000000000000000000000000000000000",
            "uncleHash": "0x1dcc4de8dec75d7aab85b567b6ccd41ad312451b948a7413f0a142fd40d49347",
            "coinbase": "0x0000000000000000000000000000000000000000",
            "stateRoot": "0x505721270b6f8e490a52f75aff2d978bc9c1cbadfab062e8c9b4b983f5fd631b",
            "transactionsTrie": "0x56e81f171bcc55a6ff8345e692c0f86e5b48e01b996cadc001622fb5e363b421",
            "receiptTrie": "0x56e81f171bcc55a6ff8345e692c0f86e5b48e01b996cadc001622fb5e363b421",
            "bloom": "0x00000000000000000000000000000000000000000000000000000000000000000000000000000000000000000000000000000000000000000000000000000000000000000000000000000000000000000000000000000000000000000000000000000000000000000000000000000000000000000000000000000000000000000000000000000000000000000000000000000000000000000000000000000000000000000000000000000000000000000000000000000000000000000000000000000000000000000000000000000000000000000000000000000000000000000000000000000000000000000000000000000000000000000000000000000000",
            "difficulty": "0x00",
            "number": "0x00",
            "gasLimit": "0x044aa200",
            "gasUsed": "0x00",
            "timestamp": "0x00",
            "extraData": "0x00",
            "mixHash": "0x0000000000000000000000000000000000000000000000000000000000000000",
            "nonce": "0x0000000000000000",
            "baseFeePerGas": "0x07",
            "withdrawalsRoot": "0x56e81f171bcc55a6ff8345e692c0f86e5b48e01b996cadc001622fb5e363b421",
            "hash": "0x6871b0fe99bd2fb5058c8871fc1621f370a74e1eeb4de5b1ed144ba5701b9214"
        },
        "pre": {
            "0x0000000000000000000000000000000000001000": {
                "nonce": "0x01",
                "balance": "0x00",
                "code": "0x36600060003760003660006000f5",
                "storage": {}
            },
            "0xa94f5374fce5edbc8e2a8697c15331677e6ebf0b": {
                "nonce": "0x00",
                "balance": "0x3635c9adc5dea00000",
                "code": "0x",
                "storage": {}
            }
        },
        "postState": {
            "0x0000000000000000000000000000000000001000": {
                "nonce": "0x03",
                "balance": "0x00",
                "code": "0x36600060003760003660006000f5",
                "storage": {}
            },
            "0xa94f5374fce5edbc8e2a8697c15331677e6ebf0b": {
                "nonce": "0x05",
                "balance": "0x3635c9adc5de7cf0e0",
                "code": "0x",
                "storage": {}
            },
            "0x2adc25665018aa1fe0e6bc666dac8fc2697ff9ba": {
                "nonce": "0x00",
                "balance": "0x0a8489",
                "code": "0x",
                "storage": {}
            },
            "0x0000000000000000000000000000000000000000": {
                "nonce": "0x00",
                "balance": "0x01",
                "code": "0x",
                "storage": {}
            },
            "0x8233971fbfc2437fda60d338ad9328184615ffef": {
                "nonce": "0x01",
                "balance": "0x01",
                "code": "0x345f14600a57345f55005b5fff",
                "storage": {}
            }
        },
        "lastblockhash": "0x4e1d840b13802db76789b19213108cedc3e27f49e136c172a36d01220f8f2be4",
        "config": {
            "network": "Shanghai",
            "chainid": "0x01"
        },
        "engineNewPayloads": [
            {
                "params": [
                    {
                        "parentHash": "0x6871b0fe99bd2fb5058c8871fc1621f370a74e1eeb4de5b1ed144ba5701b9214",
                        "feeRecipient": "0x2adc25665018aa1fe0e6bc666dac8fc2697ff9ba",
                        "stateRoot": "0xcf9cda60fcb55585c5e93f1cbc4f7888bc840d493d7a2242e0b239beaa1651f2",
                        "receiptsRoot": "0x4be80ebc17b2c605611cb4f6e488b6e83190ad796f75004c6080b9965917eef7",
                        "logsBloom": "0x00000000000000000000000000000000000000000000000000000000000000000000000000000000000000000000000000000000000000000000000000000000000000000000000000000000000000000000000000000000000000000000000000000000000000000000000000000000000000000000000000000000000000000000000000000000000000000000000000000000000000000000000000000000000000000000000000000000000000000000000000000000000000000000000000000000000000000000000000000000000000000000000000000000000000000000000000000000000000000000000000000000000000000000000000000000",
                        "blockNumber": "0x1",
                        "gasLimit": "0x44aa200",
                        "gasUsed": "0x1833c",
                        "timestamp": "0xc",
                        "extraData": "0x",
                        "prevRandao": "0x0000000000000000000000000000000000000000000000000000000000000000",
                        "baseFeePerGas": "0x7",
                        "blockHash": "0x88d4f519edbe302dff41814e6eb0a68e9ef46354a1aa7175966eaf9fcb5b2591",
                        "transactions": [
                            "0xf878800a830186a0940000000000000000000000000000000000001000809861000d600081600b8239f3345f14600a57345f55005b5fff25a07634783f68246e9adc23d27b417f889cce23b15358a8ece4bd73c930f4769987a0397f263e01f72842e2462edf4c51db859057fafd268c518f09a6ac1229b0b214",
                            "0xf860010a830186a0948233971fbfc2437fda60d338ad9328184615ffef018025a0ef7ac764cf2bed6e14ad1285046cf44042441897f0a31114046bd6aa5053151fa02a64917efc48093bd10fe8c0cbf4ecc77fca41a2fc40188f398a5485528079c5"
                        ],
                        "withdrawals": []
                    }
                ],
                "newPayloadVersion": "2",
                "forkchoiceUpdatedVersion": "2"
            },
            {
                "params": [
                    {
                        "parentHash": "0x88d4f519edbe302dff41814e6eb0a68e9ef46354a1aa7175966eaf9fcb5b2591",
                        "feeRecipient": "0x2adc25665018aa1fe0e6bc666dac8fc2697ff9ba",
                        "stateRoot": "0xdc55b67a2b6a2d39bca6dcf249239ac6b4a9986e4900f1cd2f8440aa41b76d89",
                        "receiptsRoot": "0xbfc7c6158a8b8645a3da04ad53f389e344076997986f67046402b055f9b584d7",
                        "logsBloom": "0x00000000000000000000000000000000000000000000000000000000000000000000000000000000000000000000000000000000000000000000000000000000000000000000000000000000000000000000000000000000000000000000000000000000000000000000000000000000000000000000000000000000000000000000000000000000000000000000000000000000000000000000000000000000000000000000000000000000000000000000000000000000000000000000000000000000000000000000000000000000000000000000000000000000000000000000000000000000000000000000000000000000000000000000000000000000",
                        "blockNumber": "0x2",
                        "gasLimit": "0x44aa200",
                        "gasUsed": "0x1fe47",
                        "timestamp": "0x18",
                        "extraData": "0x",
                        "prevRandao": "0x0000000000000000000000000000000000000000000000000000000000000000",
                        "baseFeePerGas": "0x7",
                        "blockHash": "0x4e1d840b13802db76789b19213108cedc3e27f49e136c172a36d01220f8f2be4",
                        "transactions": [
                            "0xf860020a830186a0948233971fbfc2437fda60d338ad9328184615ffef808025a0d7b94f5188007df33fd705a9af3fcfde3fbb45322dc5cc5f0c030e222703f0f7a047266fab2988a425e8aede5426302c69cd9748355a7b495efacf0fcf484c8622",
                            "0xf860030a830186a0948233971fbfc2437fda60d338ad9328184615ffef018026a05ecdee775ac16ea11ed7601c172909c638c08813e64f2f06c5e15cebfbf32937a01b1ca95c310d159de95abfc56491ef1dc6e1b42129f006217acd81b8228b3e7c",
                            "0xf878040a830186a0940000000000000000000000000000000000001000809861000d600081600b8239f3345f14600a57345f55005b5fff25a048ccb101ec93da1a7b056892fc03a42b6a792ba6edadc0eb4ab3ad4d4f4e80a2a0740d777112e2faecb91ba0c75afb3f9ef6fc74dbc0301672cc5e0e6bd2594ff3"
                        ],
                        "withdrawals": []
                    }
                ],
                "newPayloadVersion": "2",
                "forkchoiceUpdatedVersion": "2"
            }
        ],
        "_info": {
            "hash": "0xe7729c6c0cf4ff40b69e992bc8de59071d26ec03f8a9379835f06c82ffaa6f33",
            "comment": "`execution-spec-tests` generated test",
            "filling-transition-tool": "ethereum-spec-evm-resolver 0.0.5",
            "description": "Test that the storage is cleared when a contract is first destructed then re-created using\n    CREATE2.",
            "url": "https://github.com/ethereum/execution-spec-tests/tree/v4.5.0/tests/constantinople/eip1014_create2/test_recreate.py#L24",
            "fixture-format": "blockchain_test_engine",
            "reference-spec": "https://github.com/ethereum/EIPs/blob/master/EIPS/eip-1014.md",
            "reference-spec-version": "31d4d62ec1dfc9f2bb26ca648f05d4cc2f47da09",
            "eels-resolution": {
                "git-url": "https://github.com/ethereum/execution-specs.git",
                "branch": "master",
                "commit": "fa847a0e48309debee8edc510ceddb2fd5db2f2e"
            }
        }
    },
    "tests/constantinople/eip1014_create2/test_recreate.py::test_recreate[fork_Shanghai-blockchain_test_engine-recreate_on_separate_block_True]": {
        "network": "Shanghai",
        "genesisBlockHeader": {
            "parentHash": "0x0000000000000000000000000000000000000000000000000000000000000000",
            "uncleHash": "0x1dcc4de8dec75d7aab85b567b6ccd41ad312451b948a7413f0a142fd40d49347",
            "coinbase": "0x0000000000000000000000000000000000000000",
            "stateRoot": "0x505721270b6f8e490a52f75aff2d978bc9c1cbadfab062e8c9b4b983f5fd631b",
            "transactionsTrie": "0x56e81f171bcc55a6ff8345e692c0f86e5b48e01b996cadc001622fb5e363b421",
            "receiptTrie": "0x56e81f171bcc55a6ff8345e692c0f86e5b48e01b996cadc001622fb5e363b421",
            "bloom": "0x00000000000000000000000000000000000000000000000000000000000000000000000000000000000000000000000000000000000000000000000000000000000000000000000000000000000000000000000000000000000000000000000000000000000000000000000000000000000000000000000000000000000000000000000000000000000000000000000000000000000000000000000000000000000000000000000000000000000000000000000000000000000000000000000000000000000000000000000000000000000000000000000000000000000000000000000000000000000000000000000000000000000000000000000000000000",
            "difficulty": "0x00",
            "number": "0x00",
            "gasLimit": "0x044aa200",
            "gasUsed": "0x00",
            "timestamp": "0x00",
            "extraData": "0x00",
            "mixHash": "0x0000000000000000000000000000000000000000000000000000000000000000",
            "nonce": "0x0000000000000000",
            "baseFeePerGas": "0x07",
            "withdrawalsRoot": "0x56e81f171bcc55a6ff8345e692c0f86e5b48e01b996cadc001622fb5e363b421",
            "hash": "0x6871b0fe99bd2fb5058c8871fc1621f370a74e1eeb4de5b1ed144ba5701b9214"
        },
        "pre": {
            "0x0000000000000000000000000000000000001000": {
                "nonce": "0x01",
                "balance": "0x00",
                "code": "0x36600060003760003660006000f5",
                "storage": {}
            },
            "0xa94f5374fce5edbc8e2a8697c15331677e6ebf0b": {
                "nonce": "0x00",
                "balance": "0x3635c9adc5dea00000",
                "code": "0x",
                "storage": {}
            }
        },
        "postState": {
            "0x0000000000000000000000000000000000001000": {
                "nonce": "0x03",
                "balance": "0x00",
                "code": "0x36600060003760003660006000f5",
                "storage": {}
            },
            "0xa94f5374fce5edbc8e2a8697c15331677e6ebf0b": {
                "nonce": "0x05",
                "balance": "0x3635c9adc5de7cf0e0",
                "code": "0x",
                "storage": {}
            },
            "0x2adc25665018aa1fe0e6bc666dac8fc2697ff9ba": {
                "nonce": "0x00",
                "balance": "0x0a8489",
                "code": "0x",
                "storage": {}
            },
            "0x0000000000000000000000000000000000000000": {
                "nonce": "0x00",
                "balance": "0x01",
                "code": "0x",
                "storage": {}
            },
            "0x8233971fbfc2437fda60d338ad9328184615ffef": {
                "nonce": "0x01",
                "balance": "0x01",
                "code": "0x345f14600a57345f55005b5fff",
                "storage": {}
            }
        },
        "lastblockhash": "0xf81a0a46c2142b6614a1e1fa5dc345e7a9a8810a7b0745ab0de0b567425a4f13",
        "config": {
            "network": "Shanghai",
            "chainid": "0x01"
        },
        "engineNewPayloads": [
            {
                "params": [
                    {
                        "parentHash": "0x6871b0fe99bd2fb5058c8871fc1621f370a74e1eeb4de5b1ed144ba5701b9214",
                        "feeRecipient": "0x2adc25665018aa1fe0e6bc666dac8fc2697ff9ba",
                        "stateRoot": "0xcf9cda60fcb55585c5e93f1cbc4f7888bc840d493d7a2242e0b239beaa1651f2",
                        "receiptsRoot": "0x4be80ebc17b2c605611cb4f6e488b6e83190ad796f75004c6080b9965917eef7",
                        "logsBloom": "0x00000000000000000000000000000000000000000000000000000000000000000000000000000000000000000000000000000000000000000000000000000000000000000000000000000000000000000000000000000000000000000000000000000000000000000000000000000000000000000000000000000000000000000000000000000000000000000000000000000000000000000000000000000000000000000000000000000000000000000000000000000000000000000000000000000000000000000000000000000000000000000000000000000000000000000000000000000000000000000000000000000000000000000000000000000000",
                        "blockNumber": "0x1",
                        "gasLimit": "0x44aa200",
                        "gasUsed": "0x1833c",
                        "timestamp": "0xc",
                        "extraData": "0x",
                        "prevRandao": "0x0000000000000000000000000000000000000000000000000000000000000000",
                        "baseFeePerGas": "0x7",
                        "blockHash": "0x88d4f519edbe302dff41814e6eb0a68e9ef46354a1aa7175966eaf9fcb5b2591",
                        "transactions": [
                            "0xf878800a830186a0940000000000000000000000000000000000001000809861000d600081600b8239f3345f14600a57345f55005b5fff25a07634783f68246e9adc23d27b417f889cce23b15358a8ece4bd73c930f4769987a0397f263e01f72842e2462edf4c51db859057fafd268c518f09a6ac1229b0b214",
                            "0xf860010a830186a0948233971fbfc2437fda60d338ad9328184615ffef018025a0ef7ac764cf2bed6e14ad1285046cf44042441897f0a31114046bd6aa5053151fa02a64917efc48093bd10fe8c0cbf4ecc77fca41a2fc40188f398a5485528079c5"
                        ],
                        "withdrawals": []
                    }
                ],
                "newPayloadVersion": "2",
                "forkchoiceUpdatedVersion": "2"
            },
            {
                "params": [
                    {
                        "parentHash": "0x88d4f519edbe302dff41814e6eb0a68e9ef46354a1aa7175966eaf9fcb5b2591",
                        "feeRecipient": "0x2adc25665018aa1fe0e6bc666dac8fc2697ff9ba",
                        "stateRoot": "0xed8807b77422c7d12e54945fb9a47d6635982a3b38eed37eaff85b9175afec46",
                        "receiptsRoot": "0xf1b9f601d9c86472b4af98d2e9a5a5e7b4261eb3f20d18006fcede6e4bbfac76",
                        "logsBloom": "0x00000000000000000000000000000000000000000000000000000000000000000000000000000000000000000000000000000000000000000000000000000000000000000000000000000000000000000000000000000000000000000000000000000000000000000000000000000000000000000000000000000000000000000000000000000000000000000000000000000000000000000000000000000000000000000000000000000000000000000000000000000000000000000000000000000000000000000000000000000000000000000000000000000000000000000000000000000000000000000000000000000000000000000000000000000000",
                        "blockNumber": "0x2",
                        "gasLimit": "0x44aa200",
                        "gasUsed": "0x1237f",
                        "timestamp": "0x18",
                        "extraData": "0x",
                        "prevRandao": "0x0000000000000000000000000000000000000000000000000000000000000000",
                        "baseFeePerGas": "0x7",
                        "blockHash": "0x607c5e659afb2050223bbd804f144302e28bce4ba3bfe3b5959af0f14662f08f",
                        "transactions": [
                            "0xf860020a830186a0948233971fbfc2437fda60d338ad9328184615ffef808025a0d7b94f5188007df33fd705a9af3fcfde3fbb45322dc5cc5f0c030e222703f0f7a047266fab2988a425e8aede5426302c69cd9748355a7b495efacf0fcf484c8622",
                            "0xf860030a830186a0948233971fbfc2437fda60d338ad9328184615ffef018026a05ecdee775ac16ea11ed7601c172909c638c08813e64f2f06c5e15cebfbf32937a01b1ca95c310d159de95abfc56491ef1dc6e1b42129f006217acd81b8228b3e7c"
                        ],
                        "withdrawals": []
                    }
                ],
                "newPayloadVersion": "2",
                "forkchoiceUpdatedVersion": "2"
            },
            {
                "params": [
                    {
                        "parentHash": "0x607c5e659afb2050223bbd804f144302e28bce4ba3bfe3b5959af0f14662f08f",
                        "feeRecipient": "0x2adc25665018aa1fe0e6bc666dac8fc2697ff9ba",
                        "stateRoot": "0xdc55b67a2b6a2d39bca6dcf249239ac6b4a9986e4900f1cd2f8440aa41b76d89",
                        "receiptsRoot": "0x96570531f04b6941b8846ba05b005030407bb810ff5062169d08ea6dbefaba92",
                        "logsBloom": "0x00000000000000000000000000000000000000000000000000000000000000000000000000000000000000000000000000000000000000000000000000000000000000000000000000000000000000000000000000000000000000000000000000000000000000000000000000000000000000000000000000000000000000000000000000000000000000000000000000000000000000000000000000000000000000000000000000000000000000000000000000000000000000000000000000000000000000000000000000000000000000000000000000000000000000000000000000000000000000000000000000000000000000000000000000000000",
                        "blockNumber": "0x3",
                        "gasLimit": "0x44aa200",
                        "gasUsed": "0xdac8",
                        "timestamp": "0x24",
                        "extraData": "0x",
                        "prevRandao": "0x0000000000000000000000000000000000000000000000000000000000000000",
                        "baseFeePerGas": "0x7",
                        "blockHash": "0xf81a0a46c2142b6614a1e1fa5dc345e7a9a8810a7b0745ab0de0b567425a4f13",
                        "transactions": [
                            "0xf878040a830186a0940000000000000000000000000000000000001000809861000d600081600b8239f3345f14600a57345f55005b5fff25a048ccb101ec93da1a7b056892fc03a42b6a792ba6edadc0eb4ab3ad4d4f4e80a2a0740d777112e2faecb91ba0c75afb3f9ef6fc74dbc0301672cc5e0e6bd2594ff3"
                        ],
                        "withdrawals": []
                    }
                ],
                "newPayloadVersion": "2",
                "forkchoiceUpdatedVersion": "2"
            }
        ],
        "_info": {
            "hash": "0x3d79f2c53a528d9670f671d4fe014e94598ee3c66e0b38e3a3f98ba9d23c0a00",
            "comment": "`execution-spec-tests` generated test",
            "filling-transition-tool": "ethereum-spec-evm-resolver 0.0.5",
            "description": "Test that the storage is cleared when a contract is first destructed then re-created using\n    CREATE2.",
            "url": "https://github.com/ethereum/execution-spec-tests/tree/v4.5.0/tests/constantinople/eip1014_create2/test_recreate.py#L24",
            "fixture-format": "blockchain_test_engine",
            "reference-spec": "https://github.com/ethereum/EIPs/blob/master/EIPS/eip-1014.md",
            "reference-spec-version": "31d4d62ec1dfc9f2bb26ca648f05d4cc2f47da09",
            "eels-resolution": {
                "git-url": "https://github.com/ethereum/execution-specs.git",
                "branch": "master",
                "commit": "fa847a0e48309debee8edc510ceddb2fd5db2f2e"
            }
        }
    }
}