{
    "tests/cancun/eip6780_selfdestruct/test_selfdestruct_revert.py::test_selfdestruct_created_in_same_tx_with_revert[fork_Cancun-blockchain_test_from_state_test-no_outer_selfdestruct-same_tx]": {
        "network": "Cancun",
        "genesisBlockHeader": {
            "parentHash": "0x0000000000000000000000000000000000000000000000000000000000000000",
            "uncleHash": "0x1dcc4de8dec75d7aab85b567b6ccd41ad312451b948a7413f0a142fd40d49347",
            "coinbase": "0x0000000000000000000000000000000000000000",
            "stateRoot": "0xd7739c6eb8a81d9e97c091a8f0890a8b416cb75f2b1090b53272fcf9dba3ec14",
            "transactionsTrie": "0x56e81f171bcc55a6ff8345e692c0f86e5b48e01b996cadc001622fb5e363b421",
            "receiptTrie": "0x56e81f171bcc55a6ff8345e692c0f86e5b48e01b996cadc001622fb5e363b421",
            "bloom": "0x00000000000000000000000000000000000000000000000000000000000000000000000000000000000000000000000000000000000000000000000000000000000000000000000000000000000000000000000000000000000000000000000000000000000000000000000000000000000000000000000000000000000000000000000000000000000000000000000000000000000000000000000000000000000000000000000000000000000000000000000000000000000000000000000000000000000000000000000000000000000000000000000000000000000000000000000000000000000000000000000000000000000000000000000000000000",
            "difficulty": "0x00",
            "number": "0x00",
            "gasLimit": "0x044aa200",
            "gasUsed": "0x00",
            "timestamp": "0x00",
            "extraData": "0x00",
            "mixHash": "0x0000000000000000000000000000000000000000000000000000000000000000",
            "nonce": "0x0000000000000000",
            "baseFeePerGas": "0x07",
            "withdrawalsRoot": "0x56e81f171bcc55a6ff8345e692c0f86e5b48e01b996cadc001622fb5e363b421",
            "blobGasUsed": "0x00",
            "excessBlobGas": "0x00",
            "parentBeaconBlockRoot": "0x0000000000000000000000000000000000000000000000000000000000000000",
            "hash": "0x181b6ba2e1a222afb6b89b29b7cbfb426e33d4db6db45d7c76af6e596d64081e"
        },
        "pre": {
            "0x000f3df6d732807ef1319fb7b8bb8522d0beac02": {
                "nonce": "0x01",
                "balance": "0x00",
                "code": "0x3373fffffffffffffffffffffffffffffffffffffffe14604d57602036146024575f5ffd5b5f35801560495762001fff810690815414603c575f5ffd5b62001fff01545f5260205ff35b5f5ffd5b62001fff42064281555f359062001fff015500",
                "storage": {}
            },
            "0xa94f5374fce5edbc8e2a8697c15331677e6ebf0b": {
                "nonce": "0x00",
                "balance": "0x3635c9adc5dea00000",
                "code": "0x",
                "storage": {}
            },
            "0x0000000000000000000000000000000000001000": {
                "nonce": "0x01",
                "balance": "0x00",
                "code": "0x610039600081600b8239f35f35805f14602e57600114600f57005b6001805401600155738a0a19589531694250d570040a0c4b74576919b8ff5b60015f54015f555f80f3",
                "storage": {}
            },
            "0x0000000000000000000000000000000000001100": {
                "nonce": "0x01",
                "balance": "0x03",
                "code": "0x5f356001815f1460385750600114601257005b60015f525f8060208160017364e2ebd6405af8cb348aec519084d3fff42ebba645f15f80fd5b5f80525f8060208160017364e2ebd6405af8cb348aec519084d3fff42ebba645f1505f525f80602081803045f1507364e2ebd6405af8cb348aec519084d3fff42ebba6316001555f80f3",
                "storage": {}
            }
        },
        "postState": {
            "0x000f3df6d732807ef1319fb7b8bb8522d0beac02": {
                "nonce": "0x01",
                "balance": "0x00",
                "code": "0x3373fffffffffffffffffffffffffffffffffffffffe14604d57602036146024575f5ffd5b5f35801560495762001fff810690815414603c575f5ffd5b62001fff01545f5260205ff35b5f5ffd5b62001fff42064281555f359062001fff015500",
                "storage": {
                    "0x03e8": "0x03e8"
                }
            },
            "0xa94f5374fce5edbc8e2a8697c15331677e6ebf0b": {
                "nonce": "0x01",
                "balance": "0x3635c9adc5de7bce2e",
                "code": "0x",
                "storage": {}
            },
            "0x0000000000000000000000000000000000001000": {
                "nonce": "0x01",
                "balance": "0x00",
                "code": "0x610039600081600b8239f35f35805f14602e57600114600f57005b6001805401600155738a0a19589531694250d570040a0c4b74576919b8ff5b60015f54015f555f80f3",
                "storage": {}
            },
            "0x0000000000000000000000000000000000001100": {
                "nonce": "0x01",
                "balance": "0x02",
                "code": "0x5f356001815f1460385750600114601257005b60015f525f8060208160017364e2ebd6405af8cb348aec519084d3fff42ebba645f15f80fd5b5f80525f8060208160017364e2ebd6405af8cb348aec519084d3fff42ebba645f1505f525f80602081803045f1507364e2ebd6405af8cb348aec519084d3fff42ebba6316001555f80f3",
                "storage": {
                    "0x01": "0x01"
                }
            },
            "0x6295ee1b4f6dd65047762f924ecd367c17eabf8f": {
                "nonce": "0x02",
                "balance": "0x00",
                "code": "0x",
                "storage": {
                    "0x00": "0x64e2ebd6405af8cb348aec519084d3fff42ebba6"
                }
            },
            "0x64e2ebd6405af8cb348aec519084d3fff42ebba6": {
                "nonce": "0x01",
                "balance": "0x01",
                "code": "0x5f35805f14602e57600114600f57005b6001805401600155738a0a19589531694250d570040a0c4b74576919b8ff5b60015f54015f555f80f3",
                "storage": {
                    "0x00": "0x01"
                }
            },
            "0x2adc25665018aa1fe0e6bc666dac8fc2697ff9ba": {
                "nonce": "0x00",
                "balance": "0x0adbbf",
                "code": "0x",
                "storage": {}
            }
        },
        "lastblockhash": "0x14f9d9a1ae61413b10e023b3de8f314e4ba877411cef00c8ed286a6120158f63",
        "config": {
            "network": "Cancun",
            "chainid": "0x01",
            "blobSchedule": {
                "Cancun": {
                    "target": "0x03",
                    "max": "0x06",
                    "baseFeeUpdateFraction": "0x32f0ed"
                }
            }
        },
        "genesisRLP": "0xf9023cf90236a00000000000000000000000000000000000000000000000000000000000000000a01dcc4de8dec75d7aab85b567b6ccd41ad312451b948a7413f0a142fd40d49347940000000000000000000000000000000000000000a0d7739c6eb8a81d9e97c091a8f0890a8b416cb75f2b1090b53272fcf9dba3ec14a056e81f171bcc55a6ff8345e692c0f86e5b48e01b996cadc001622fb5e363b421a056e81f171bcc55a6ff8345e692c0f86e5b48e01b996cadc001622fb5e363b421b9010000000000000000000000000000000000000000000000000000000000000000000000000000000000000000000000000000000000000000000000000000000000000000000000000000000000000000000000000000000000000000000000000000000000000000000000000000000000000000000000000000000000000000000000000000000000000000000000000000000000000000000000000000000000000000000000000000000000000000000000000000000000000000000000000000000000000000000000000000000000000000000000000000000000000000000000000000000000000000000000000000000000000000000000000000000000808084044aa200808000a0000000000000000000000000000000000000000000000000000000000000000088000000000000000007a056e81f171bcc55a6ff8345e692c0f86e5b48e01b996cadc001622fb5e363b4218080a00000000000000000000000000000000000000000000000000000000000000000c0c0c0",
        "blocks": [
            {
                "blockHeader": {
                    "parentHash": "0x181b6ba2e1a222afb6b89b29b7cbfb426e33d4db6db45d7c76af6e596d64081e",
                    "uncleHash": "0x1dcc4de8dec75d7aab85b567b6ccd41ad312451b948a7413f0a142fd40d49347",
                    "coinbase": "0x2adc25665018aa1fe0e6bc666dac8fc2697ff9ba",
                    "stateRoot": "0xa63b294f850b29676134dc5dd1244339df1844afd8f23e694c045e066be6ca75",
                    "transactionsTrie": "0x80ddf2bffb3b3134db3eb055b24dbcc5e94a2cfa9d4fc590e090ee09e0b9ce60",
                    "receiptTrie": "0xf6b34a82f10a60891fa2818ad80d4b1394da7b1b34379113edc9a06f3a29900b",
                    "bloom": "0x00000000000000000000000000000000000000000000000000000000000000000000000000000000000000000000000000000000000000000000000000000000000000000000000000000000000000000000000000000000000000000000000000000000000000000000000000000000000000000000000000000000000000000000000000000000000000000000000000000000000000000000000000000000000000000000000000000000000000000000000000000000000000000000000000000000000000000000000000000000000000000000000000000000000000000000000000000000000000000000000000000000000000000000000000000000",
                    "difficulty": "0x00",
                    "number": "0x01",
                    "gasLimit": "0x044aa200",
                    "gasUsed": "0x039e95",
                    "timestamp": "0x03e8",
                    "extraData": "0x00",
                    "mixHash": "0x0000000000000000000000000000000000000000000000000000000000000000",
                    "nonce": "0x0000000000000000",
                    "baseFeePerGas": "0x07",
                    "withdrawalsRoot": "0x56e81f171bcc55a6ff8345e692c0f86e5b48e01b996cadc001622fb5e363b421",
                    "blobGasUsed": "0x00",
                    "excessBlobGas": "0x00",
                    "parentBeaconBlockRoot": "0x0000000000000000000000000000000000000000000000000000000000000000",
                    "hash": "0x14f9d9a1ae61413b10e023b3de8f314e4ba877411cef00c8ed286a6120158f63"
                },
                "transactions": [
                    {
                        "type": "0x00",
                        "chainId": "0x01",
                        "nonce": "0x00",
                        "gasPrice": "0x0a",
                        "gasLimit": "0x01312d00",
                        "value": "0x00",
                        "data": "0x6044600060006110003c604460006000f06000556000600060006000600061110045f1",
                        "v": "0x25",
                        "r": "0xedf6c0996679c6afbbe7913f657a68f2801d06e538fa9a87ecef821d312ae3eb",
                        "s": "0x05bc89ac8d0dbff67fbc5f6debacb828c633e28b1910734945e7e73b31390c1e",
                        "sender": "0xa94f5374fce5edbc8e2a8697c15331677e6ebf0b",
                        "to": ""
                    }
                ],
                "uncleHeaders": [],
                "withdrawals": [],
                "rlp": "0xf902b4f9023ba0181b6ba2e1a222afb6b89b29b7cbfb426e33d4db6db45d7c76af6e596d64081ea01dcc4de8dec75d7aab85b567b6ccd41ad312451b948a7413f0a142fd40d49347942adc25665018aa1fe0e6bc666dac8fc2697ff9baa0a63b294f850b29676134dc5dd1244339df1844afd8f23e694c045e066be6ca75a080ddf2bffb3b3134db3eb055b24dbcc5e94a2cfa9d4fc590e090ee09e0b9ce60a0f6b34a82f10a60891fa2818ad80d4b1394da7b1b34379113edc9a06f3a29900bb9010000000000000000000000000000000000000000000000000000000000000000000000000000000000000000000000000000000000000000000000000000000000000000000000000000000000000000000000000000000000000000000000000000000000000000000000000000000000000000000000000000000000000000000000000000000000000000000000000000000000000000000000000000000000000000000000000000000000000000000000000000000000000000000000000000000000000000000000000000000000000000000000000000000000000000000000000000000000000000000000000000000000000000000000000000000000800184044aa20083039e958203e800a0000000000000000000000000000000000000000000000000000000000000000088000000000000000007a056e81f171bcc55a6ff8345e692c0f86e5b48e01b996cadc001622fb5e363b4218080a00000000000000000000000000000000000000000000000000000000000000000f872f870800a8401312d008080a36044600060006110003c604460006000f06000556000600060006000600061110045f125a0edf6c0996679c6afbbe7913f657a68f2801d06e538fa9a87ecef821d312ae3eba005bc89ac8d0dbff67fbc5f6debacb828c633e28b1910734945e7e73b31390c1ec0c0",
                "blocknumber": "1"
            }
        ],
        "sealEngine": "NoProof",
        "_info": {
            "hash": "0xd52fd87cba68cf1f867fcdd5fcdd272b47c21720071f8b3cc9d512f09692f2a5",
            "comment": "`execution-spec-tests` generated test",
            "filling-transition-tool": "ethereum-spec-evm-resolver 0.0.5",
            "description": "Given:\n        Contract A which has methods to receive balance and selfdestruct, and was created in current tx\n    Test the following call sequence:\n         Transfer value to A and call A.selfdestruct.\n         Recurse into a new call from transfers value to A, calls A.selfdestruct, and reverts.",
            "url": "https://github.com/ethereum/execution-spec-tests/tree/v4.5.0/tests/cancun/eip6780_selfdestruct/test_selfdestruct_revert.py#L192",
            "fixture-format": "blockchain_test",
            "reference-spec": "https://github.com/ethereum/EIPs/blob/master/EIPS/eip-6780.md",
            "reference-spec-version": "1b6a0e94cc47e859b9866e570391cf37dc55059a",
            "eels-resolution": {
                "git-url": "https://github.com/ethereum/execution-specs.git",
                "branch": "master",
                "commit": "fa847a0e48309debee8edc510ceddb2fd5db2f2e"
            }
        }
    },
    "tests/cancun/eip6780_selfdestruct/test_selfdestruct_revert.py::test_selfdestruct_created_in_same_tx_with_revert[fork_Cancun-blockchain_test_from_state_test-outer_selfdestruct_after_inner_call-same_tx]": {
        "network": "Cancun",
        "genesisBlockHeader": {
            "parentHash": "0x0000000000000000000000000000000000000000000000000000000000000000",
            "uncleHash": "0x1dcc4de8dec75d7aab85b567b6ccd41ad312451b948a7413f0a142fd40d49347",
            "coinbase": "0x0000000000000000000000000000000000000000",
            "stateRoot": "0xa0e9f8e08ee431aee653607c7ca9ffded88469b44c94edfc905ba5261efd7a2d",
            "transactionsTrie": "0x56e81f171bcc55a6ff8345e692c0f86e5b48e01b996cadc001622fb5e363b421",
            "receiptTrie": "0x56e81f171bcc55a6ff8345e692c0f86e5b48e01b996cadc001622fb5e363b421",
            "bloom": "0x00000000000000000000000000000000000000000000000000000000000000000000000000000000000000000000000000000000000000000000000000000000000000000000000000000000000000000000000000000000000000000000000000000000000000000000000000000000000000000000000000000000000000000000000000000000000000000000000000000000000000000000000000000000000000000000000000000000000000000000000000000000000000000000000000000000000000000000000000000000000000000000000000000000000000000000000000000000000000000000000000000000000000000000000000000000",
            "difficulty": "0x00",
            "number": "0x00",
            "gasLimit": "0x044aa200",
            "gasUsed": "0x00",
            "timestamp": "0x00",
            "extraData": "0x00",
            "mixHash": "0x0000000000000000000000000000000000000000000000000000000000000000",
            "nonce": "0x0000000000000000",
            "baseFeePerGas": "0x07",
            "withdrawalsRoot": "0x56e81f171bcc55a6ff8345e692c0f86e5b48e01b996cadc001622fb5e363b421",
            "blobGasUsed": "0x00",
            "excessBlobGas": "0x00",
            "parentBeaconBlockRoot": "0x0000000000000000000000000000000000000000000000000000000000000000",
            "hash": "0x6bd902a775c4ad318bad10bbcc82b3c52a79c9d3efa482ec5436fe9eca615a43"
        },
        "pre": {
            "0x000f3df6d732807ef1319fb7b8bb8522d0beac02": {
                "nonce": "0x01",
                "balance": "0x00",
                "code": "0x3373fffffffffffffffffffffffffffffffffffffffe14604d57602036146024575f5ffd5b5f35801560495762001fff810690815414603c575f5ffd5b62001fff01545f5260205ff35b5f5ffd5b62001fff42064281555f359062001fff015500",
                "storage": {}
            },
            "0xa94f5374fce5edbc8e2a8697c15331677e6ebf0b": {
                "nonce": "0x00",
                "balance": "0x3635c9adc5dea00000",
                "code": "0x",
                "storage": {}
            },
            "0x0000000000000000000000000000000000001000": {
                "nonce": "0x01",
                "balance": "0x00",
                "code": "0x610039600081600b8239f35f35805f14602e57600114600f57005b6001805401600155738a0a19589531694250d570040a0c4b74576919b8ff5b60015f54015f555f80f3",
                "storage": {}
            },
            "0x0000000000000000000000000000000000001100": {
                "nonce": "0x01",
                "balance": "0x03",
                "code": "0x5f356001815f1460385750600114601257005b60015f525f8060208160017364e2ebd6405af8cb348aec519084d3fff42ebba645f15f80fd5b5f80525f8060208160017364e2ebd6405af8cb348aec519084d3fff42ebba645f1505f525f80602081803045f1507364e2ebd6405af8cb348aec519084d3fff42ebba63160015560015f525f8060208160017364e2ebd6405af8cb348aec519084d3fff42ebba645f15f80f3",
                "storage": {}
            }
        },
        "postState": {
            "0x000f3df6d732807ef1319fb7b8bb8522d0beac02": {
                "nonce": "0x01",
                "balance": "0x00",
                "code": "0x3373fffffffffffffffffffffffffffffffffffffffe14604d57602036146024575f5ffd5b5f35801560495762001fff810690815414603c575f5ffd5b62001fff01545f5260205ff35b5f5ffd5b62001fff42064281555f359062001fff015500",
                "storage": {
                    "0x03e8": "0x03e8"
                }
            },
            "0xa94f5374fce5edbc8e2a8697c15331677e6ebf0b": {
                "nonce": "0x01",
                "balance": "0x3635c9adc5de726866",
                "code": "0x",
                "storage": {}
            },
            "0x0000000000000000000000000000000000001000": {
                "nonce": "0x01",
                "balance": "0x00",
                "code": "0x610039600081600b8239f35f35805f14602e57600114600f57005b6001805401600155738a0a19589531694250d570040a0c4b74576919b8ff5b60015f54015f555f80f3",
                "storage": {}
            },
            "0x0000000000000000000000000000000000001100": {
                "nonce": "0x01",
                "balance": "0x01",
                "code": "0x5f356001815f1460385750600114601257005b60015f525f8060208160017364e2ebd6405af8cb348aec519084d3fff42ebba645f15f80fd5b5f80525f8060208160017364e2ebd6405af8cb348aec519084d3fff42ebba645f1505f525f80602081803045f1507364e2ebd6405af8cb348aec519084d3fff42ebba63160015560015f525f8060208160017364e2ebd6405af8cb348aec519084d3fff42ebba645f15f80f3",
                "storage": {
                    "0x01": "0x01"
                }
            },
            "0x6295ee1b4f6dd65047762f924ecd367c17eabf8f": {
                "nonce": "0x02",
                "balance": "0x00",
                "code": "0x",
                "storage": {
                    "0x00": "0x64e2ebd6405af8cb348aec519084d3fff42ebba6"
                }
            },
            "0x8a0a19589531694250d570040a0c4b74576919b8": {
                "nonce": "0x00",
                "balance": "0x02",
                "code": "0x",
                "storage": {}
            },
            "0x2adc25665018aa1fe0e6bc666dac8fc2697ff9ba": {
                "nonce": "0x00",
                "balance": "0x0dad7b",
                "code": "0x",
                "storage": {}
            }
        },
        "lastblockhash": "0xc1750f3f9c96f96b6cf63f346eb97da81ac3223b0a744cbe910c30ca94bccce4",
        "config": {
            "network": "Cancun",
            "chainid": "0x01",
            "blobSchedule": {
                "Cancun": {
                    "target": "0x03",
                    "max": "0x06",
                    "baseFeeUpdateFraction": "0x32f0ed"
                }
            }
        },
        "genesisRLP": "0xf9023cf90236a00000000000000000000000000000000000000000000000000000000000000000a01dcc4de8dec75d7aab85b567b6ccd41ad312451b948a7413f0a142fd40d49347940000000000000000000000000000000000000000a0a0e9f8e08ee431aee653607c7ca9ffded88469b44c94edfc905ba5261efd7a2da056e81f171bcc55a6ff8345e692c0f86e5b48e01b996cadc001622fb5e363b421a056e81f171bcc55a6ff8345e692c0f86e5b48e01b996cadc001622fb5e363b421b9010000000000000000000000000000000000000000000000000000000000000000000000000000000000000000000000000000000000000000000000000000000000000000000000000000000000000000000000000000000000000000000000000000000000000000000000000000000000000000000000000000000000000000000000000000000000000000000000000000000000000000000000000000000000000000000000000000000000000000000000000000000000000000000000000000000000000000000000000000000000000000000000000000000000000000000000000000000000000000000000000000000000000000000000000000000000808084044aa200808000a0000000000000000000000000000000000000000000000000000000000000000088000000000000000007a056e81f171bcc55a6ff8345e692c0f86e5b48e01b996cadc001622fb5e363b4218080a00000000000000000000000000000000000000000000000000000000000000000c0c0c0",
        "blocks": [
            {
                "blockHeader": {
                    "parentHash": "0x6bd902a775c4ad318bad10bbcc82b3c52a79c9d3efa482ec5436fe9eca615a43",
                    "uncleHash": "0x1dcc4de8dec75d7aab85b567b6ccd41ad312451b948a7413f0a142fd40d49347",
                    "coinbase": "0x2adc25665018aa1fe0e6bc666dac8fc2697ff9ba",
                    "stateRoot": "0x66ce527f791526fe59f4061da75660760a90f94b197e3072cd96ac2fcec78f23",
                    "transactionsTrie": "0x80ddf2bffb3b3134db3eb055b24dbcc5e94a2cfa9d4fc590e090ee09e0b9ce60",
                    "receiptTrie": "0xf9d73f59aea5df50c6118d550b55c3f1c1898d71b50be3ea05a32546ac4e6c91",
                    "bloom": "0x00000000000000000000000000000000000000000000000000000000000000000000000000000000000000000000000000000000000000000000000000000000000000000000000000000000000000000000000000000000000000000000000000000000000000000000000000000000000000000000000000000000000000000000000000000000000000000000000000000000000000000000000000000000000000000000000000000000000000000000000000000000000000000000000000000000000000000000000000000000000000000000000000000000000000000000000000000000000000000000000000000000000000000000000000000000",
                    "difficulty": "0x00",
                    "number": "0x01",
                    "gasLimit": "0x044aa200",
                    "gasUsed": "0x048f29",
                    "timestamp": "0x03e8",
                    "extraData": "0x00",
                    "mixHash": "0x0000000000000000000000000000000000000000000000000000000000000000",
                    "nonce": "0x0000000000000000",
                    "baseFeePerGas": "0x07",
                    "withdrawalsRoot": "0x56e81f171bcc55a6ff8345e692c0f86e5b48e01b996cadc001622fb5e363b421",
                    "blobGasUsed": "0x00",
                    "excessBlobGas": "0x00",
                    "parentBeaconBlockRoot": "0x0000000000000000000000000000000000000000000000000000000000000000",
                    "hash": "0xc1750f3f9c96f96b6cf63f346eb97da81ac3223b0a744cbe910c30ca94bccce4"
                },
                "transactions": [
                    {
                        "type": "0x00",
                        "chainId": "0x01",
                        "nonce": "0x00",
                        "gasPrice": "0x0a",
                        "gasLimit": "0x01312d00",
                        "value": "0x00",
                        "data": "0x6044600060006110003c604460006000f06000556000600060006000600061110045f1",
                        "v": "0x25",
                        "r": "0xedf6c0996679c6afbbe7913f657a68f2801d06e538fa9a87ecef821d312ae3eb",
                        "s": "0x05bc89ac8d0dbff67fbc5f6debacb828c633e28b1910734945e7e73b31390c1e",
                        "sender": "0xa94f5374fce5edbc8e2a8697c15331677e6ebf0b",
                        "to": ""
                    }
                ],
                "uncleHeaders": [],
                "withdrawals": [],
                "rlp": "0xf902b4f9023ba06bd902a775c4ad318bad10bbcc82b3c52a79c9d3efa482ec5436fe9eca615a43a01dcc4de8dec75d7aab85b567b6ccd41ad312451b948a7413f0a142fd40d49347942adc25665018aa1fe0e6bc666dac8fc2697ff9baa066ce527f791526fe59f4061da75660760a90f94b197e3072cd96ac2fcec78f23a080ddf2bffb3b3134db3eb055b24dbcc5e94a2cfa9d4fc590e090ee09e0b9ce60a0f9d73f59aea5df50c6118d550b55c3f1c1898d71b50be3ea05a32546ac4e6c91b9010000000000000000000000000000000000000000000000000000000000000000000000000000000000000000000000000000000000000000000000000000000000000000000000000000000000000000000000000000000000000000000000000000000000000000000000000000000000000000000000000000000000000000000000000000000000000000000000000000000000000000000000000000000000000000000000000000000000000000000000000000000000000000000000000000000000000000000000000000000000000000000000000000000000000000000000000000000000000000000000000000000000000000000000000000000000800184044aa20083048f298203e800a0000000000000000000000000000000000000000000000000000000000000000088000000000000000007a056e81f171bcc55a6ff8345e692c0f86e5b48e01b996cadc001622fb5e363b4218080a00000000000000000000000000000000000000000000000000000000000000000f872f870800a8401312d008080a36044600060006110003c604460006000f06000556000600060006000600061110045f125a0edf6c0996679c6afbbe7913f657a68f2801d06e538fa9a87ecef821d312ae3eba005bc89ac8d0dbff67fbc5f6debacb828c633e28b1910734945e7e73b31390c1ec0c0",
                "blocknumber": "1"
            }
        ],
        "sealEngine": "NoProof",
        "_info": {
            "hash": "0xc96c8232954e5d06f7a04d19fae2311b10b162ace40c98d2ac907742f45dbf4c",
            "comment": "`execution-spec-tests` generated test",
            "filling-transition-tool": "ethereum-spec-evm-resolver 0.0.5",
            "description": "Given:\n        Contract A which has methods to receive balance and selfdestruct, and was created in current tx\n    Test the following call sequence:\n         Transfer value to A and call A.selfdestruct.\n         Recurse into a new call from transfers value to A, calls A.selfdestruct, and reverts.",
            "url": "https://github.com/ethereum/execution-spec-tests/tree/v4.5.0/tests/cancun/eip6780_selfdestruct/test_selfdestruct_revert.py#L192",
            "fixture-format": "blockchain_test",
            "reference-spec": "https://github.com/ethereum/EIPs/blob/master/EIPS/eip-6780.md",
            "reference-spec-version": "1b6a0e94cc47e859b9866e570391cf37dc55059a",
            "eels-resolution": {
                "git-url": "https://github.com/ethereum/execution-specs.git",
                "branch": "master",
                "commit": "fa847a0e48309debee8edc510ceddb2fd5db2f2e"
            }
        }
    },
    "tests/cancun/eip6780_selfdestruct/test_selfdestruct_revert.py::test_selfdestruct_created_in_same_tx_with_revert[fork_Cancun-blockchain_test_from_state_test-outer_selfdestruct_before_inner_call-same_tx]": {
        "network": "Cancun",
        "genesisBlockHeader": {
            "parentHash": "0x0000000000000000000000000000000000000000000000000000000000000000",
            "uncleHash": "0x1dcc4de8dec75d7aab85b567b6ccd41ad312451b948a7413f0a142fd40d49347",
            "coinbase": "0x0000000000000000000000000000000000000000",
            "stateRoot": "0x71b0550e589f95cd3e2466ee7db913e6d36f41f81f10147b0c9ed77ba60b46bd",
            "transactionsTrie": "0x56e81f171bcc55a6ff8345e692c0f86e5b48e01b996cadc001622fb5e363b421",
            "receiptTrie": "0x56e81f171bcc55a6ff8345e692c0f86e5b48e01b996cadc001622fb5e363b421",
            "bloom": "0x00000000000000000000000000000000000000000000000000000000000000000000000000000000000000000000000000000000000000000000000000000000000000000000000000000000000000000000000000000000000000000000000000000000000000000000000000000000000000000000000000000000000000000000000000000000000000000000000000000000000000000000000000000000000000000000000000000000000000000000000000000000000000000000000000000000000000000000000000000000000000000000000000000000000000000000000000000000000000000000000000000000000000000000000000000000",
            "difficulty": "0x00",
            "number": "0x00",
            "gasLimit": "0x044aa200",
            "gasUsed": "0x00",
            "timestamp": "0x00",
            "extraData": "0x00",
            "mixHash": "0x0000000000000000000000000000000000000000000000000000000000000000",
            "nonce": "0x0000000000000000",
            "baseFeePerGas": "0x07",
            "withdrawalsRoot": "0x56e81f171bcc55a6ff8345e692c0f86e5b48e01b996cadc001622fb5e363b421",
            "blobGasUsed": "0x00",
            "excessBlobGas": "0x00",
            "parentBeaconBlockRoot": "0x0000000000000000000000000000000000000000000000000000000000000000",
            "hash": "0x57eb39aa413c1fca9f1ae6224077ae0a925c54bcf7a5256ed792e6304c801fab"
        },
        "pre": {
            "0x000f3df6d732807ef1319fb7b8bb8522d0beac02": {
                "nonce": "0x01",
                "balance": "0x00",
                "code": "0x3373fffffffffffffffffffffffffffffffffffffffe14604d57602036146024575f5ffd5b5f35801560495762001fff810690815414603c575f5ffd5b62001fff01545f5260205ff35b5f5ffd5b62001fff42064281555f359062001fff015500",
                "storage": {}
            },
            "0xa94f5374fce5edbc8e2a8697c15331677e6ebf0b": {
                "nonce": "0x00",
                "balance": "0x3635c9adc5dea00000",
                "code": "0x",
                "storage": {}
            },
            "0x0000000000000000000000000000000000001000": {
                "nonce": "0x01",
                "balance": "0x00",
                "code": "0x610039600081600b8239f35f35805f14602e57600114600f57005b6001805401600155738a0a19589531694250d570040a0c4b74576919b8ff5b60015f54015f555f80f3",
                "storage": {}
            },
            "0x0000000000000000000000000000000000001100": {
                "nonce": "0x01",
                "balance": "0x03",
                "code": "0x5f356001815f1460385750600114601257005b60015f525f8060208160017364e2ebd6405af8cb348aec519084d3fff42ebba645f15f80fd5b60015f525f8060208160017364e2ebd6405af8cb348aec519084d3fff42ebba645f1505f80525f8060208160017364e2ebd6405af8cb348aec519084d3fff42ebba645f1505f525f80602081803045f1507364e2ebd6405af8cb348aec519084d3fff42ebba6316001555f80f3",
                "storage": {}
            }
        },
        "postState": {
            "0x000f3df6d732807ef1319fb7b8bb8522d0beac02": {
                "nonce": "0x01",
                "balance": "0x00",
                "code": "0x3373fffffffffffffffffffffffffffffffffffffffe14604d57602036146024575f5ffd5b5f35801560495762001fff810690815414603c575f5ffd5b62001fff01545f5260205ff35b5f5ffd5b62001fff42064281555f359062001fff015500",
                "storage": {
                    "0x03e8": "0x03e8"
                }
            },
            "0xa94f5374fce5edbc8e2a8697c15331677e6ebf0b": {
                "nonce": "0x01",
                "balance": "0x3635c9adc5de79f5ea",
                "code": "0x",
                "storage": {}
            },
            "0x0000000000000000000000000000000000001000": {
                "nonce": "0x01",
                "balance": "0x00",
                "code": "0x610039600081600b8239f35f35805f14602e57600114600f57005b6001805401600155738a0a19589531694250d570040a0c4b74576919b8ff5b60015f54015f555f80f3",
                "storage": {}
            },
            "0x0000000000000000000000000000000000001100": {
                "nonce": "0x01",
                "balance": "0x01",
                "code": "0x5f356001815f1460385750600114601257005b60015f525f8060208160017364e2ebd6405af8cb348aec519084d3fff42ebba645f15f80fd5b60015f525f8060208160017364e2ebd6405af8cb348aec519084d3fff42ebba645f1505f80525f8060208160017364e2ebd6405af8cb348aec519084d3fff42ebba645f1505f525f80602081803045f1507364e2ebd6405af8cb348aec519084d3fff42ebba6316001555f80f3",
                "storage": {
                    "0x01": "0x01"
                }
            },
            "0x6295ee1b4f6dd65047762f924ecd367c17eabf8f": {
                "nonce": "0x02",
                "balance": "0x00",
                "code": "0x",
                "storage": {
                    "0x00": "0x64e2ebd6405af8cb348aec519084d3fff42ebba6"
                }
            },
            "0x8a0a19589531694250d570040a0c4b74576919b8": {
                "nonce": "0x00",
                "balance": "0x01",
                "code": "0x",
                "storage": {}
            },
            "0x2adc25665018aa1fe0e6bc666dac8fc2697ff9ba": {
                "nonce": "0x00",
                "balance": "0x0b696d",
                "code": "0x",
                "storage": {}
            }
        },
        "lastblockhash": "0x101677de3f1a766a4af57a436b85424a74bab01178d99fcaf04d68ce2c936d69",
        "config": {
            "network": "Cancun",
            "chainid": "0x01",
            "blobSchedule": {
                "Cancun": {
                    "target": "0x03",
                    "max": "0x06",
                    "baseFeeUpdateFraction": "0x32f0ed"
                }
            }
        },
        "genesisRLP": "0xf9023cf90236a00000000000000000000000000000000000000000000000000000000000000000a01dcc4de8dec75d7aab85b567b6ccd41ad312451b948a7413f0a142fd40d49347940000000000000000000000000000000000000000a071b0550e589f95cd3e2466ee7db913e6d36f41f81f10147b0c9ed77ba60b46bda056e81f171bcc55a6ff8345e692c0f86e5b48e01b996cadc001622fb5e363b421a056e81f171bcc55a6ff8345e692c0f86e5b48e01b996cadc001622fb5e363b421b9010000000000000000000000000000000000000000000000000000000000000000000000000000000000000000000000000000000000000000000000000000000000000000000000000000000000000000000000000000000000000000000000000000000000000000000000000000000000000000000000000000000000000000000000000000000000000000000000000000000000000000000000000000000000000000000000000000000000000000000000000000000000000000000000000000000000000000000000000000000000000000000000000000000000000000000000000000000000000000000000000000000000000000000000000000000000808084044aa200808000a0000000000000000000000000000000000000000000000000000000000000000088000000000000000007a056e81f171bcc55a6ff8345e692c0f86e5b48e01b996cadc001622fb5e363b4218080a00000000000000000000000000000000000000000000000000000000000000000c0c0c0",
        "blocks": [
            {
                "blockHeader": {
                    "parentHash": "0x57eb39aa413c1fca9f1ae6224077ae0a925c54bcf7a5256ed792e6304c801fab",
                    "uncleHash": "0x1dcc4de8dec75d7aab85b567b6ccd41ad312451b948a7413f0a142fd40d49347",
                    "coinbase": "0x2adc25665018aa1fe0e6bc666dac8fc2697ff9ba",
                    "stateRoot": "0x82dbe34bb8fd6c5c760f5f5307c7d7043807a0c89439441f8f62416306f8aeb1",
                    "transactionsTrie": "0x80ddf2bffb3b3134db3eb055b24dbcc5e94a2cfa9d4fc590e090ee09e0b9ce60",
                    "receiptTrie": "0x0aea365a8b4cc6ff0f507a350eb2c82a5a0997c6f886ffb7f6c5bfae61b59fbe",
                    "bloom": "0x00000000000000000000000000000000000000000000000000000000000000000000000000000000000000000000000000000000000000000000000000000000000000000000000000000000000000000000000000000000000000000000000000000000000000000000000000000000000000000000000000000000000000000000000000000000000000000000000000000000000000000000000000000000000000000000000000000000000000000000000000000000000000000000000000000000000000000000000000000000000000000000000000000000000000000000000000000000000000000000000000000000000000000000000000000000",
                    "difficulty": "0x00",
                    "number": "0x01",
                    "gasLimit": "0x044aa200",
                    "gasUsed": "0x03cdcf",
                    "timestamp": "0x03e8",
                    "extraData": "0x00",
                    "mixHash": "0x0000000000000000000000000000000000000000000000000000000000000000",
                    "nonce": "0x0000000000000000",
                    "baseFeePerGas": "0x07",
                    "withdrawalsRoot": "0x56e81f171bcc55a6ff8345e692c0f86e5b48e01b996cadc001622fb5e363b421",
                    "blobGasUsed": "0x00",
                    "excessBlobGas": "0x00",
                    "parentBeaconBlockRoot": "0x0000000000000000000000000000000000000000000000000000000000000000",
                    "hash": "0x101677de3f1a766a4af57a436b85424a74bab01178d99fcaf04d68ce2c936d69"
                },
                "transactions": [
                    {
                        "type": "0x00",
                        "chainId": "0x01",
                        "nonce": "0x00",
                        "gasPrice": "0x0a",
                        "gasLimit": "0x01312d00",
                        "value": "0x00",
                        "data": "0x6044600060006110003c604460006000f06000556000600060006000600061110045f1",
                        "v": "0x25",
                        "r": "0xedf6c0996679c6afbbe7913f657a68f2801d06e538fa9a87ecef821d312ae3eb",
                        "s": "0x05bc89ac8d0dbff67fbc5f6debacb828c633e28b1910734945e7e73b31390c1e",
                        "sender": "0xa94f5374fce5edbc8e2a8697c15331677e6ebf0b",
                        "to": ""
                    }
                ],
                "uncleHeaders": [],
                "withdrawals": [],
                "rlp": "0xf902b4f9023ba057eb39aa413c1fca9f1ae6224077ae0a925c54bcf7a5256ed792e6304c801faba01dcc4de8dec75d7aab85b567b6ccd41ad312451b948a7413f0a142fd40d49347942adc25665018aa1fe0e6bc666dac8fc2697ff9baa082dbe34bb8fd6c5c760f5f5307c7d7043807a0c89439441f8f62416306f8aeb1a080ddf2bffb3b3134db3eb055b24dbcc5e94a2cfa9d4fc590e090ee09e0b9ce60a00aea365a8b4cc6ff0f507a350eb2c82a5a0997c6f886ffb7f6c5bfae61b59fbeb9010000000000000000000000000000000000000000000000000000000000000000000000000000000000000000000000000000000000000000000000000000000000000000000000000000000000000000000000000000000000000000000000000000000000000000000000000000000000000000000000000000000000000000000000000000000000000000000000000000000000000000000000000000000000000000000000000000000000000000000000000000000000000000000000000000000000000000000000000000000000000000000000000000000000000000000000000000000000000000000000000000000000000000000000000000000000800184044aa2008303cdcf8203e800a0000000000000000000000000000000000000000000000000000000000000000088000000000000000007a056e81f171bcc55a6ff8345e692c0f86e5b48e01b996cadc001622fb5e363b4218080a00000000000000000000000000000000000000000000000000000000000000000f872f870800a8401312d008080a36044600060006110003c604460006000f06000556000600060006000600061110045f125a0edf6c0996679c6afbbe7913f657a68f2801d06e538fa9a87ecef821d312ae3eba005bc89ac8d0dbff67fbc5f6debacb828c633e28b1910734945e7e73b31390c1ec0c0",
                "blocknumber": "1"
            }
        ],
        "sealEngine": "NoProof",
        "_info": {
            "hash": "0x1eabb9284671a636a4c0296bb9aaad2cfaab0b2d3cc116cd909daac03bb56d36",
            "comment": "`execution-spec-tests` generated test",
            "filling-transition-tool": "ethereum-spec-evm-resolver 0.0.5",
            "description": "Given:\n        Contract A which has methods to receive balance and selfdestruct, and was created in current tx\n    Test the following call sequence:\n         Transfer value to A and call A.selfdestruct.\n         Recurse into a new call from transfers value to A, calls A.selfdestruct, and reverts.",
            "url": "https://github.com/ethereum/execution-spec-tests/tree/v4.5.0/tests/cancun/eip6780_selfdestruct/test_selfdestruct_revert.py#L192",
            "fixture-format": "blockchain_test",
            "reference-spec": "https://github.com/ethereum/EIPs/blob/master/EIPS/eip-6780.md",
            "reference-spec-version": "1b6a0e94cc47e859b9866e570391cf37dc55059a",
            "eels-resolution": {
                "git-url": "https://github.com/ethereum/execution-specs.git",
                "branch": "master",
                "commit": "fa847a0e48309debee8edc510ceddb2fd5db2f2e"
            }
        }
    }
}